:020000040800F2
:1000000068040020A9040008090500080905000883
:10001000090500080905000809050008000000009E
:1000200000000000000000000000000009050008BA
:10003000090500080000000009050008090500087E
:100040000905000809050008090500080905000858
:100050000905000809050008090500080905000848
:100060000905000809050008090500080905000838
:10007000290C000809050008090500080905000801
:10008000090500080D0C000809050008090500080D
:100090000905000809050008090500080905000808
:1000A00009050008090500080905000809050008F8
:1000B000750B0008C10B00080905000809050008B8
:1000C00009050008090500080905000809050008D8
:1000D0000905000809050008A10A0008190B000815
:1000E00009050008090500080905000800000000CE
:1000F0000000000000000000000000000000000000
:1001000000000000000000005FF808F180B485B036
:1001100000AF786039600023FB817B681B88FB811E
:100120007B682E4A934213D07B682D4A93420FD0AE
:100130007B68B3F1804F0BD07B682A4A934207D08B
:100140007B68294A934203D07B68284A934208D1AE
:10015000FB8923F07003FB813B685A88FB891343BA
:10016000FB817B68224A93420CD07B68214A9342F0
:1001700008D0FB8923F44073FB813B68DA88FB8954
:100180001343FB817B68FA891A803B689A887B68F5
:100190009A853B681A887B681A857B680F4A934268
:1001A0000FD07B680E4A93420BD07B68124A934271
:1001B00007D07B68114A934203D07B68104A934270
:1001C00004D13B681B7A9AB27B681A867B6801224D
:1001D0009A8200BF1437BD4680BC7047002C014096
:1001E000003401400004004000080040000C0040C2
:1001F0000010004000140040004001400044014055
:100200000048014080B483B000AF78607B684FF64F
:10021000FF729A807B6800221A807B680022DA8055
:100220007B6800225A807B6800221A7200BF0C375C
:10023000BD4680BC704700BF80B483B000AF78601B
:100240000B46FB70FB78002B08D07B681B889BB2A9
:1002500043F001039AB27B681A8007E07B681B8831
:100260009BB223F001039AB27B681A8000BF0C375F
:10027000BD4680BC704700BF80B483B000AF7860DB
:100280000B467B8013467B707B78002B08D07B6805
:100290009B899AB27B8813439AB27B689A8109E062
:1002A0007B689B899AB27B88DB439BB213409AB2EE
:1002B0007B689A8100BF0C37BD4680BC704700BF89
:1002C00080B485B000AF78600B467B800023FB7361
:1002D0000023BB8100237B817B681B8A9AB27B88C9
:1002E0001340BB817B689B899AB27B8813407B81DA
:1002F000BB89002B05D07B89002B02D00123FB7327
:1003000001E00023FB73FB7B18461437BD4680BC1D
:10031000704700BF80B483B000AF78600B467B802D
:100320007B88DB439AB27B681A8200BF0C37BD46DC
:1003300080BC704780B500AF154A154B1B6843F071
:10034000010313601249124B5A68124B13404B6061
:100350000F4A0F4B1B6823F0847323F48033136020
:100360000B4A0B4B1B6823F480231360084A084B8D
:100370005B6823F4FE035360054B4FF41F029A6041
:1003800000F00CF8044B4FF000629A6000BF80BD93
:10039000001002400000FFF800ED00E080B500AF63
:1003A00000F002F800BF80BD80B483B000AF00232E
:1003B0007B6000233B603A4A394B1B6843F480332F
:1003C0001360374B1B6803F400333B607B680133D9
:1003D0007B603B68002B03D17B68B3F5A06FF0D145
:1003E0002F4B1B6803F40033002B02D001233B602A
:1003F00001E000233B603B68012B4BD1294A294B8C
:100400001B6843F010031360264A264B1B6823F039
:1004100003031360234A234B1B6843F0020313605A
:100420001F4A1F4B5B6853601D4A1D4B5B6853603E
:100430001B4A1B4B5B6843F480635360184A184B9C
:100440005B6823F47C135360154A154B5B6843F4D7
:10045000E8135360124A124B1B6843F08073136019
:1004600000BF0F4B1B6803F00073002BF9D00C4A40
:100470000B4B5B6823F003035360094A084B5B682E
:1004800043F00203536000BF054B5B6803F00C03AD
:10049000082BF9D100BF0C37BD4680BC704700BFA8
:1004A000001002400020024080B582B000AF114B26
:1004B0007B60114B3B6007E03B681A1D3A607A682D
:1004C000111D796012681A603B680C4A9342F3D39D
:1004D0000B480C494FF000028842B8BF40F8042B8B
:1004E000FADBFFF727FF00F0E5FB00BF0837BD464A
:1004F00080BD00BF441E000800000020380000201E
:10050000380000206800002080B400AFFEE700BF84
:1005100080B489B000AF786039600023FB610023AC
:100520003B610023BB610023FB6000237B61002350
:10053000BB603B68DB7803F00F03FB613B68DB7853
:1005400003F01003002B05D03B689B781A46FB692B
:100550001343FB613B681B88DBB2002B44D07B68F4
:100560001B687B610023BB6138E00122BB6902FA92
:1005700003F3FB603B681B881A46FB6813403B6132
:100580003A69FB689A4226D1BB699B00FB600F2247
:10059000FB6802FA03F3BB60BB68DB437A69134074
:1005A0007B61FA69FB6802FA03F37A6913437B61A2
:1005B0003B68DB78282B05D10122BB699A407B6818
:1005C0005A6108E03B68DB78482B04D10122BB6903
:1005D0009A407B681A61BB690133BB61BB69072B19
:1005E000C3D97B687A691A603B681B88FF2B46D9A0
:1005F0007B685B687B610023BB613AE0BB690833C1
:10060000012202FA03F3FB603B681B881A46FB6871
:1006100013403B613A69FB689A4227D1BB699B0052
:10062000FB600F22FB6802FA03F3BB60BB68DB438D
:100630007A6913407B61FA69FB6802FA03F37A690D
:1006400013437B613B68DB78282B05D1BB690833FA
:1006500001229A407B685A613B68DB78482B05D1C0
:10066000BB69083301229A407B681A61BB69013378
:10067000BB61BB69072BC1D97B687A695A6000BF2F
:100680002437BD4680BC704780B483B000AF78602B
:100690000B467B807A887B681A6100BF0C37BD46A9
:1006A00080BC704780B483B000AF78600B467B801D
:1006B0007A887B685A6100BF0C37BD4680BC7047A2
:1006C00080B483B000AF0346FB71084997F9073047
:1006D0005B09FA7902F01F02012000FA02F241F8E8
:1006E000232000BF0C37BD4680BC704700E100E00E
:1006F00080B598B000AF01214FF4003000F0F4FC59
:100700000121042000F0D2FC0423A7F85C3003236D
:1007100087F85E30182387F85F3007F15C031946CD
:10072000C448FFF7F5FE0823A7F85C30042387F8D8
:100730005F3007F15C031946BE48FFF7E9FE4FF44E
:100740006153FB644FF48053A7F850304FF40053CB
:10075000A7F852304FF48063A7F854300023A7F86D
:1007600058300C23A7F8563007F14C031946B2480D
:1007700000F012FD0121B04800F0C8FD262387F8E3
:100780004830002387F84930002387F84A30012396
:1007900087F84B3007F14803184601F071F9012240
:1007A00040F22551A44800F0D1FD01226021A24869
:1007B00000F0CCFD01214FF4802000F095FC0121D8
:1007C000082000F073FC4FF48063A7F85C3003232B
:1007D00087F85E30182387F85F3007F15C0319460D
:1007E0009648FFF795FE4FF40063A7F85C300423AA
:1007F00087F85F3007F15C0319469048FFF788FEE1
:1008000007F14C0319468E4800F0C6FC01218C48C4
:1008100000F07CFD272387F84830002387F8493013
:10082000002387F84A30012387F84B3007F148034B
:10083000184601F025F9012240F22551804800F0C8
:1008400085FD0121012000F04FFC07F13C03184613
:10085000FFF7D8FC0023FB874FF4E153BB874FF42D
:100860009673A7F8403007F13C0319464FF08040DB
:10087000FFF74CFC012201214FF08040FFF7FCFC08
:1008800001214FF08040FFF7D7FC1C2387F8483048
:10089000002387F84930002387F84A30012387F87E
:1008A0004B3007F14803184601F0EAF80121022015
:1008B00000F01AFC07F13C031846FFF7A3FC0023E5
:1008C000FB874FF4E153BB876423A7F8403007F15F
:1008D0003C0319465B48FFF719FC012201215948E6
:1008E000FFF7CAFC01215748FFF7A6FC1D2387F834
:1008F0004830002387F84930002387F84A30012325
:1009000087F84B3007F14803184601F0B9F8012188
:10091000012000F0ADFB4C4B3B614C4B7B61102345
:10092000BB611723FB6100233B6280237B620023B2
:10093000BB620023FB6200233B6300237B63002335
:10094000BB6307F110031946414800F06FFF012215
:100950008021394800F042FD012202213C4800F08C
:10096000BFFF1120FFF7ACFE3A4B3B613A4B7B6176
:100970000723FB6107F110031946384800F056FFC2
:10098000012280212E4800F029FD01220221334856
:1009900000F0A6FF0C20FFF793FE01214FF400109A
:1009A00000F0A2FB0121082000F080FBC023A7F883
:1009B0005C30032387F85E301C2387F85F3007F133
:1009C0005C0319461D48FFF7A3FD0023BB804BF6CF
:1009D000FF73FB8038233B814FF480637B814FF4AE
:1009E0008043BB811E4B3B6001211E4801F06CF926
:1009F0003B4619461B4801F0A5F80121102000F0E4
:100A000055FB4FF46043A7F85C30102387F85F3044
:100A1000032387F85E3007F15C0319461248FFF79D
:100A200077FD4FF460411048FFF73CFE00BF603790
:100A3000BD4680BD0008014000440040000C01405C
:100A400000480040000400400444004050000020E2
:100A50008000024004480040480000201C00024082
:100A6000A0860100005400400010014080B582B013
:100A700000AF04210848FFF715FE00237B6002E069
:100A80007B6801337B607B68044A9342F8D900BFDE
:100A90000837BD4680BD00BF000801403F420F003F
:100AA00098B500AF184B1B889BB203F00703002BCF
:100AB00008D0164B01221A70134800F0B3FCFFF760
:100AC000D5FF1FE0104B1B889BB203F02003002BC7
:100AD00018D00F4B1B78162B14D80D4B1B785A1CB3
:100AE000D1B20B4A11701C46074800F09BFC03462C
:100AF000DAB2084B1A554FF0804300229A84034B18
:100B000001221A7000BF98BD004400403800002048
:100B1000460000205000002098B500AF104B1B8805
:100B20009BB203F02003002B17D00E4B1B78062B33
:100B300013D80C4B1B785A1CD1B20A4A11701C46B0
:100B4000074800F06FFC0346DAB2074B1A55074B13
:100B500000229A84064B01221A7000BF98BD00BF84
:100B600000480040440000204800002000040040ED
:100B70003900002080B500AF01214FF08040FFF721
:100B80009FFB0346002B13D001214FF08040FFF75D
:100B9000C1FB084B1B78002B0AD000F0D9FE064899
:100BA00000F040FC034B00221A70044B00221A7024
:100BB00000BF80BD380000200044004046000020F7
:100BC00080B500AF01210D48FFF77AFB0346002BEB
:100BD00012D001210948FFF79DFB094B1B78002B20
:100BE0000AD000F035FD074800F01CFC044B002241
:100BF0001A70054B00221A7000BF80BD000400402F
:100C000039000020004800404400002080B500AFBB
:100C10004FF0007000F082FE0021024800F044FE18
:100C200000BF80BD8000024080B500AF202000F0F2
:100C300075FE0021024800F037FE00BF80BD00BFF6
:100C40001C00024080B500AF00F03EF84FF4803049
:100C500000F068F800BF312000F064FA0346002B72
:100C6000F9D0002000F0E4F8002000F019F94FF46A
:100C7000806000F0F9F84FF4804000F02DF94FF457
:100C8000E0114FF4803000F07BF8012000F096F87E
:100C900000BF392000F046FA0346002BF9D00220AD
:100CA00000F09CF800BF00F0B5F80346082BFAD11D
:100CB00000BF80BD80B500AFFFF7C4FFFFF718FD90
:100CC000FFF7D4FEFEE700BF80B400AF134A134B1A
:100CD0001B6843F0010313601049104B5A68104B16
:100CE00013404B600D4A0D4B1B6823F0847323F4B3
:100CF00080331360094A094B1B6823F48023136077
:100D0000064A064B5B6823F4FE035360034B4FF423
:100D10001F029A6000BFBD4680BC704700100240B1
:100D20000000FFF880B483B000AF7860134A134B23
:100D30001B6823F480331360104A104B1B6823F4A4
:100D4000802313607B68B3F5803F03D0B3F5802F19
:100D500007D00DE0094A094B1B6843F48033136048
:100D600006E0064A054B1B6843F4A023136000BF4E
:100D700000BF0C37BD4680BC704700BF001002406A
:100D800080B485B000AF786039600023FB600A4B07
:100D90005B68FB60FB6823F47C13FB607A683B684C
:100DA0001343FA681343FB60034AFB68536000BFB8
:100DB0001437BD4680BC70470010024080B483B039
:100DC00000AF0346FB71044AFB79136000BF0C3788
:100DD000BD4680BC704700BF6000424280B485B011
:100DE00000AF78600023FB60094B5B68FB60FB6829
:100DF00023F00303FB60FA687B681343FB60044A3B
:100E0000FB68536000BF1437BD4680BC704700BF0D
:100E10000010024080B400AF044B5B68DBB203F00B
:100E20000C03DBB21846BD4680BC70470010024080
:100E300080B485B000AF78600023FB60094B5B682D
:100E4000FB60FB6823F0F003FB60FA687B681343E8
:100E5000FB60044AFB68536000BF1437BD4680BC8A
:100E6000704700BF0010024080B485B000AF7860CA
:100E70000023FB60094B5B68FB60FB6823F4E063C5
:100E8000FB60FA687B681343FB60044AFB685360AD
:100E900000BF1437BD4680BC704700BF0010024041
:100EA00080B485B000AF78600023FB60094B5B68BD
:100EB000FB60FB6823F46053FB607B68DB00FA682F
:100EC0001343FB60034AFB68536000BF1437BD4601
:100ED00080BC70470010024080B485B000AF7860DD
:100EE0000023FB60094B5B68FB60FB6823F4404315
:100EF000FB60FA687B681343FB60044AFB6853603D
:100F000000BF1437BD4680BC704700BF00100240D0
:100F100080B487B000AF786000237B6100233B6121
:100F20000023FB600023BB604C4B5B6803F00C03A9
:100F30007B617B69042B07D0082B09D0002B33D1B0
:100F40007B68474A1A6033E07B68454A1A602FE0A5
:100F5000424B5B6803F470133B61404B5B6803F4E6
:100F60008033FB603B699B0C02333B61FB68002BC9
:100F700006D13B693B4A02FB03F27B681A6017E02B
:100F8000364B5B6803F40033002B06D03B69354ACF
:100F900002FB03F27B681A600AE03B69304A02FBFD
:100FA00003F27B681A6003E07B682D4A1A6000BF79
:100FB0002A4B5B6803F0F0037B617B691B097B6153
:100FC000294A7B6913441B78DBB2BB607B681A68D3
:100FD000BB68DA407B685A60204B5B6803F4E063CF
:100FE0007B617B691B0A7B611F4A7B6913441B7809
:100FF000DBB2BB607B685A68BB68DA407B689A608A
:10100000164B5B6803F460537B617B69DB0A7B6191
:10101000154A7B6913441B78DBB2BB607B685A6856
:10102000BB68DA407B68DA600C4B5B6803F44043D2
:101030007B617B699B0B7B610C4A7B6913441B784A
:10104000DBB2BB607B68DA68BB68B2FBF3F27B683B
:101050001A6100BF1C37BD4680BC704700100240BB
:1010600000127A0000093D0000000020100000205E
:1010700080B483B000AF78600B46FB70FB78002B28
:1010800006D00949084B5A697B6813434B6106E057
:101090000549054B5A697B68DB4313404B6100BF30
:1010A0000C37BD4680BC70470010024080B483B04E
:1010B00000AF78600B46FB70FB78002B06D0094927
:1010C000084B9A697B6813438B6106E00549054B21
:1010D0009A697B68DB4313408B6100BF0C37BD46C8
:1010E00080BC70470010024080B483B000AF7860CD
:1010F0000B46FB70FB78002B06D00949084BDA69D8
:101100007B681343CB6106E00549054BDA697B68D0
:10111000DB431340CB6100BF0C37BD4680BC70473A
:101120000010024080B487B000AF0346FB7100237B
:10113000FB6000237B610023FB74FB795B09DBB25E
:10114000FB60FB68012B03D1124B1B687B6109E03C
:10115000FB68022B03D10F4B1B6A7B6102E00D4B36
:101160005B6A7B61FB7903F01F03FB607A69FB68B4
:1011700022FA03F303F00103002B02D00123FB74D6
:1011800001E00023FB74FB7C18461C37BD4680BC85
:10119000704700BF0010024080B58CB000AF78608F
:1011A00039600023FB620023BB6200237B620023C3
:1011B0003B620023FB617B68FB617B681B8A9BB2FF
:1011C000FB62FA6A4CF6FF731340FB623B68DB88F4
:1011D0001A46FB6A1343FB62FB6A9AB27B681A8267
:1011E0007B689B899BB2FB62FA6A4EF6F31313404D
:1011F000FB623B689A883B681B8913439AB23B6841
:101200005B8913439BB21A46FB6A1343FB62FB6A7A
:101210009AB27B689A817B689B8A9BB2FB62FA6A6E
:101220004FF6FF431340FB623B689B891A46FB6AFB
:101230001343FB62FB6A9AB27B689A8207F1080348
:101240001846FFF765FEFB692E4A934202D17B697F
:10125000BB6201E03B69BB627B689B899BB21BB2AE
:10126000002B0CDABA6A13469B0013449A001A4406
:101270003B681B685B00B2FBF3F37B620BE0BA6A6E
:1012800013469B0013449A001A443B681B689B005A
:10129000B2FBF3F37B627B6A1B4AA2FB03235B096D
:1012A0001B01FB62FB6A1B09642202FB03F37A6ADF
:1012B000D31A3B627B689B899BB21BB2002B0CDA72
:1012C0003B6ADB003233104AA2FB03235B0903F0C5
:1012D0000703FA6A1343FB620BE03B6A1B013233DC
:1012E000094AA2FB03235B0903F00F03FA6A1343C5
:1012F000FB62FB6A9AB27B681A8100BF3037BD4639
:1013000080BD00BF003801401F85EB5180B483B021
:1013100000AF78600B46FB70FB78002B08D07B6831
:101320009B899BB243F400539AB27B689A8107E091
:101330007B689B899BB223F400539AB27B689A81A5
:1013400000BF0C37BD4680BC704700BF80B487B07B
:1013500000AF78600B467B8013467B7000233B61B7
:101360000023FB600023BB6000237B617B687B6103
:101370007B88DBB25B09DBB23B617B8803F01F0338
:10138000FB600122FB6802FA03F3BB603B69012B9F
:1013900003D17B690C337B6109E03B69022B03D1EC
:1013A0007B6910337B6102E07B6914337B617B785E
:1013B000002B06D07B697A691168BA680A431A6003
:1013C00006E07B697A691168BA68D2430A401A60FC
:1013D00000BF1C37BD4680BC704700BF80B483B0DF
:1013E00000AF78600B467B8013467B707B78002BC8
:1013F00008D07B689B8A9AB27B8813439AB27B6839
:101400009A8209E07B689B8A9AB27B88DB439BB215
:1014100013409AB27B689A8200BF0C37BD4680BCED
:10142000704700BF80B483B000AF78607B689B8852
:101430009BB2C3F308039BB218460C37BD4680BC71
:10144000704700BF80B500AF01211F4800F05CFC71
:1014500000BF1E491C4800F0C5FC0346002BF8D015
:1014600000229821184800F09FFC00BF1849164838
:1014700000F0B8FC0346002BF8D09821124800F089
:1014800083FC00BF1349104800F0ACFC0346002B5E
:10149000F8D078210C4800F077FC00BF0D490A48CD
:1014A00000F0A0FC0346002BF8D00121064800F014
:1014B0004BFC00BF0749044800F094FC0346002B96
:1014C000F8D000BF80BD00BF005400400100030001
:1014D000820007008400070080B500AF01211F488B
:1014E00000F012FC00BF1E491C4800F07BFC0346C4
:1014F000002BF8D000229821184800F055FC00BFBE
:101500001849164800F06EFC0346002BF8D09821CD
:10151000124800F039FC00BF1349104800F062FC8B
:101520000346002BF8D07C210C4800F02DFC00BFB6
:101530000D490A4800F056FC0346002BF8D0012163
:10154000064800F001FC00BF0749044800F04AFCCF
:101550000346002BF8D000BF80BD00BF0054004000
:1015600001000300820007008400070080B500AF7F
:101570000021064800F098F9044B17225A60012117
:10158000024800F091F900BF80BD00BF800002401A
:1015900080B500AF0021064800F086F9044B072211
:1015A0005A600121024800F07FF900BF80BD00BFF2
:1015B0001C00024080B485B000AF78600B46FB7021
:1015C0000023FB730023BB6009E0BB687A68134407
:1015D0001A78FB7B1344FB73BB680133BB60FB7859
:1015E0005A1EBB689A42F0DCFB78013B7A681344D0
:1015F0001B78FA7B9A4201D0002300E001231846B1
:101600001437BD4680BC704780B400AF034B012245
:101610001A7000BFBD4680BC704700BF3B00002071
:1016200080B500AF034B01221A70FFF70BFF00BF1C
:1016300080BD00BF4500002080B500AF034B0022F5
:101640001A70FFF749FF00BF80BD00BF45000020B2
:1016500080B582B000AF07215E48FFF7ABFF0346BD
:10166000002B00F0B2805C4B1B78002B21D05B4B31
:101670001B78412B1DD800237B600BE0584A7B6808
:1016800013441978534A7B6813440A461A707B68DE
:1016900001337B607B68062BF0DD4E4B20225A70B5
:1016A0004E4B1B780133DAB24C4B1A7000F09EF8A7
:1016B0008CE0494B1B78002B05D0474B00221A7059
:1016C000464B42221A70474B1B78012B4ED1434B9D
:1016D0001B78002B1AD0414B1B78013BDAB23F4BF1
:1016E0001A7000233B600BE03D4A3B6813441978B5
:1016F000384A3B6813440A461A703B6801333B6022
:101700003B68062BF0DD00F071F85FE0314B5B7851
:10171000402B03D02F4B5B78202B01D1FFF78CFFA0
:101720002C4B5B78022B05D14FF400412E48FEF77D
:10173000ABFF18E0274B9B78012B05D14FF480417C
:101740002948FEF7A1FF0EE0224B9B78022B05D122
:101750004FF400512448FEF797FF04E04FF4604136
:101760002148FEF79FFF00F041F82FE01D4B1B784A
:10177000002B2BD1174B5B78402B16D1154B002239
:101780005A70164B1B780133DAB2144B1A70134B94
:101790001B78422B06D9114B00221A70FFF734FF39
:1017A000FFF73EFF00F022F810E00C4B1B78002BF7
:1017B00008D0084B40225A70084B1B78013BDAB224
:1017C000064B1A7000F012F800E000BF0837BD4663
:1017D00080BD00BF480000203B0000203A000020F0
:1017E00014000020450000200010014080B582B0A8
:1017F00000AF0023FB7100233B6009E00A4A3B680D
:1018000013441A78FB791344FB713B6801333B6046
:101810003B68052BF2DD044AFB799371FFF7B8FEB4
:1018200000BF0837BD4680BD4800002080B485B0A9
:1018300000AF786039600023FB607B681B68FB6049
:10184000FB6823F4FF4323F07003FB603B689A6856
:101850003B681B6A1A433B681B691A433B685B6918
:101860001A433B689B691A433B68DB691A433B6830
:101870005B6A1A433B689B6A1343FA681343FB6035
:101880007B68FA681A603B68DA687B685A603B6874
:101890001A687B689A603B685A687B68DA6000BFA8
:1018A0001437BD4680BC704780B483B000AF786009
:1018B0000B46FB70FB78002B06D07B681B6843F05F
:1018C00001027B681A6006E07B681A684FF6FE73B7
:1018D00013407A68136000BF0C37BD4680BC704768
:1018E00080B485B000AFF860B9601346FB71FB7936
:1018F000002B06D0FB681A68BB681A43FB681A60A5
:1019000006E0FB681A68BB68DB431A40FB681A6094
:1019100000BF1437BD4680BC704700BF80B483B0A1
:1019200000AF78607B6803F08053002B03D0064A39
:101930007B68536002E0054A7B68536000BF0C3748
:10194000BD4680BC704700BF00040240000002405A
:1019500080B582B000AF17213548FFF72BFE034654
:10196000002B61D000237B6017E0324B1B681D2BDE
:1019700009DC314A7B68134419782D4A7B6813448B
:101980000A461A7006E07B68012B02DD7B680D2B8E
:1019900000E000BF7B6801337B607B68162BE4DDD1
:1019A000234B1B78402B03D1224B00221A6004E00A
:1019B000204B1B6801331F4A1360204B1B78012BFF
:1019C0002FD11B4B9B79412B2BD1194BDB79552BFD
:1019D00027D1174B1B7A582B23D1154B86229A708F
:1019E000134B2022DA70124B42221A71104B4C22F8
:1019F0005A710F4B55229A710D4B4522DA710C4BDF
:101A000054221A720A4B4F225A72094B4F229A7271
:101A1000074B5422DA72064B48221A73044B2022D9
:101A20005A7300F00DF800E000BF0837BD4680BDD6
:101A3000500000203C0000201C0000204500002039
:101A400080B582B000AF0023FB7100233B6009E04A
:101A50000A4A3B6813441A78FB791344FB713B68CC
:101A600001333B603B68152BF2DD044AFB7993752B
:101A7000FFF77CFD00BF0837BD4680BD5000002049
:101A800080B487B000AF786000237B6100233B61A6
:101A90000F23FB607B68DB78002B3AD0274BDB6899
:101AA000DB4303F4E0631B0A7B617B69C3F104033E
:101AB0003B61FA687B6922FA03F3FB607B685B7821
:101AC0001A463B6902FA03F37B617B689B781A46EE
:101AD000FB6813407A6913437B617B691B017B615F
:101AE000174A7B681B787969C9B213440A4683F8A0
:101AF0000023134A7B681B785B09DBB218467B68BE
:101B00001B7803F01F03012101FA03F342F8203090
:101B10000FE00B497B681B785B09DBB218467B68DA
:101B20001B7803F01F0301229A4000F1200341F8C3
:101B3000232000BF1C37BD4680BC704700ED00E08D
:101B400000E100E080B58AB000AF78603960002322
:101B5000FB8400237B840423BB84574BFB617B689D
:101B60009B88FB84FB8C23F03F03FB8407F1080375
:101B70001846FFF7CDF93B69FB61FB694F4AA2FBB1
:101B800003239B0C7B84FA8C7B8C1343FB847B6844
:101B9000FA8C9A807B681B889BB223F001039AB26F
:101BA0007B681A800023FB843B681B68444A93428D
:101BB00015D83B681B685B00FA69B2FBF3F3BB8482
:101BC000BB8C032B01D80423BB84FA8CBB8C13433E
:101BD000FB847B8C01339AB27B681A8440E03B68BB
:101BE000DB884BF6FF72934209D13B681A681346B3
:101BF0005B001344FA69B2FBF3F3BB840EE03B686D
:101C00001A6813469B0013449A001344FA69B2FB06
:101C1000F3F3BB84BB8C43F48043BB84BB8CC3F322
:101C20000B03002B03D1BB8C43F00103BB84BA8CA4
:101C3000FB8C13439BB26FEA43436FEA5343FB842D
:101C40007B8C4FF4967202FB03F31E4A82FB031255
:101C50009211DB17D31A9BB201339AB27B681A84B4
:101C60007B68FA8C9A837B681B889BB243F00103E4
:101C70009AB27B681A807B681B88FB84FB8C23F4F8
:101C8000816323F00203FB843B689A883B685B898D
:101C900013439AB2FB8C1343FB847B68FA8C1A8043
:101CA0003B689A893B681B8913439AB27B681A8107
:101CB00000BF2837BD4680BD00127A0083DE1B437B
:101CC000A0860100D34D621080B483B000AF78606D
:101CD0000B46FB70FB78002B08D07B681B889BB2FF
:101CE00043F001039AB27B681A8007E07B681B8887
:101CF0009BB223F001039AB27B681A8000BF0C37B5
:101D0000BD4680BC704700BF80B483B000AF786030
:101D10000B46FB70FB78002B08D07B681B889BB2BE
:101D200043F480739AB27B681A8007E07B681B8853
:101D30009BB223F480739AB27B681A8000BF0C3781
:101D4000BD4680BC704700BF80B483B000AF7860F0
:101D50000B46FB70FB78002B08D07B681B889BB27E
:101D600043F400739AB27B681A8007E07B681B8893
:101D70009BB223F400739AB27B681A8000BF0C37C1
:101D8000BD4680BC704700BF80B483B000AF7860B0
:101D90000B46FB70FB789AB27B681A8200BF0C3747
:101DA000BD4680BC704700BF80B483B000AF786090
:101DB0000B46FB701346BB70BB78002B04D0FB783E
:101DC00043F00103FB7003E0FB7823F00103FB7099
:101DD000FB789AB27B681A8200BF0C37BD4680BC84
:101DE000704700BF80B487B000AF786039600023CF
:101DF0003B610023FB600023BB600023FB757B6815
:101E00009B8A9BB2FB607B681B8B9BB2BB60BB68F1
:101E10001B04BB60FA68BB68134323F07F433B613C
:101E20003A693B681A403B689A4202D10123FB752C
:101E300001E00023FB75FB7D18461C37BD4680BCC6
:041E4000704700BF28
:101E4400000000000102030401020304060708095C
:101E540002040608410000003000710021FE2D4DEF
:101E64004954535542495348492DFFFF000000008F
:081E740000009D00580200006F
:0400000508000000EF
:00000001FF
