:020000040800F2
:1000000088070020A1040008010500080105000878
:1000100001050008010500080105000800000000B6
:1000200000000000000000000000000001050008C2
:100030000105000800000000010500080105000896
:100040000105000801050008010500080105000878
:100050000105000801050008010500080105000868
:100060000105000801050008010500080105000858
:100070003D0F000801050008010500080105000802
:1000800001050008210F000801050008010500080E
:100090000105000801050008010500080105000828
:1000A0000105000801050008010500080105000818
:1000B000890E0008D50E000801050008010500089A
:1000C00001050008010500080105000801050008F8
:1000D000010500086D0D0008A90D00082D0E00088F
:1000E00001050008010500080105000800000000E6
:1000F0000000000000000000000000000000000000
:1001000000000000000000005FF808F180B485B036
:1001100000AF786039600023FB817B681B88FB811E
:100120007B682E4A934213D07B682D4A93420FD0AE
:100130007B68B3F1804F0BD07B682A4A934207D08B
:100140007B68294A934203D07B68284A934208D1AE
:10015000FB8923F07003FB813B685A88FB891343BA
:10016000FB817B68224A93420CD07B68214A9342F0
:1001700008D0FB8923F44073FB813B68DA88FB8954
:100180001343FB817B68FA891A803B689A887B68F5
:100190009A853B681A887B681A857B680F4A934268
:1001A0000FD07B680E4A93420BD07B68124A934271
:1001B00007D07B68114A934203D07B68104A934270
:1001C00004D13B681B7A9AB27B681A867B6801224D
:1001D0009A8200BF1437BD4680BC7047002C014096
:1001E000003401400004004000080040000C0040C2
:1001F0000010004000140040004001400044014055
:100200000048014080B483B000AF78607B684FF64F
:10021000FF729A807B6800221A807B680022DA8055
:100220007B6800225A807B6800221A7200BF0C375C
:10023000BD4680BC704780B483B000AF78600B4689
:10024000FB70FB78002B08D07B681B889BB243F0C7
:1002500001039AB27B681A8007E07B681B889BB217
:1002600023F001039AB27B681A8000BF0C37BD46A9
:1002700080BC704780B483B000AF78600B467B8051
:1002800013467B707B78002B08D07B689B899AB2E1
:100290007B8813439AB27B689A8109E07B689B89CB
:1002A0009AB27B88DB439BB213409AB27B689A81F7
:1002B00000BF0C37BD4680BC704780B485B000AF2E
:1002C00078600B467B800023FB730023BB810023F7
:1002D0007B817B681B8A9AB27B881340BB817B68D9
:1002E0009B899AB27B8813407B81BB89002B05D008
:1002F0007B89002B02D00123FB7301E00023FB73F9
:10030000FB7B18461437BD4680BC704780B483B071
:1003100000AF78600B467B807B88DB439AB27B68BA
:100320001A8200BF0C37BD4680BC704780B500AF55
:10033000154B1B68144A43F001031360124B5A68B3
:100340001149124B13404B600F4B1B680E4A23F0B0
:10035000847323F4803313600B4B1B680A4A23F425
:1003600080231360084B5B68074A23F4FE03536045
:10037000054B4FF41F029A6000F00CF8044B4FF04D
:1003800000629A6000BF80BD001002400000FFF8CC
:1003900000ED00E080B500AF00F002F800BF80BDC6
:1003A00080B483B000AF00237B6000233B603A4BF6
:1003B0001B68394A43F480331360374B1B6803F4DE
:1003C00000333B607B6801337B603B68002B03D1CB
:1003D0007B68B3F5A06FF0D12F4B1B6803F400339B
:1003E000002B02D001233B6001E000233B603B680F
:1003F000012B4BD1294B1B68284A43F01003136093
:10040000264B1B68254A23F003031360234B1B680C
:10041000224A43F0020313601F4B1F4A5B6853607C
:100420001D4B1D4A5B6853601B4B5B681A4A43F4C3
:1004300080635360184B5B68174A23F47C13536046
:10044000154B5B68144A43F4E8135360124B1B6866
:10045000114A43F08073136000BF0F4B1B6803F019
:100460000073002BF9D00C4B5B680B4A23F003039D
:100470005360094B5B68084A43F00203536000BFB6
:10048000054B5B6803F00C03082BF9D100BF0C3758
:10049000BD4680BC704700BF0010024000200240F3
:1004A00080B582B000AF114B7B60114B3B6007E021
:1004B0007A68131D7B603B68191D396012681A60E9
:1004C0003B680C4A9342F3D30B480C494FF00002AF
:1004D0008842B8BF40F8042BFADBFFF727FF00F093
:1004E00073FD00BF0837BD4680BD00BFA23A0008BB
:1004F000000000203C0000203C0000208803002079
:1005000080B400AFFEE7000080B582B000AF786035
:100510007B682F4A934208D10121042000F0D2FFCA
:100520000021042000F0CEFF4EE07B68294A934270
:1005300008D10121082000F0C5FF0021082000F0AB
:10054000C1FF41E07B68244A934208D10121102079
:1005500000F0B8FF0021102000F0B4FF34E07B6809
:100560001E4A934208D10121202000F0ABFF002158
:10057000202000F0A7FF27E07B68194A934208D1AA
:100580000121402000F09EFF0021402000F09AFF52
:100590001AE07B68134A934208D10121802000F0C1
:1005A00091FF0021802000F08DFF0DE07B680E4A56
:1005B000934209D101214FF4807000F083FF0021A4
:1005C0004FF4807000F07EFF00BF0837BD4680BD4D
:1005D00000080140000C01400010014000140140DF
:1005E00000180140001C01400020014080B489B087
:1005F00000AF786039600023FB6100233B6100237A
:10060000BB610023FB6000237B610023BB603B6870
:10061000DB7803F00F03FB613B68DB7803F010032A
:10062000002B05D03B689B781A46FB691343FB619E
:100630003B681B88DBB2002B44D07B681B687B6166
:100640000023BB6138E00122BB6902FA03F3FB60BF
:100650003B681B881A46FB6813403B613A69FB689C
:100660009A4226D1BB699B00FB600F22FB6802FA0D
:1006700003F3BB60BB68DB437A6913407B61FA69B3
:10068000FB6802FA03F37A6913437B613B68DB780A
:10069000282B05D10122BB699A407B685A6108E08A
:1006A0003B68DB78482B04D10122BB699A407B6808
:1006B0001A61BB690133BB61BB69072BC3D97B6876
:1006C0007A691A603B681B88FF2B46D97B685B6898
:1006D0007B610023BB613AE0BB690833012202FA67
:1006E00003F3FB603B681B881A46FB6813403B61C1
:1006F0003A69FB689A4227D1BB699B00FB600F22D5
:10070000FB6802FA03F3BB60BB68DB437A69134002
:100710007B61FA69FB6802FA03F37A6913437B6130
:100720003B68DB78282B05D1BB69083301229A404E
:100730007B685A613B68DB78482B05D1BB6908337D
:1007400001229A407B681A61BB690133BB61BB69B6
:10075000072BC1D97B687A695A6000BF2437BD4630
:1007600080BC704780B485B000AF78600B467B805A
:100770000023FB737B68DA687B881340002B02D070
:100780000123FB7301E00023FB73FB7B1846143746
:10079000BD4680BC704780B483B000AF78600B4624
:1007A0007B807A887B681A6100BF0C37BD4680BCAD
:1007B000704780B483B000AF78600B467B807A8846
:1007C0007B685A6100BF0C37BD4680BC7047000093
:1007D00080B483B000AF0346FB71FB7903F01F03C5
:1007E000012202FA03F1054A97F907305B0942F842
:1007F000231000BF0C37BD4680BC704700E100E00D
:1008000080B59EB000AF01214FF4804000F01EFE85
:100810000121042000F01AFE4FF40073A7F8743091
:10082000032387F87630182387F8773007F17403AD
:100830001946E348FFF7DAFE4FF48063A7F87430F7
:10084000042387F8773007F174031946DC48FFF773
:10085000CDFE4FF4E1337B660023A7F86830002318
:10086000A7F86A300023A7F86C300023A7F870308F
:100870000C23A7F86E3007F164031946D14801F044
:100880009DF80121CF4801F053F9252387F8603006
:10089000002387F86130002387F86230012387F84E
:1008A000633007F16003184601F098FF012240F21F
:1008B0002551C44801F05BF901214FF4003000F0EC
:1008C000E3FD0121042000F0C1FD0423A7F87430EA
:1008D000032387F87630182387F8773007F17403FD
:1008E0001946B748FFF782FE0823A7F8743004239F
:1008F00087F8773007F174031946B148FFF776FEA1
:100900004FF461537B664FF48053A7F868304FF47F
:100910000053A7F86A304FF48063A7F86C300023C7
:10092000A7F870300C23A7F86E3007F1640319465E
:10093000A54801F043F80121A34801F0F9F8262366
:1009400087F86030002387F86130002387F8623031
:10095000012387F8633007F16003184601F03EFF7A
:100960002021994801F06DF9012240F22551964865
:1009700001F0FDF8012240F64601934801F0F7F836
:1009800001214FF4802000F07FFD0121082000F0BC
:100990005DFD4FF48063A7F87430032387F8763049
:1009A000182387F8773007F1740319468748FFF753
:1009B0001DFE4FF40063A7F87430042387F87730E6
:1009C00007F1740319468148FFF710FE07F164032D
:1009D00019467F4800F0F2FF01217D4801F0A8F898
:1009E000272387F86030002387F86130002387F8D9
:1009F0006230012387F8633007F16003184601F085
:100A0000EDFE012240F22551714801F0B0F80121BC
:100A1000012000F039FD07F154031846FFF7F2FBFF
:100A20000023A7F856304FF4E153A7F854304FF4A1
:100A30009673A7F8583007F1540319464FF08040D9
:100A4000FFF764FB012201214FF08040FFF712FC09
:100A500001214FF08040FFF7EEFB1C2387F8603048
:100A6000002387F86130002387F86230012387F87C
:100A7000633007F16003184601F0B0FE0121022047
:100A800000F002FD07F154031846FFF7BBFB0023FB
:100A9000A7F856304FF4E153A7F854306423A7F871
:100AA000583007F1540319464A48FFF72FFB01223B
:100AB00001214848FFF7DEFB01214648FFF7BBFB59
:100AC0001D2387F86030002387F86130002387F802
:100AD0006230012387F8633007F16003184601F0A4
:100AE0007DFE0121012000F093FC3B4BBB623B4BA0
:100AF000FB6210233B6317237B630023BB638023CC
:100B0000FB6300233B6400237B640023BB6400235E
:100B1000FB6400233B6507F128031946304801F0C8
:100B2000E7FB01228021284801F068F80122022118
:100B30002B4801F037FC1120FFF74AFE294BBB621E
:100B4000294BFB6207237B6307F1280319462748DB
:100B500001F0CEFB012280211D4801F04FF8012257
:100B60000221224801F01EFC0C20FFF731FE01217A
:100B70004FF4001000F088FC0121082000F066FC12
:100B8000C023A7F87430032387F876301C2387F836
:100B9000773007F1740319460C48FFF727FD00234F
:100BA000BB834BF6FF73FB8338233B844FF4806396
:100BB0007B844FF48043BB840D4BBB61012119E062
:100BC000000801400038014000440040000C014092
:100BD0000048004000040040044400409C01002004
:100BE0008000024004480040500000201C000240E9
:100BF000A0860100364802F041FD07F118031946AE
:100C0000334802F079FC1023A7F87430102387F8DA
:100C10007730032387F8763007F1740319462D489F
:100C2000FFF7E4FC10212B48FFF7C3FD002387F8F2
:100C300077300223A7F8743007F17403194625486A
:100C4000FFF7D4FC4FF4004000F016FB01214FF4F5
:100C5000007000F0FBFB00237B6000233B7201234C
:100C60007B724FF46023FB6000233B6101233B75E3
:100C7000032301220121184800F06EFD3B1D194697
:100C8000154800F095FC0121134800F0E3FC1248E0
:100C900000F0FBFC00BF104800F006FD0346002BEF
:100CA000F9D10D4800F017FD00BF0B4800F022FD00
:100CB0000346002BF9D10121074800F0CBFC0121AC
:100CC000054800F02EFD00BF7837BD4680BD00BF4F
:100CD00000540040000801400024014080B582B06B
:100CE00000AF1B48FFF710FC1A48FFF70DFC1A482D
:100CF00000F008FE194800F005FE04233B80102395
:100D0000FB700323BB703B4619461148FFF76EFC8E
:100D100004210F48FFF74DFD00237B6002E07B6854
:100D200001337B607B680E4A9342F8D90D4B3C221D
:100D30001A70FFF765FD0C4B1B78052B02D001F0F4
:100D400031F801E000F0E4FF00BF0837BD4680BD88
:100D500000080140000C01400044004000480040F1
:100D60009FBB0D00140000204B00002080B500AF99
:100D70000B4B1B889BB203F02003002B0DD0094BBB
:100D80001B78002B01D102F05BF8054800F085FFCD
:100D90000346DBB2184602F075F800BF80BD00BF05
:100DA000003801404900002080B500AF1B4B1B8874
:100DB0009BB203F48073002B0CD04FF48071174862
:100DC00000F095FF164B01221A70144800F065FFE1
:100DD000FFF784FF114B1B889BB203F02003002B0D
:100DE00019D0104B1B78162B15D80C4800F055FF66
:100DF000034618460B4B1B785A1CD1B2094A117096
:100E00001A46C1B2084B99544FF0804300229A848D
:100E1000034B01221A7000BF80BD00BF0044004098
:100E20003C0000204D000020B401002080B500AF40
:100E3000104B1B889BB203F02003002B18D00E4BE5
:100E40001B78062B14D80B4800F027FF03461846E2
:100E5000094B1B785A1CD1B2074A11701A46C1B20D
:100E6000064B9954064B00229A84064B01221A70B5
:100E700000BF80BD004800404A0000205000002014
:100E8000000400403D00002080B500AF01214FF07C
:100E90008040FFF712FA0346002B13D001214FF0D8
:100EA0008040FFF733FA084B1B78002B0AD001F083
:100EB0002BFB064800F0F1FE034B00221A70044B96
:100EC00000221A7000BF80BD3C000020004400409A
:100ED0004D00002080B500AF01210D48FFF7EDF96E
:100EE0000346002B12D001210948FFF70FFA094BE6
:100EF0001B78002B0AD001F06BF8074800F0CDFEFC
:100F0000044B00221A70054B00221A7000BF80BDEE
:100F1000000400403D000020004800404A0000203E
:100F200080B500AF4FF0007001F05AFA002102487E
:100F300001F01CFA00BF80BD8000024080B500AF08
:100F4000202001F04DFA0021024801F00FFA00BF05
:100F500080BD00BF1C00024080B500AF00F084F8E7
:100F60004FF4803000F0AEF800BF312000F0E6FA18
:100F70000346002BF9D0002000F02AF9002000F0F1
:100F80005FF94FF4806000F03FF94FF4804000F0CB
:100F900073F94FF4E0114FF4803000F0C1F80120F4
:100FA00000F0DCF800BF392000F0C8FA0346002B3F
:100FB000F9D0022000F0E2F800BF00F0FBF8034691
:100FC000082BFAD100BF80BD80B500AFFFF7C4FF8A
:100FD000FFF716FCFFF782FEFEE7000080B500AFCA
:100FE000024800F029FF00BF80BD00BF3C39000867
:100FF00080B500AF024800F01FFF00BF80BD00BFFA
:101000004C39000880B500AF024800F015FF00BF62
:1010100080BD00BF5C39000880B500AF024800F019
:101020000BFF00BF80BD00BF7039000880B500AF66
:10103000024800F001FF00BF80BD00BF84390008F6
:1010400080B500AF024800F0F7FE00BF80BD00BFD2
:101050009839000880B500AF024800F0EDFE00BFEF
:1010600080BD00BFAC39000880B400AF134B1B68D3
:10107000124A43F001031360104B5A680F49104B9A
:1010800013404B600D4B1B680C4A23F0847323F410
:1010900080331360094B1B68084A23F480231360D4
:1010A000064B5B68054A23F4FE035360034B4FF481
:1010B0001F029A6000BFBD4680BC7047001002400E
:1010C0000000FFF880B483B000AF7860134B1B685A
:1010D000124A23F480331360104B1B680F4A23F429
:1010E000802313607B68B3F5803F03D0B3F5802F76
:1010F00007D00DE0094B1B68084A43F480331360A6
:1011000006E0064B1B68054A43F4A023136000BFAA
:1011100000BF0C37BD4680BC704700BF00100240C6
:1011200080B485B000AF786039600023FB600A4B63
:101130005B68FB60FB6823F47C13FB607A683B68A8
:101140001343FA681343FB60034AFB68536000BF14
:101150001437BD4680BC70470010024080B483B095
:1011600000AF0346FB71044AFB79136000BF0C37E4
:10117000BD4680BC704700BF6000424280B485B06D
:1011800000AF78600023FB60094B5B68FB60FB6885
:1011900023F00303FB60FA687B681343FB60044A97
:1011A000FB68536000BF1437BD4680BC704700BF6A
:1011B0000010024080B400AF044B5B68DBB203F068
:1011C0000C03DBB21846BD4680BC704700100240DD
:1011D00080B485B000AF78600023FB60094B5B688A
:1011E000FB60FB6823F0F003FB60FA687B68134345
:1011F000FB60044AFB68536000BF1437BD4680BCE7
:10120000704700BF0010024080B485B000AF786026
:101210000023FB60094B5B68FB60FB6823F4E06321
:10122000FB60FA687B681343FB60044AFB68536009
:1012300000BF1437BD4680BC704700BF001002409D
:1012400080B485B000AF78600023FB60094B5B6819
:10125000FB60FB6823F46053FB607B68DB00FA688B
:101260001343FB60034AFB68536000BF1437BD465D
:1012700080BC70470010024080B485B000AF786039
:101280000023FB60094B5B68FB60FB6823F4404371
:10129000FB60FA687B681343FB60044AFB68536099
:1012A00000BF1437BD4680BC704700BF001002402D
:1012B00080B487B000AF786000237B6100233B617E
:1012C0000023FB600023BB604C4B5B6803F00C0306
:1012D0007B617B69042B07D0082B09D0002B33D10D
:1012E0007B68474A1A6033E07B68454A1A602FE002
:1012F000424B5B6803F470133B61404B5B6803F443
:101300008033FB603B699B0C02333B61FB68002B25
:1013100006D13B693B4A02FB03F27B681A6017E087
:10132000364B5B6803F40033002B06D03B69354A2B
:1013300002FB03F27B681A600AE03B69304A02FB59
:1013400003F27B681A6003E07B682D4A1A6000BFD5
:101350002A4B5B6803F0F0037B617B691B097B61AF
:10136000294A7B6913441B78DBB2BB607B681A682F
:10137000BB68DA407B685A60204B5B6803F4E0632B
:101380007B617B691B0A7B611F4A7B6913441B7865
:10139000DBB2BB607B685A68BB68DA407B689A60E6
:1013A000164B5B6803F460537B617B69DB0A7B61EE
:1013B000154A7B6913441B78DBB2BB607B685A68B3
:1013C000BB68DA407B68DA600C4B5B6803F440432F
:1013D0007B617B699B0B7B610C4A7B6913441B78A7
:1013E000DBB2BB607B68DA68BB68B2FBF3F27B6898
:1013F0001A6100BF1C37BD4680BC70470010024018
:1014000000127A0000093D000000002010000020BA
:1014100080B483B000AF78600B46FB70FB78002B84
:1014200006D0094B5A6908497B6813434B6106E0B3
:10143000054B5A697B68DB43034913404B6100BF8E
:101440000C37BD4680BC70470010024080B483B0AA
:1014500000AF78600B46FB70FB78002B06D0094B81
:101460009A6908497B6813438B6106E0054B9A69CA
:101470007B68DB43034913408B6100BF0C37BD46DB
:1014800080BC70470010024080B483B000AF786029
:101490000B46FB70FB78002B06D0094BDA69084934
:1014A0007B681343CB6106E0054BDA697B68DB435D
:1014B00003491340CB6100BF0C37BD4680BC704769
:1014C0000010024080B483B000AF78600B46FB7020
:1014D000FB78002B06D0094BDA6808497B68134378
:1014E000CB6006E0054BDA687B68DB4303491340B9
:1014F000CB6000BF0C37BD4680BC70470010024077
:1015000080B483B000AF78600B46FB70FB78002B93
:1015100006D0094B1A6908497B6813430B6106E042
:10152000054B1A697B68DB43034913400B6100BF1D
:101530000C37BD4680BC70470010024080B487B0B5
:1015400000AF0346FB710023FB6000237B61002397
:10155000FB74FB795B09DBB2FB60FB68012B03D1F9
:10156000124B1B687B6109E0FB68022B03D10F4B18
:101570001B6A7B6102E00D4B5B6A7B61FB7903F0C8
:101580001F03FB607A69FB6822FA03F303F001038F
:10159000002B02D00123FB7401E00023FB74FB7CD1
:1015A00018461C37BD4680BC704700BF0010024083
:1015B00080B485B000AF786039600023FB60002301
:1015C000FB727B685B68FB60FB6823F4702323F489
:1015D0008073FB603B681A683B681B791B021343EE
:1015E000FA681343FB607B68FA685A607B689B6803
:1015F000FB60FA68164B1340FB603B68DA683B6897
:101600009B681A433B685B795B001343FA6813439A
:10161000FB607B68FA689A607B68DB6AFB60FB684A
:1016200023F47003FB603B681B7C013BDAB2FB7A5E
:101630001343FB72FB7A1B05FA681343FB607B685C
:10164000FA68DA6200BF1437BD4680BC704700BF3D
:10165000FDF7F1FF80B483B000AF78600B46FB70FC
:10166000FB78002B06D07B689B6843F001027B6807
:101670009A6005E07B689B6823F001027B689A60B2
:1016800000BF0C37BD4680BC704780B483B000AF4C
:1016900078607B689B6843F008027B689A6000BFB3
:1016A0000C37BD4680BC704780B485B000AF786011
:1016B0000023FB737B689B6803F00803002B02D0B8
:1016C0000123FB7301E00023FB73FB7B18461437F7
:1016D000BD4680BC704780B483B000AF78607B6843
:1016E0009B6843F004027B689A6000BF0C37BD46DC
:1016F00080BC704780B485B000AF78600023FB7376
:101700007B689B6803F00403002B02D00123FB736A
:1017100001E00023FB73FB7B18461437BD4680BCF9
:10172000704780B483B000AF78600B46FB70FB78E5
:10173000002B06D07B689B6843F4A0027B689A600C
:1017400005E07B689B6823F4A0027B689A6000BF79
:101750000C37BD4680BC704780B485B000AF786060
:10176000084611461A460346FB700B46BB701346EB
:101770007B700023FB600023BB60FB78092B23D91F
:101780007B68DB68FB60FB78A3F10A0213465B0011
:101790001344072202FA03F3BB60BB68DB43FA6819
:1017A0001340FB607978FB78A3F10A0213465B00D3
:1017B000134401FA03F3BB60FA68BB681343FB6090
:1017C0007B68FA68DA601EE07B681B69FB60FA7868
:1017D00013465B001344072202FA03F3BB60BB68A5
:1017E000DB43FA681340FB607978FA7813465B00B4
:1017F000134401FA03F3BB60FA68BB681343FB6050
:101800007B68FA681A61BB78062B21D87B685B6B12
:10181000FB60BB785A1E13469B0013441F2202FA3A
:1018200003F3BB60BB68DB43FA681340FB60F978E5
:10183000BB785A1E13469B00134401FA03F3BB60A6
:10184000FA68BB681343FB607B68FA685A6347E039
:10185000BB780C2B21D87B681B6BFB60BB78DA1F35
:1018600013469B0013441F2202FA03F3BB60BB68BC
:10187000DB43FA681340FB60F978BB78DA1F134644
:101880009B00134401FA03F3BB60FA68BB6813437F
:10189000FB607B68FA681A6322E07B68DB6AFB60A6
:1018A000BB78A3F10D0213469B0013441F2202FADA
:1018B00003F3BB60BB68DB43FA681340FB60F97855
:1018C000BB78A3F10D0213469B00134401FA03F306
:1018D000BB60FA68BB681343FB607B68FA68DA6236
:1018E00000BF1437BD4680BC704780B483B000AFE2
:1018F00078607B68DB6C9BB218460C37BD4680BCB9
:101900007047000080B582B000AF78607B68264ADF
:1019100093420AD101214FF48040FFF7D3FD00210B
:101920004FF48040FFF7CEFD3AE07B681F4A9342B8
:101930000AD101214FF40030FFF7E2FD00214FF4FE
:101940000030FFF7DDFD2BE07B68194A93420AD196
:1019500001214FF48020FFF7D3FD00214FF48020B8
:10196000FFF7CEFD1CE07B68124A93420AD10121A9
:101970004FF40020FFF7C4FD00214FF40020FFF7D3
:10198000BFFD0DE07B680C4A934209D101214FF461
:101990008010FFF7B5FD00214FF48010FFF7B0FD78
:1019A00000BF0837BD4680BD0038014000440040FC
:1019B00000480040004C00400050004080B58CB012
:1019C00000AF786039600023FB620023BB62002314
:1019D0007B6200233B620023FB617B68FB617B68C9
:1019E0001B8A9BB2FB62FA6A4CF6FF731340FB62E0
:1019F0003B68DB881A46FB6A1343FB62FB6A9AB2B8
:101A00007B681A827B689B899BB2FB62FA6A4EF6FE
:101A1000F3131340FB623B689A883B681B891343AE
:101A20009AB23B685B8913439BB21A46FB6A134325
:101A3000FB62FB6A9AB27B689A817B689B8A9BB245
:101A4000FB62FA6A4FF6FF431340FB623B689B89D7
:101A50001A46FB6A1343FB62FB6A9AB27B689A825E
:101A600007F108031846FFF723FCFB692E4A93424F
:101A700002D17B69BB6201E03B69BB627B689B89E9
:101A80009BB21BB2002B0CDABA6A13469B001344BC
:101A90009A001A443B681B685B00B2FBF3F37B625D
:101AA0000BE0BA6A13469B0013449A001A443B6841
:101AB0001B689B00B2FBF3F37B627B6A1B4AA2FBB1
:101AC00003235B091B01FB62FB6A1B09642202FB07
:101AD00003F37A6AD31A3B627B689B899BB21BB281
:101AE000002B0CDA3B6ADB003233104AA2FB0323E3
:101AF0005B0903F00703FA6A1343FB620BE03B6ADE
:101B00001B013233094AA2FB03235B0903F00F03D5
:101B1000FA6A1343FB62FB6A9AB27B681A8100BFC0
:101B20003037BD4680BD00BF003801401F85EB51F6
:101B300080B483B000AF78600B46FB70FB78002B5D
:101B400008D07B689B899BB243F400539AB27B68B0
:101B50009A8107E07B689B899BB223F400539AB279
:101B60007B689A8100BF0C37BD4680BC704780B44B
:101B700087B000AF78600B467B8013467B700023F4
:101B80003B610023FB600023BB6000237B617B681B
:101B90007B617B88DBB25B09DBB23B617B8803F056
:101BA0001F03FB600122FB6802FA03F3BB603B6981
:101BB000012B03D17B690C337B6109E03B69022B6C
:101BC00003D17B6910337B6102E07B6914337B6155
:101BD0007B78002B06D07B6919687B69BA680A4359
:101BE0001A6006E07B691968BB68DA437B690A40C2
:101BF0001A6000BF1C37BD4680BC704780B483B0FC
:101C000000AF78600B467B8013467B707B78002B9F
:101C100008D07B689B8A9AB27B8813439AB27B6810
:101C20009A8209E07B689B8A9AB27B88DB439BB2ED
:101C300013409AB27B689A8200BF0C37BD4680BCC5
:101C4000704780B483B000AF78600B467B807B68C0
:101C50001B8A9BB223F020039AB27B681A827B68AE
:101C60001B8A9AB27B8813439AB27B681A8200BFA0
:101C70000C37BD4680BC704780B483B000AF78603D
:101C80000B467B807B88C3F308039AB27B689A80FB
:101C900000BF0C37BD4680BC704780B483B000AF36
:101CA00078607B689B889BB2C3F308039BB218469D
:101CB0000C37BD4680BC704780B485B000AF7860FB
:101CC0000B467B800023FB737B681B889AB27B8862
:101CD00013409BB2002B02D00123FB7301E00023D1
:101CE000FB73FB7B18461437BD4680BC704780B43D
:101CF00083B000AF78600B467B807B88DB439AB271
:101D00007B681A8000BF0C37BD4680BC704700005E
:101D100080B500AF01211F4801F0CFFC00BF1E4974
:101D20001C4801F034FD0346002BF8D00022982116
:101D3000184801F00FFD00BF1849164801F027FDB3
:101D40000346002BF8D09821124801F0F4FC00BFA4
:101D50001349104801F01BFD0346002BF8D07821F1
:101D60000C4801F0E8FC00BF0D490A4801F00FFDE6
:101D70000346002BF8D00121064801F0BDFC00BF4E
:101D80000749044801F003FD0346002BF8D000BFCB
:101D900080BD00BF00540040010003008200070026
:101DA0008400070080B500AF01211F4801F085FCC9
:101DB00000BF1E491C4801F0EAFC0346002BF8D086
:101DC00000229821184801F0C5FC00BF18491648A8
:101DD00001F0DDFC0346002BF8D09821124801F0F9
:101DE000AAFC00BF1349104801F0D1FC0346002BA8
:101DF000F8D07C210C4801F09EFC00BF0D490A4838
:101E000001F0C5FC0346002BF8D00121064801F083
:101E100073FC00BF0749044801F0B9FC0346002BDE
:101E2000F8D000BF80BD00BF005400400100030097
:101E3000820007008400070080B582B000AF7860A0
:101E40007B685A1C7A601B789BB219460948FFF7D9
:101E500013FF00BF40210748FFF72EFF0346002B6A
:101E6000F8D07B681B78002BEAD100BF0837BD464D
:101E700080BD00BF0038014080B500AF002106489A
:101E800000F074FA044B17225A600121024800F056
:101E90006DFA00BF80BD00BF8000024080B500AF7A
:101EA0000021064800F062FA044B07225A60012123
:101EB000024800F05BFA00BF80BD00BF1C0002407A
:101EC00080B485B000AF78600B46FB700023FB73D5
:101ED0000023BB6009E0BB687A6813441A78FB7B77
:101EE0001344FB73BB680133BB60FB78013BBA68EA
:101EF0009A42F0DBFB78013B7A6813441B78FA7B4B
:101F00009A4201D0002300E0012318461437BD4651
:101F100080BC704780B400AF064B1B78002B0CBF11
:101F200001230023DBB21A46034B1A7000BFBD46E3
:101F300080BC70474C0000203F00002080B500AFFF
:101F400000F0D2FA054B05221A7010210448FEF762
:101F500022FCFFF7DDFE00BF80BD00BF4B0000206C
:101F60000008014080B500AF00F0BEFA00F0A6FA0C
:101F7000054B02221A7010210448FEF71AFCFFF7E5
:101F800011FF00BF80BD00BF4E00002000080140CF
:101F900080B582B000AF0023FB7100233B6009E0F5
:101FA0000A4A3B6813441A78FB791344FB713B6877
:101FB00001333B603B68052BF2DD044AFB799371EA
:101FC000FFF76CFF00BF0837BD4680BD5000002002
:101FD00080B582B000AF0721AC48FFF771FF034620
:101FE000002B00F07D81A94B5B78022B07D0A74B1B
:101FF0005B78202B03D0A54B5B78402B02D1A44B00
:102000001E221A70A24B1B78002B1AD0A04B1B78F3
:10201000013BDAB29E4B1A709D4B1B78002B10D1FE
:1020200000F0F8F99B4B1B78012B0AD19A4B1B78D7
:10203000042B01D0FFF76EFFFFF780FF954B0022C6
:102040001A70924B5B78202B61D0402B42D0002B32
:1020500064D1924B1B78012B1BD18C4B904A10689A
:1020600018609188927999809A71884B40225A70B1
:102070008C4B1B785A1CD1B28A4A11700F2B02D894
:10208000FFF786FF05E0854B03221A70854B00227F
:102090001A70854B1B78012B3BD17C4B804A106812
:1020A00018609188927999809A71784B20225A70A1
:1020B0007C4B1B785A1CD1B27A4A11700F2B02D874
:1020C000FFF766FF25E0784B03221A70754B00225C
:1020D0001A701EE0714B1B78012B1CD06F4B012234
:1020E0001A706A4B00225A706E4B1B785A1CD1B280
:1020F0006C4A1170422B10D96C4B1B78002B0CD101
:10210000664B02221A70674B00221A7005E000BF6E
:1021100004E000BF02E000BF00E000BF634B1B789B
:10212000062B00F2DE8001A252F823F049210008BC
:102130006121000899210008A3210008D32200088A
:10214000D3220008E3220008544B1B78022B05D150
:10215000564B01221A70514B03221A70FFF718FFD9
:102160004A4B4F4A106818609188927999809A7109
:10217000464B20225A704B4B1B785A1CD1B2494A0D
:102180001170412B02D8FFF703FF05E0474B0222F5
:102190001A70444B00221A70FFF7D0FE434B032203
:1021A0001A703E4B1B78012B03D03F4B1B78012B41
:1021B00002D13E4B05221A70344B5B78022B13D1AF
:1021C0003B4B1B78002B0BD13A4B1B78022B02D1D7
:1021D000FEF70EFF01E0FEF701FF354B01221A70FA
:1021E0002A4B00225A7072E0284B9B78012B09D1B0
:1021F0002F4B1B78002B6AD1FEF70EFF2C4B0122D0
:102200001A7064E0214B9B78022B09D1284B1B7874
:10221000002B5CD1FEF7F6FE254B01221A7056E02A
:102220002548FFF762FB03461A46244BA3FB022313
:102230005B099BB2FB71FB79083B052B40D801A2DF
:1022400052F823F05D2200085D2200086522000894
:10225000652200087922000879220008134B052224
:102260001A7034E0124B1B78002B2DD1FEF7CAFEFA
:102270000F4B01221A7027E00D4B1B78002B25D144
:10228000FEF7CAFE0A4B01221A701FE05000002020
:1022900014000020480000204B00002040000020D7
:1022A000180000203E0000204100002042000020D5
:1022B000430000204E000020002401401F85EB5108
:1022C000094B00221A7002E000BF00E000BFFFF7D8
:1022D0005FFEFFF747FE054B00221A7000BF00E0CB
:1022E00000BF0837BD4680BD4300002042000020EB
:1022F00080B485B000AF786039600023FB607B68F4
:102300001B68FB60FB6823F4FF4323F07003FB6052
:102310003B689A683B681B6A1A433B681B691A430F
:102320003B685B691A433B689B691A433B68DB69FE
:102330001A433B685B6A1A433B689B6A1343FA681B
:102340001343FB607B68FA681A603B68DA687B6855
:102350005A603B681A687B689A603B685A687B6879
:10236000DA6000BF1437BD4680BC704780B483B0CC
:1023700000AF78600B46FB70FB78002B06D07B68C3
:102380001B6843F001027B681A6006E07B681A68EC
:102390004FF6FE7313407A68136000BF0C37BD46DA
:1023A00080BC704780B485B000AFF860B960134658
:1023B000FB71FB79002B06D0FB681A68BB681A43D7
:1023C000FB681A6006E0FB681A68BB68DB431A40CA
:1023D000FB681A6000BF1437BD4680BC7047000020
:1023E00080B483B000AF78607B6803F08053002B2B
:1023F00003D0064A7B68536002E0054A7B6853605D
:1024000000BF0C37BD4680BC704700BF00040240CF
:102410000000024080B500AF10212248FEF7A2F96B
:102420000346002B06D0204B1B78002B37D1FFF73B
:1024300099FD34E01D4B1B7C03F01003002B03D0EF
:102440001B4B00221A702BE0184B5B7C03F001033E
:10245000002B03D0164B01221A7021E0134BDB78BE
:10246000572B0FD1114B9B784D2B03D1104B0222D0
:102470001A7015E00D4B9B784C2B03D10C4B0322AB
:102480001A700DE003220B490B4801F0AFF9034627
:10249000002B05D1064B04221A7000BF00E000BFDC
:1024A00080BD00BF000801404C000020B4010020A6
:1024B0004B000020C4390008BA01002080B400AFEE
:1024C000064B00221A70064B00221A60054B0022B0
:1024D0001A7000BFBD4680BC704700BF5900002085
:1024E000980100206800002080B400AF044B002257
:1024F0001A70044B00221A7000BFBD4680BC7047A2
:102500006C0000205C000020B0B582B000AF172145
:102510008C48FFF7D5FC0346002B00F00F818A4B57
:10252000884A116855689468D06819605D609C603D
:10253000D86011691961918A927D99829A75834B4D
:102540001B78002B06D1804BDB7A272B02D17E4BE8
:102550003A22DA7203227E497E4801F047F90346A7
:10256000002B0CBF01230023DBB21A467A4B1A70F2
:10257000764B1B78052B40F0AC80784B1B78002BFA
:1025800066D0774B1B78032B57D801A252F823F063
:10259000A1250008C3250008FF2500081D26000806
:1025A000704B1A78704B1B789A4206D26D4B1B7891
:1025B0000133DAB26B4B1A703FE0694B01221A709B
:1025C0003BE06A4B1B680C33644AD35C002B12D08F
:1025D000674B1B785A1CD1B2654A1170654A127854
:1025E000934229D1614B1B680133604A1360604BF1
:1025F00000221A7020E05A4B02221A701CE0594B3C
:102600001B78002B06D0574B1B78013BDAB2554B99
:102610001A7012E0524B03221A700EE0534B1B68E3
:10262000002B05D0514B1B68013B504A136004E05E
:102630004B4B00221A7000E000BF4C4B1B68474A0E
:102640001A444D4B106851689268186059609A603E
:10265000414B1B78002B3AD0474B1B78002B03D003
:10266000464B1B78002B08D1374B86229A700B22E1
:102670004349444801F0ECF81AE00023FB7114E0F0
:10268000FB793D4AD35C002B05D1FB7902332E4AFE
:102690002E21D15406E0FA79FB7902333649895C60
:1026A000294AD154FB790133FB71FB790B2BE7D914
:1026B000324B1B78012B0CD1234B86229A700B22B4
:1026C0003149304801F0C4F8FFF7F8FE01E0FFF7A8
:1026D000F5FE00233B600FE02C4B1B681D2B08DC34
:1026E0002B4A3B6813441978174A3B6813440A463F
:1026F0001A703B6801333B603B68162BECDD124BD4
:102700001B78402B12D1234B3C221A701F4B002206
:102710001A600E4B1B78052B04D11F4B01221A7037
:10272000FFF720FC094B06221A7004E0174B1B68C8
:102730000133164A136000F031F800E000BF08379B
:10274000BD46B0BDB40100209C0100204B0000201C
:10275000C4390008BA0100204C0000206C000020A1
:102760005900002068000020370000209801002058
:1027700058000020380000205C0000204E0000209F
:10278000C83900089F010020D43900084400002007
:1027900020000020140000204800002080B582B0F6
:1027A00000AF0023FB7100233B6009E00A4A3B684D
:1027B00013441A78FB791344FB713B6801333B6087
:1027C0003B68152BF2DD044AFB799375FFF754FB48
:1027D00000BF0837BD4680BD9C01002080B487B093
:1027E00000AF786000237B6100233B610F23FB6017
:1027F0007B68DB78002B3AD0274BDB68DB431B0A76
:1028000003F007037B617B69C3F104033B61FA6852
:102810007B6922FA03F3FB607B685B781A463B69AD
:1028200002FA03F37B617B689B781A46FB681340CE
:102830007A6913437B617B691B017B61174A7B6863
:102840001B787969C9B213440A4683F800237B6870
:102850001B7803F01F0311497A6812785209D2B22B
:102860001046012202FA03F341F820300FE07B68A2
:102870001B7803F01F0309497A6812785209D2B213
:10288000104601229A4000F1200341F8232000BFA6
:102890001C37BD4680BC704700ED00E000E100E061
:1028A00080B485B000AF78600023FB8100237B7388
:1028B00011E0FB891A46920013445B009AB27B7BBD
:1028C00079680B441B789BB213449BB2303BFB816D
:1028D0007B7B01337B737B7B7A6813441B78002BF3
:1028E000E7D1FB8918461437BD4680BC704700000D
:1028F00080B584B000AF78600023FB6010E00E4A22
:10290000FB6852F823307968184600F071FB0346E3
:10291000002B02D0FB685BB20AE0FB680133FB606E
:10292000064B1B781A46FB689342E8DB4FF0FF33F7
:1029300018461037BD4680BDD00100204A02002055
:1029400080B582B000AF3B48FFF7D2FF0346FB7172
:102950003948FFF7CDFF0346BB7197F90730B3F154
:10296000FF3F06D197F90630B3F1FF3F01D10023B5
:102970005CE097F907300133304A52F823301846AB
:10298000FFF78EFF0346002B0DD197F90630013378
:102990002A4A52F823301846FFF782FF0346002BDD
:1029A00001D1002342E097F90730B3F1FF3F12D085
:1029B00097F907300133214A52F823301846FFF7C0
:1029C0006FFF0346002B06D097F9073002331B4AEE
:1029D00052F8233000E00023194A536097F906307B
:1029E000B3F1FF3F12D097F906300133134A52F882
:1029F00023301846FFF754FF0346002B06D097F903
:102A0000063002330D4A52F8233000E000230C4A0E
:102A100013600B4B5B68002B01D1012306E0084BD0
:102A20001B68002B01D1022300E00323184608375E
:102A3000BD4680BDE0390008E8390008D00100201B
:102A40007C03002080B584B000AF0023FB8100230D
:102A50007B73974B1B689749184600F0C9FA0346E9
:102A6000002B00F08281924B9B689349184600F03E
:102A7000BFFA0346002B00F02781FFF761FF0346F2
:102A8000032B0DD08D4B1B78002B09D08B4B0022D4
:102A90001A70FFF729FDFFF711FDFEF7DBFAADE134
:102AA000864B01221A70FFF74BFF0346002B04D11F
:102AB000FFF71AFDFFF702FDA0E10023FB810023D1
:102AC0007B737F4B1B68002B75D07D4B1A687B7B1B
:102AD00013441B785BB2002B3DDA794B1A687B7B81
:102AE000013313441B785BB2002B34DA744B1A6841
:102AF0007B7B13441B781B021AB2714B19687B7BDA
:102B000001330B441B781BB213431BB2FB80FB88C1
:102B1000184600F0A2FA0346FB80FB8803F47F43CB
:102B2000002B0FD0FB881B0A9AB2FB89D1B2654AF1
:102B3000D154FB890133FB81FB89FA88D1B2614A08
:102B4000D15404E0FB89FA88D1B25E4AD1547B7B30
:102B500001337B7307E05A4B1A687B7B1A44FB896D
:102B60001178584AD154564B1A687B7B591C79739B
:102B700013441B78002B05D0FB895A1CFA81B3F54E
:102B8000967FA2D34E4B5B68002B14D0FB895A1C56
:102B9000FA811A464B4B20219954FB895A1CFA8121
:102BA0001A46484B2D219954FB895A1CFA811A4622
:102BB000444B2021995400237B73414B5B68002BCD
:102BC0005CD03F4B5A687B7B13441B785BB2002B75
:102BD0003DDA3B4B5A687B7B013313441B785BB275
:102BE000002B34DA364B5A687B7B13441B781B026C
:102BF0001AB2334B59687B7B01330B441B781BB2F1
:102C000013431BB2FB80FB88184600F026FA0346EC
:102C1000FB80FB8803F47F43002B0FD0FB881B0A4B
:102C20009AB2FB89D1B2274AD154FB890133FB8187
:102C3000FB89FA88D1B2234AD15404E0FB89FA888F
:102C4000D1B2204AD1547B7B01337B7307E01C4B0C
:102C50005A687B7B1A44FB8911781A4AD154184B65
:102C60005A687B7B591C797313441B78002B05D061
:102C7000FB895A1CFA81B3F5967FA2D300237B739C
:102C8000FB890133FB81FB89BB6007E00D4ABB6810
:102C9000134400221A70BB680133BB60BB68B3F5F4
:102CA000967FF3DB00237B73FFF708FCA6E000BFF1
:102CB000D0010020F0390008F83900083900002060
:102CC0007C0300206C0000204E4B9B684E49184648
:102CD00000F08EF90346002B00F08B80494BDB6837
:102CE0004A49184600F084F90346002B00F0818021
:102CF000444B1B694649184600F07AF90346002BFD
:102D000003D0FEF7A7F9FEF791F93E4B1B69414945
:102D1000184600F06DF90346002B6AD0FEF790F9D3
:102D2000384B5B693C49184600F062F90346002BBA
:102D300002D03A4B02221A70324B5B69384918466E
:102D400000F056F90346002B02D0344B01221A70D2
:102D50002C4B5B693349184600F04AF90346002BB7
:102D600047D02E4B00221A7043E0264B1B682E4999
:102D7000184600F03DF90346002B11D0214B9B680B
:102D80002A49184600F034F90346002B33D0FEF7E9
:102D90004DF9FEF755F9FEF75DF9FEF71FF92AE048
:102DA000184B1B682249184600F022F90346002BF5
:102DB00024D0144B5B681F49184600F019F90346EC
:102DC000002B1AD00F4B9B681B49184600F010F9D6
:102DD0000C4B9B681949184600F00AF90346002B72
:102DE0000BD0FEF723F9FEF72BF9FEF733F900BFFE
:102DF00003E000BF02E000BF00E000BF1037BD46A7
:102E000080BD00BFD0010020143A0008303A00080D
:102E1000383A0008483A0008603A00084E0000209E
:102E2000683A0008703A0008783A0008F03900085B
:102E3000803A0008883A0008943A00089C3A000852
:102E400080B400AF094B01221A70094B00221A808E
:102E5000084B01221A70084B084A1A60084B0022DE
:102E60001A7000BFBD4680BC704700BF49000020FB
:102E70004C0200204A020020D00100205002002015
:102E8000CC01002080B582B000AF0346FB71514BEE
:102E90001B88B3F5967F80F096804F4B1B781D2BD7
:102EA00000F29180FB790D2B00F08F80494B1B883D
:102EB00019464A4AFB795354464B1B881A46474BDE
:102EC0009B5C0A2B0BD1434B1B881A46434B0021BA
:102ED0009954434B00221A70FFF7B4FD76E0414B42
:102EE0001B78002B1DD0404B1B885A1E91B23E4AC6
:102EF0001180002B06D0374B1B8801339AB2354B1B
:102F00001A8063E0334B1B881A46344B00219954D6
:102F1000304B1B8801339AB22E4B1A80314B002262
:102F20001A702C4B1B881A462C4B9B5C222B21D1F0
:102F3000284B1B885A1C284B1B78013B27490A4405
:102F40002A4941F82320234B1B8801339AB2214B95
:102F50001A80214B1B78023B244A52F82330184632
:102F6000FFF79EFC03461A461F4B1A801D4B012299
:102F70001A702BE0174B1B881A46184B9B5C202BB2
:102F80001AD1184B1B78002B16D1124B1B8801331A
:102F9000114A12781146114A1344144A42F821305A
:102FA0000D4B1B780133DAB20B4B1A70094B1B889F
:102FB0001A460A4B00219954064B1B8801339AB2DA
:102FC000044B1A8002E000BF00E000BF0837BD4696
:102FD00080BD00BF4C0200204A02002050020020A9
:102FE00049000020CC01002048020020D001002030
:102FF00080B485B000AF786039600023FB7302E0D5
:10300000FB7B0133FB73FB7B7A6813441A78FB7BF1
:1030100039680B441B789A420BD1FB7B7A681344C6
:103020001B78002B05D0FB7B3A6813441B78002BE0
:10303000E6D1FB7B7A6813441B78002B07D1FB7B1E
:103040003A6813441B78002B01D1012300E00023D0
:1030500018461437BD4680BC704780B485B000AFB9
:103060000346FB800023FB81FB884DF2B0029342B4
:1030700000F0C7814DF2B002934200F3B0804DF2F0
:103080009F02934200F084814DF29F02934255DCEF
:103090004DF29602934200F05F814DF29602934208
:1030A00023DC4DF29202934200F04A814DF29202EB
:1030B00093420FDC4DF29002934200F03B814DF2BF
:1030C0009002934200F339814DF28102934200F065
:1030D000FF8108E24DF29402934200F037814DF2F5
:1030E0009402934200F335812DE14DF29A0293420E
:1030F00000F03F814DF29A0293420ADC4DF29802B1
:10310000934200F030814DF29802934200F32E81F9
:1031100026E14DF29C02934200F031814DF29C0277
:103120009342C0F229814DF29D02934200F02A8120
:103130004DF29E02934200F02881D4E14DF2A702A5
:10314000934200F03E814DF2A70293421EDC4DF205
:10315000A302934200F028814DF2A30293420ADCBD
:103160004DF2A102934200F019814DF2A102934267
:1031700000F317810FE14DF2A502934200F01A818E
:103180004DF2A502934200F3188110E14DF2AB021B
:10319000934200F025814DF2AB0293420ADC4DF2DE
:1031A000A902934200F015814DF2A902934200F367
:1031B00014810AE14DF2AD02934200F017814DF205
:1031C000AD029342C0F20F814DF2AE02934200F085
:1031D00010814DF2AF02934200F00F8183E14DF276
:1031E0008112934200F041814DF28112934250DCF2
:1031F0004DF2B802934200F01D814DF2B8029342A5
:103200001EDC4DF2B402934200F007814DF2B4028D
:1032100093420ADC4DF2B202934200F0F8804DF284
:10322000B202934200F3F680EEE04DF2B602934212
:1032300000F0F9804DF2B602934200F3F880EFE01F
:103240004DF2BC02934200F001814DF2BC02934268
:103250000ADC4DF2BA02934200F0F2804DF2BA025B
:10326000934200F3F080E8E04DF2BE02934200F09A
:10327000F3804DF2BE029342C0F2EB804DF2BF02EA
:10328000934200F0EC804DF28012934200F0EA800D
:1032900029E14DF28912934200F002814DF2891228
:1032A00093421EDC4DF28512934200F0EA804DF20B
:1032B000851293420ADC4DF28312934200F0DB80C8
:1032C0004DF28312934200F3D980D1E04DF2871280
:1032D000934200F0DD804DF28712934200F3DC80D0
:1032E000D2E04DF28D12934200F0E7804DF28D1244
:1032F00093420ADC4DF28B12934200F0D8804DF2DB
:103300008B12934200F3D680CEE04DF28F1293429F
:1033100000F0DA804DF28F129342C0F2D1804DF26C
:103320009112934200F0D8804EF28022934200F036
:10333000D780D8E04123FB81D7E04223FB81D4E052
:103340005623FB81D1E04723FB81CEE04423FB8160
:10335000CBE04523FB81C8E045F66823FB81C4E050
:103360005A23FB81C1E04923FB81BEE05923FB8145
:10337000BBE04B23FB81B8E04C23FB81B5E04D2340
:10338000FB81B2E04E23FB81AFE04F23FB81ACE039
:103390005023FB81A9E05223FB81A6E05323FB814C
:1033A000A3E05423FB81A0E05523FB819DE046234D
:1033B000FB819AE04823FB8197E045F27343FB8150
:1033C00093E044F26833FB818FE045F26833FB8180
:1033D0008BE045F26833FB8187E02723FB8184E0A3
:1033E0005923FB8181E02723FB817EE04523FB817C
:1033F0007BE045F67513FB8177E045F66113FB81B1
:1034000073E06123FB8170E06223FB816DE0762332
:10341000FB816AE06723FB8167E06423FB8164E052
:103420006523FB8161E047F66823FB815DE07A2339
:10343000FB815AE06923FB8157E07923FB8154E04B
:103440006B23FB8151E06C23FB814EE06D23FB81FC
:103450004BE06E23FB8148E06F23FB8145E0702346
:10346000FB8142E07223FB813FE07323FB813CE060
:103470007423FB8139E07523FB8136E06623FB81F1
:1034800033E06823FB8130E047F27343FB812CE09B
:1034900046F26833FB8128E047F26833FB8124E081
:1034A00047F26833FB8120E02723FB811DE079236D
:1034B000FB811AE02723FB8117E06523FB8114E0E1
:1034C00047F67513FB8110E047F66113FB810CE0B2
:1034D00045F66F13FB8108E047F66F13FB8104E0AC
:1034E0002D23FB8101E02023FB81FB891846143743
:1034F000BD4680BC7047000080B58AB000AF7860E0
:1035000039600023FB8400237B840423BB84574B56
:10351000FB617B689B88FB84FB8C23F03F03FB846F
:1035200007F108031846FDF7C3FE3B69FB61FB6921
:103530004F4AA2FB03239B0C7B84FA8C7B8C1343A6
:10354000FB847B68FA8C9A807B681B889BB223F093
:1035500001039AB27B681A800023FB843B681B68D6
:10356000444A934215D83B681B685B00FA69B2FB7A
:10357000F3F3BB84BB8C032B01D80423BB84FA8CEC
:10358000BB8C1343FB847B8C01339AB27B681A8417
:1035900040E03B68DB884BF6FF72934209D13B6801
:1035A0001A6813465B001344FA69B2FBF3F3BB8459
:1035B0000EE03B681A6813469B0013449A001344BC
:1035C000FA69B2FBF3F3BB84BB8C43F48043BB8446
:1035D000BB8CC3F30B03002B03D1BB8C43F0010363
:1035E000BB84BA8CFB8C13439BB26FEA43436FEAF4
:1035F0005343FB847B8C4FF4967202FB03F31E4A09
:1036000082FB03129211DB17D31A9BB201339AB2D9
:103610007B681A847B68FA8C9A837B681B889BB2D0
:1036200043F001039AB27B681A807B681B88FB8495
:10363000FB8C23F4816323F00203FB843B689A88AC
:103640003B685B8913439AB2FB8C1343FB847B6812
:10365000FA8C1A803B689A893B681B8913439AB29B
:103660007B681A8100BF2837BD4680BD00127A00F2
:1036700083DE1B43A0860100D34D621080B483B06B
:1036800000AF78600B46FB70FB78002B08D07B689E
:103690001B889BB243F001039AB27B681A8007E053
:1036A0007B681B889BB223F001039AB27B681A8067
:1036B00000BF0C37BD4680BC704780B483B000AFFC
:1036C00078600B46FB70FB78002B08D07B681B886A
:1036D0009BB243F480739AB27B681A8007E07B68E0
:1036E0001B889BB223F480739AB27B681A8000BF58
:1036F0000C37BD4680BC704780B483B000AF7860A3
:103700000B46FB70FB78002B08D07B681B889BB2B4
:1037100043F400739AB27B681A8007E07B681B88C9
:103720009BB223F400739AB27B681A8000BF0C37F7
:10373000BD4680BC704780B483B000AF78600B4654
:10374000FB70FB789AB27B681A8200BF0C37BD46CB
:1037500080BC704780B483B000AF78600B46FB70CC
:103760001346BB70BB78002B04D0FB7843F00103F9
:10377000FB7003E0FB7823F00103FB70FB789AB247
:103780007B681A8200BF0C37BD4680BC704780B48E
:1037900087B000AF7860396000233B610023FB6095
:1037A0000023BB600023FB757B689B8A9BB2FB6098
:1037B0007B681B8B9BB2BB60BB681B04BB60FA6859
:1037C000BB68134323F07F433B613A693B68134076
:1037D0003A689A4202D10123FB7501E00023FB7590
:1037E000FB7D18461C37BD4680BC7047032A70B469
:1037F00014D940EA0105AD0704460B4622D11D68E5
:1038000026681946AE42204603F1040304F104047D
:1038100018D1043A032A20461946F0D8541E72B132
:1038200002780B789A4208BF641806D00CE010F8B2
:10383000012F11F8013F9A4206D1A142F7D1002091
:1038400070BC7047541EEBE7D01A70BC704700BFC5
:10385000844641EA000313F0030349D1403A23D3DD
:103860000B6803604B6843608B688360CB68C36000
:103870000B6903614B6943618B698361CB69C361E8
:103880000B6A03624B6A43628B6A8362CB6AC362D0
:103890000B6B03634B6B43638B6B8363CB6BC363B8
:1038A00040304031403ADBD230320BD30B680360FA
:1038B0004B6843608B688360CB68C3601030103105
:1038C000103AF3D20C3205D351F8043B40F8043BD4
:1038D000043AF9D2043208D0D2071CBF11F8013BD8
:1038E00000F8013B01D30B8803806046704700BF9E
:1038F000082A13D38B07B1D010F00303AED0C3F165
:103900000403D21ADB071CBF11F8013B00F8013B8E
:10391000A4D331F8023B20F8023B9FE7043AD9D305
:10392000013A11F8013B00F8013BF9D20B78037022
:103930004B7843708B788370604670474156524392
:103940005020504C4159200D0A000000415652436E
:1039500050205041555345200D0A00004156524316
:103960005020464F5257415244200D0A000000009B
:103970004156524350204241434B57415244200D3F
:103980000A00000041565243502050445520333124
:103990002032200D0A00000041565243502050446E
:1039A000552033312031200D0A000000415652438A
:1039B0005020504455203230203220312032200D0A
:1039C0000A0000004155580020426C7565746F6F05
:1039D00074682000205061757365642E2E2E2000BF
:1039E00041525449535400005449544C450000007E
:1039F00041565243500000004745545F454C454DE9
:103A0000454E545F415454524942555445535F52B8
:103A10005350000052454749535445525F4E4F544E
:103A2000494649434154494F4E5F525350000000AC
:103A30004348414E47454400545241434B5F43483D
:103A4000414E474544000000504C41594241434BD0
:103A50005F5354415455535F4348414E47454400DA
:103A6000504C4159494E4700504155534544000080
:103A700053544F5050454400434F4E4E454354001D
:103A8000413244500000000053545245414D494ECC
:103A90004700000053544F5000000000535441525F
:023AA0005400D0
:103AA20000000000010203040102030406070809E2
:103AB200020406081E0000004100000030007101EF
:103AC20021FE2D4D4954535542495348492DFFFF7C
:0C3AD2000000000000009D0A010100003F
:0400000508000000EF
:00000001FF
