:020000040800F2
:10000000C0070020A9040008090500080905000828
:10001000090500080905000809050008000000009E
:1000200000000000000000000000000009050008BA
:10003000090500080000000009050008090500087E
:100040000905000809050008090500080905000858
:100050000905000809050008090500080905000848
:100060000905000809050008090500080905000838
:10007000410F0008090500080905000809050008E6
:1000800009050008250F00080905000809050008F2
:100090000905000809050008090500080905000808
:1000A00009050008090500080905000809050008F8
:1000B0008D0E0008D90E0008090500080905000882
:1000C00009050008090500080905000809050008D8
:1000D00009050008750D0008B10D0008310E000873
:1000E00009050008090500080905000800000000CE
:1000F0000000000000000000000000000000000000
:1001000000000000000000005FF808F180B485B036
:1001100000AF786039600023FB817B681B88FB811E
:100120007B682E4A934213D07B682D4A93420FD0AE
:100130007B68B3F1804F0BD07B682A4A934207D08B
:100140007B68294A934203D07B68284A934208D1AE
:10015000FB8923F07003FB813B685A88FB891343BA
:10016000FB817B68224A93420CD07B68214A9342F0
:1001700008D0FB8923F44073FB813B68DA88FB8954
:100180001343FB817B68FA891A803B689A887B68F5
:100190009A853B681A887B681A857B680F4A934268
:1001A0000FD07B680E4A93420BD07B68124A934271
:1001B00007D07B68114A934203D07B68104A934270
:1001C00004D13B681B7A9AB27B681A867B6801224D
:1001D0009A8200BF1437BD4680BC7047002C014096
:1001E000003401400004004000080040000C0040C2
:1001F0000010004000140040004001400044014055
:100200000048014080B483B000AF78607B684FF64F
:10021000FF729A807B6800221A807B680022DA8055
:100220007B6800225A807B6800221A7200BF0C375C
:10023000BD4680BC704700BF80B483B000AF78601B
:100240000B46FB70FB78002B08D07B681B889BB2A9
:1002500043F001039AB27B681A8007E07B681B8831
:100260009BB223F001039AB27B681A8000BF0C375F
:10027000BD4680BC704700BF80B483B000AF7860DB
:100280000B467B8013467B707B78002B08D07B6805
:100290009B899AB27B8813439AB27B689A8109E062
:1002A0007B689B899AB27B88DB439BB213409AB2EE
:1002B0007B689A8100BF0C37BD4680BC704700BF89
:1002C00080B485B000AF78600B467B800023FB7361
:1002D0000023BB8100237B817B681B8A9AB27B88C9
:1002E0001340BB817B689B899AB27B8813407B81DA
:1002F000BB89002B05D07B89002B02D00123FB7327
:1003000001E00023FB73FB7B18461437BD4680BC1D
:10031000704700BF80B483B000AF78600B467B802D
:100320007B88DB439AB27B681A8200BF0C37BD46DC
:1003300080BC704780B500AF154A154B1B6843F071
:10034000010313601249124B5A68124B13404B6061
:100350000F4A0F4B1B6823F0847323F48033136020
:100360000B4A0B4B1B6823F480231360084A084B8D
:100370005B6823F4FE035360054B4FF41F029A6041
:1003800000F00CF8044B4FF000629A6000BF80BD93
:10039000001002400000FFF800ED00E080B500AF63
:1003A00000F002F800BF80BD80B483B000AF00232E
:1003B0007B6000233B603A4A394B1B6843F480332F
:1003C0001360374B1B6803F400333B607B680133D9
:1003D0007B603B68002B03D17B68B3F5A06FF0D145
:1003E0002F4B1B6803F40033002B02D001233B602A
:1003F00001E000233B603B68012B4BD1294A294B8C
:100400001B6843F010031360264A264B1B6823F039
:1004100003031360234A234B1B6843F0020313605A
:100420001F4A1F4B5B6853601D4A1D4B5B6853603E
:100430001B4A1B4B5B6843F480635360184A184B9C
:100440005B6823F47C135360154A154B5B6843F4D7
:10045000E8135360124A124B1B6843F08073136019
:1004600000BF0F4B1B6803F00073002BF9D00C4A40
:100470000B4B5B6823F003035360094A084B5B682E
:1004800043F00203536000BF054B5B6803F00C03AD
:10049000082BF9D100BF0C37BD4680BC704700BFA8
:1004A000001002400020024080B582B000AF114B26
:1004B0007B60114B3B6007E03B681A1D3A607A682D
:1004C000111D796012681A603B680C4A9342F3D39D
:1004D0000B480C494FF000028842B8BF40F8042B8B
:1004E000FADBFFF727FF00F071FD00BF0837BD46BC
:1004F00080BD00BF6A390008000000203C000020D9
:100500003C000020BC03002080B400AFFEE700BF29
:1005100080B582B000AF78607B682F4A934208D1E3
:100520000121042000F0D0FF0021042000F0CCFFC6
:100530004EE07B68294A934208D10121082000F04F
:10054000C3FF0021082000F0BFFF41E07B68244A80
:10055000934208D10121102000F0B6FF00211020A5
:1005600000F0B2FF34E07B681E4A934208D10121BB
:10057000202000F0A9FF0021202000F0A5FF27E0A7
:100580007B68194A934208D10121402000F09CFF6A
:100590000021402000F098FF1AE07B68134A934244
:1005A00008D10121802000F08FFF0021802000F081
:1005B0008BFF0DE07B680E4A934209D101214FF475
:1005C000807000F081FF00214FF4807000F07CFF0C
:1005D00000BF0837BD4680BD00080140000C014047
:1005E000001001400014014000180140001C0140AF
:1005F0000020014080B489B000AF786039600023EA
:10060000FB6100233B610023BB610023FB600023EF
:100610007B610023BB603B68DB7803F00F03FB6169
:100620003B68DB7803F01003002B05D03B689B7818
:100630001A46FB691343FB613B681B88DBB2002B46
:1006400044D07B681B687B610023BB6138E00122DA
:10065000BB6902FA03F3FB603B681B881A46FB6820
:1006600013403B613A69FB689A4226D1BB699B0003
:10067000FB600F22FB6802FA03F3BB60BB68DB433D
:100680007A6913407B61FA69FB6802FA03F37A69BD
:1006900013437B613B68DB78282B05D10122BB69C2
:1006A0009A407B685A6108E03B68DB78482B04D1AC
:1006B0000122BB699A407B681A61BB690133BB6147
:1006C000BB69072BC3D97B687A691A603B681B88B2
:1006D000FF2B46D97B685B687B610023BB613AE0F6
:1006E000BB690833012202FA03F3FB603B681B88F5
:1006F0001A46FB6813403B613A69FB689A4227D16E
:10070000BB699B00FB600F22FB6802FA03F3BB602E
:10071000BB68DB437A6913407B61FA69FB6802FAC4
:1007200003F37A6913437B613B68DB78282B05D19F
:10073000BB69083301229A407B685A613B68DB78C9
:10074000482B05D1BB69083301229A407B681A61A6
:10075000BB690133BB61BB69072BC1D97B687A696F
:100760005A6000BF2437BD4680BC704780B485B056
:1007700000AF78600B467B800023FB737B68DA68F0
:100780007B881340002B02D00123FB7301E0002380
:10079000FB73FB7B18461437BD4680BC704700BF17
:1007A00080B483B000AF78600B467B807A887B682A
:1007B0001A6100BF0C37BD4680BC704780B483B05F
:1007C00000AF78600B467B807A887B685A6100BFF7
:1007D0000C37BD4680BC704780B483B000AF034681
:1007E000FB71084997F907305B09FA7902F01F029B
:1007F000012000FA02F241F8232000BF0C37BD4669
:1008000080BC704700E100E080B59EB000AF0121E0
:100810004FF4804000F01CFE0121042000F018FE7F
:100820004FF40073A7F87430032387F87630182349
:1008300087F8773007F174031946E348FFF7DAFECB
:100840004FF48063A7F87430042387F8773007F1FA
:1008500074031946DC48FFF7CDFE4FF4E1337B66A5
:100860000023A7F868300023A7F86A300023A7F810
:100870006C300023A7F870300C23A7F86E3007F116
:1008800064031946D14801F0A1F80121CF4801F0D5
:1008900057F9252387F86030002387F8613000235B
:1008A00087F86230012387F8633007F16003184648
:1008B00001F0B0FF012240F22551C44801F060F977
:1008C00001214FF4003000F0E1FD0121042000F08F
:1008D000BFFD0423A7F87430032387F8763018236C
:1008E00087F8773007F174031946B748FFF782FE9F
:1008F0000823A7F87430042387F8773007F17403CE
:100900001946B148FFF776FE4FF461537B664FF40A
:100910008053A7F868304FF40053A7F86A304FF4BB
:100920008063A7F86C300023A7F870300C23A7F879
:100930006E3007F164031946A54801F047F801211C
:10094000A34801F0FDF8262387F86030002387F8DC
:100950006130002387F86230012387F8633007F1A4
:100960006003184601F056FF2021994801F074F900
:10097000012240F22551964801F002F9012240F689
:100980004601934801F0FCF801214FF4802000F06B
:100990007DFD0121082000F05BFD4FF48063A7F886
:1009A0007430032387F87630182387F8773007F1FF
:1009B000740319468748FFF71DFE4FF40063A7F83C
:1009C0007430042387F8773007F17403194681489F
:1009D000FFF710FE07F1640319467F4800F0F6FFA9
:1009E00001217D4801F0ACF8272387F8603000230F
:1009F00087F86130002387F86230012387F863307D
:100A000007F16003184601F005FF012240F225516D
:100A1000714801F0B5F80121012000F037FD07F120
:100A200054031846FFF7EEFB0023A7F856304FF4A7
:100A3000E153A7F854304FF49673A7F8583007F1F4
:100A4000540319464FF08040FFF760FB012201215B
:100A50004FF08040FFF710FC01214FF08040FFF77E
:100A6000EBFB1C2387F86030002387F861300023FC
:100A700087F86230012387F8633007F16003184676
:100A800001F0C8FE0121022000F000FD07F154032F
:100A90001846FFF7B7FB0023A7F856304FF4E15391
:100AA000A7F854306423A7F8583007F154031946C7
:100AB0004A48FFF72BFB012201214848FFF7DCFBE6
:100AC00001214648FFF7B8FB1D2387F8603000235B
:100AD00087F86130002387F86230012387F863309C
:100AE00007F16003184601F095FE0121012000F096
:100AF00091FC3B4BBB623B4BFB6210233B631723D8
:100B00007B630023BB638023FB6300233B640023E0
:100B10007B640023BB640023FB6400233B6507F177
:100B200028031946304801F0CFFB012280212848D4
:100B300001F06EF8012202212B4801F01FFC112068
:100B4000FFF74AFE294BBB62294BFB6207237B63FD
:100B500007F128031946274801F0B6FB012280213E
:100B60001D4801F055F801220221224801F006FC3F
:100B70000C20FFF731FE01214FF4001000F086FC3D
:100B80000121082000F064FCC023A7F8743003237F
:100B900087F876301C2387F8773007F174031946FD
:100BA0000C48FFF727FD0023BB834BF6FF73FB8345
:100BB00038233B844FF480637B844FF48043BB84B1
:100BC0000D4BBB61012119E00008014000380140D4
:100BD00000440040000C0140004800400004004078
:100BE00004440040D001002080000240044800403E
:100BF000840000201C000240A0860100364802F05C
:100C000051FD07F118031946334802F089FC1023FF
:100C1000A7F87430102387F87730032387F87630ED
:100C200007F1740319462D48FFF7E4FC10212B4807
:100C3000FFF7C4FD002387F877300223A7F874304C
:100C400007F1740319462548FFF7D4FC4FF4004020
:100C500000F014FB01214FF4007000F0F9FB0023B9
:100C60007B6000233B7201237B724FF46023FB60A7
:100C700000233B6101233B75032301220121184816
:100C800000F072FD3B1D1946154800F093FC012150
:100C9000134800F0E1FC124800F0FAFC00BF1048D5
:100CA00000F006FD0346002BF9D10D4800F018FDB9
:100CB00000BF0B4800F024FD0346002BF9D10121B1
:100CC000074800F0C9FC0121054800F031FD00BFD4
:100CD0007837BD4680BD00BF005400400008014089
:100CE0000024014080B582B000AF1B48FFF710FC24
:100CF0001A48FFF70DFC1A4800F00CFE194800F0E6
:100D000009FE04233B801023FB700323BB703B468A
:100D100019461148FFF76EFC04210F48FFF74EFDFE
:100D200000237B6002E07B6801337B607B680E4AB6
:100D30009342F8D90D4B1E221A70FFF765FD0C4B3C
:100D40001B78052B02D001F03BF801E000F0EEFF2C
:100D500000BF0837BD4680BD00080140000C0140BF
:100D600000440040004800409FBB0D0014000020DC
:100D70004D00002080B500AF0B4B1B889BB203F0E9
:100D80002003002B0DD0094B1B78002B01D102F062
:100D90009BFA054800F08EFF0346DBB2184602F0CE
:100DA000B5FA00BF80BD00BF0038014049000020F7
:100DB00098B500AF1A4B1B889BB203F48073002BCD
:100DC0000CD04FF48071164800F0A0FF154B0122A3
:100DD0001A70134800F06EFFFFF784FF104B1B885A
:100DE0009BB203F02003002B18D00F4B1B78162B5F
:100DF00014D80D4B1B785A1CD1B20B4A11701C46EB
:100E0000074800F057FF0346DAB2084B1A554FF077
:100E1000804300229A84034B01221A7000BF98BDC0
:100E2000004400403C00002081000020E801002038
:100E300098B500AF104B1B889BB203F02003002B2A
:100E400017D00E4B1B78062B13D80C4B1B785A1C53
:100E5000D1B20A4A11701C46074800F02BFF034626
:100E6000DAB2074B1A55074B00229A84064B01222F
:100E70001A7000BF98BD00BF004800404C00002021
:100E800084000020000400403D00002080B500AF39
:100E900001214FF08040FFF713FA0346002B13D0D7
:100EA00001214FF08040FFF735FA084B1B78002BEB
:100EB0000AD001F00BFB064800F0FCFE034B0022B9
:100EC0001A70044B00221A7000BF80BD3C00002045
:100ED000004400408100002080B500AF01210D4892
:100EE000FFF7EEF90346002B12D001210948FFF766
:100EF00011FA094B1B78002B0AD001F06DF8074856
:100F000000F0D8FE044B00221A70054B00221A7024
:100F100000BF80BD000400403D00002000480040AC
:100F20004C00002080B500AF4FF0007001F044FA93
:100F30000021024801F006FA00BF80BD8000024097
:100F400080B500AF202001F037FA0021024801F0FF
:100F5000F9F900BF80BD00BF1C00024080B500AFA2
:100F600000F084F84FF4803000F0AEF800BF31207C
:100F700000F0E6FA0346002BF9D0002000F02AF931
:100F8000002000F05FF94FF4806000F03FF94FF46B
:100F9000804000F073F94FF4E0114FF4803000F01E
:100FA000C1F8012000F0DCF800BF392000F0C8FAD9
:100FB0000346002BF9D0022000F0E2F800BF00F059
:100FC000FBF80346082BFAD100BF80BD80B500AF07
:100FD000FFF7C4FFFFF718FCFFF784FEFEE700BF32
:100FE00080B500AF024800F035FF00BF80BD00BFF4
:100FF0002038000880B500AF024800F02BFF00BF8A
:1010000080BD00BF3038000880B500AF024800F056
:1010100021FF00BF80BD00BF4038000880B500AF91
:10102000024800F017FF00BF80BD00BF5438000821
:1010300080B500AF024800F00DFF00BF80BD00BFCB
:101040006838000880B500AF024800F003FF00BF19
:1010500080BD00BF7C38000880B500AF024800F0BA
:10106000F9FE00BF80BD00BF9038000880B400AF1B
:10107000134A134B1B6843F0010313601049104BD4
:101080005A68104B13404B600D4A0D4B1B6823F000
:10109000847323F480331360094A094B1B6823F4DB
:1010A00080231360064A064B5B6823F4FE035360FB
:1010B000034B4FF41F029A6000BFBD4680BC7047CF
:1010C000001002400000FFF880B483B000AF7860E9
:1010D000134A134B1B6823F480331360104A104BE0
:1010E0001B6823F4802313607B68B3F5803F03D033
:1010F000B3F5802F07D00DE0094A094B1B6843F474
:101100008033136006E0064A054B1B6843F4A023B6
:10111000136000BF00BF0C37BD4680BC704700BFE6
:101120000010024080B485B000AF786039600023C1
:10113000FB600A4B5B68FB60FB6823F47C13FB607D
:101140007A683B681343FA681343FB60034AFB6801
:10115000536000BF1437BD4680BC7047001002408A
:1011600080B483B000AF0346FB71044AFB7913607F
:1011700000BF0C37BD4680BC704700BF60004242D4
:1011800080B485B000AF78600023FB60094B5B68DA
:10119000FB60FB6823F00303FB60FA687B68134382
:1011A000FB60044AFB68536000BF1437BD4680BC37
:1011B000704700BF0010024080B400AF044B5B6872
:1011C000DBB203F00C03DBB21846BD4680BC7047AF
:1011D0000010024080B485B000AF78600023FB604F
:1011E000094B5B68FB60FB6823F0F003FB60FA6867
:1011F0007B681343FB60044AFB68536000BF1437ED
:10120000BD4680BC704700BF0010024080B485B06E
:1012100000AF78600023FB60094B5B68FB60FB68F4
:1012200023F4E063FB60FA687B681343FB60044AC5
:10123000FB68536000BF1437BD4680BC704700BFD9
:101240000010024080B485B000AF78600023FB60DE
:10125000094B5B68FB60FB6823F46053FB607B68B1
:10126000DB00FA681343FB60034AFB68536000BF6E
:101270001437BD4680BC70470010024080B485B072
:1012800000AF78600023FB60094B5B68FB60FB6884
:1012900023F44043FB60FA687B681343FB60044A15
:1012A000FB68536000BF1437BD4680BC704700BF69
:1012B0000010024080B487B000AF786000237B61EB
:1012C00000233B610023FB600023BB604C4B5B6849
:1012D00003F00C037B617B69042B07D0082B09D03A
:1012E000002B33D17B68474A1A6033E07B68454A5C
:1012F0001A602FE0424B5B6803F470133B61404B74
:101300005B6803F48033FB603B699B0C02333B61F9
:10131000FB68002B06D13B693B4A02FB03F27B686A
:101320001A6017E0364B5B6803F40033002B06D0DD
:101330003B69354A02FB03F27B681A600AE03B69AD
:10134000304A02FB03F27B681A6003E07B682D4A97
:101350001A6000BF2A4B5B6803F0F0037B617B6976
:101360001B097B61294A7B6913441B78DBB2BB6094
:101370007B681A68BB68DA407B685A60204B5B6800
:1013800003F4E0637B617B691B0A7B611F4A7B6915
:1013900013441B78DBB2BB607B685A68BB68DA40D9
:1013A0007B689A60164B5B6803F460537B617B69D2
:1013B000DB0A7B61154A7B6913441B78DBB2BB6097
:1013C0007B685A68BB68DA407B68DA600C4B5B6804
:1013D00003F440437B617B699B0B7B610C4A7B6917
:1013E00013441B78DBB2BB607B68DA68BB68B2FB76
:1013F000F3F27B681A6100BF1C37BD4680BC7047A2
:101400000010024000127A0000093D000000002098
:101410001000002080B483B000AF78600B46FB70F2
:10142000FB78002B06D00949084B5A697B681343A7
:101430004B6106E00549054B5A697B68DB43134065
:101440004B6100BF0C37BD4680BC704700100240A6
:1014500080B483B000AF78600B46FB70FB78002B44
:1014600006D00949084B9A697B6813438B6106E0F3
:101470000549054B9A697B68DB4313408B6100BFCC
:101480000C37BD4680BC70470010024080B483B06A
:1014900000AF78600B46FB70FB78002B06D0094943
:1014A000084BDA697B681343CB6106E00549054BBD
:1014B000DA697B68DB431340CB6100BF0C37BD4664
:1014C00080BC70470010024080B483B000AF7860E9
:1014D0000B46FB70FB78002B06D00949084BDA68F5
:1014E0007B681343CB6006E00549054BDA687B68EF
:1014F000DB431340CB6000BF0C37BD4680BC704758
:101500000010024080B483B000AF78600B46FB70DF
:10151000FB78002B06D00949084B1A697B681343F6
:101520000B6106E00549054B1A697B68DB431340F4
:101530000B6100BF0C37BD4680BC704700100240F5
:1015400080B487B000AF0346FB710023FB6000232B
:101550007B610023FB74FB795B09DBB2FB60FB68FA
:10156000012B03D1124B1B687B6109E0FB68022B46
:1015700003D10F4B1B6A7B6102E00D4B5B6A7B6101
:10158000FB7903F01F03FB607A69FB6822FA03F31F
:1015900003F00103002B02D00123FB7401E00023C0
:1015A000FB74FB7C18461C37BD4680BC704700BFEF
:1015B0000010024080B485B000AF7860396000232D
:1015C000FB600023FB727B685B68FB60FB6823F4B5
:1015D000702323F48073FB603B681A683B681B79B7
:1015E0001B021343FA681343FB607B68FA685A6076
:1015F0007B689B68FB60FA68164B1340FB603B6896
:10160000DA683B689B681A433B685B795B0013436D
:10161000FA681343FB607B68FA689A607B68DB6A50
:10162000FB60FB6823F47003FB603B681B7C013BA1
:10163000DAB2FB7A1343FB72FB7A1B05FA68134399
:10164000FB607B68FA68DA6200BF1437BD4680BC75
:10165000704700BFFDF7F1FF80B483B000AF786042
:101660000B46FB70FB78002B06D07B689B6843F031
:1016700001027B689A6005E07B689B6823F00102A9
:101680007B689A6000BF0C37BD4680BC704700BFC6
:1016900080B483B000AF78607B689B6843F0080239
:1016A0007B689A6000BF0C37BD4680BC704700BFA6
:1016B00080B485B000AF78600023FB737B689B68C3
:1016C00003F00803002B02D00123FB7301E0002389
:1016D000FB73FB7B18461437BD4680BC704700BFC8
:1016E00080B483B000AF78607B689B6843F00402ED
:1016F0007B689A6000BF0C37BD4680BC704700BF56
:1017000080B485B000AF78600023FB737B689B6872
:1017100003F00403002B02D00123FB7301E000233C
:10172000FB73FB7B18461437BD4680BC704700BF77
:1017300080B483B000AF78600B46FB70FB78002B61
:1017400006D07B689B6843F4A0027B689A6005E042
:101750007B689B6823F4A0027B689A6000BF0C370B
:10176000BD4680BC704700BF80B485B000AF7860D4
:10177000084611461A460346FB700B46BB701346DB
:101780007B700023FB600023BB60FB78092B23D90F
:101790007B68DB68FB60FB78A3F10A0213465B0001
:1017A0001344072202FA03F3BB60BB68DB43FA6809
:1017B0001340FB607978FB78A3F10A0213465B00C3
:1017C000134401FA03F3BB60FA68BB681343FB6080
:1017D0007B68FA68DA601EE07B681B69FB60FA7858
:1017E00013465B001344072202FA03F3BB60BB6895
:1017F000DB43FA681340FB607978FA7813465B00A4
:10180000134401FA03F3BB60FA68BB681343FB603F
:101810007B68FA681A61BB78062B21D87B685B6B02
:10182000FB60BB785A1E13469B0013441F2202FA2A
:1018300003F3BB60BB68DB43FA681340FB60F978D5
:10184000BB785A1E13469B00134401FA03F3BB6096
:10185000FA68BB681343FB607B68FA685A6347E029
:10186000BB780C2B21D87B681B6BFB60BB78DA1F25
:1018700013469B0013441F2202FA03F3BB60BB68AC
:10188000DB43FA681340FB60F978BB78DA1F134634
:101890009B00134401FA03F3BB60FA68BB6813436F
:1018A000FB607B68FA681A6322E07B68DB6AFB6096
:1018B000BB78A3F10D0213469B0013441F2202FACA
:1018C00003F3BB60BB68DB43FA681340FB60F97845
:1018D000BB78A3F10D0213469B00134401FA03F3F6
:1018E000BB60FA68BB681343FB607B68FA68DA6226
:1018F00000BF1437BD4680BC704700BF80B483B0C2
:1019000000AF78607B68DB6C9BB218460C37BD4635
:1019100080BC704780B582B000AF78607B68264A93
:1019200093420AD101214FF48040FFF7CDFD002101
:101930004FF48040FFF7C8FD3AE07B681F4A9342AE
:101940000AD101214FF40030FFF7DCFD00214FF4F4
:101950000030FFF7D7FD2BE07B68194A93420AD18C
:1019600001214FF48020FFF7CDFD00214FF48020AE
:10197000FFF7C8FD1CE07B68124A93420AD101219F
:101980004FF40020FFF7BEFD00214FF40020FFF7C9
:10199000B9FD0DE07B680C4A934209D101214FF457
:1019A0008010FFF7AFFD00214FF48010FFF7AAFD74
:1019B00000BF0837BD4680BD0038014000440040EC
:1019C00000480040004C00400050004080B58CB002
:1019D00000AF786039600023FB620023BB62002304
:1019E0007B6200233B620023FB617B68FB617B68B9
:1019F0001B8A9BB2FB62FA6A4CF6FF731340FB62D0
:101A00003B68DB881A46FB6A1343FB62FB6A9AB2A7
:101A10007B681A827B689B899BB2FB62FA6A4EF6EE
:101A2000F3131340FB623B689A883B681B8913439E
:101A30009AB23B685B8913439BB21A46FB6A134315
:101A4000FB62FB6A9AB27B689A817B689B8A9BB235
:101A5000FB62FA6A4FF6FF431340FB623B689B89C7
:101A60001A46FB6A1343FB62FB6A9AB27B689A824E
:101A700007F108031846FFF71DFCFB692E4A934245
:101A800002D17B69BB6201E03B69BB627B689B89D9
:101A90009BB21BB2002B0CDABA6A13469B001344AC
:101AA0009A001A443B681B685B00B2FBF3F37B624D
:101AB0000BE0BA6A13469B0013449A001A443B6831
:101AC0001B689B00B2FBF3F37B627B6A1B4AA2FBA1
:101AD00003235B091B01FB62FB6A1B09642202FBF7
:101AE00003F37A6AD31A3B627B689B899BB21BB271
:101AF000002B0CDA3B6ADB003233104AA2FB0323D3
:101B00005B0903F00703FA6A1343FB620BE03B6ACD
:101B10001B013233094AA2FB03235B0903F00F03C5
:101B2000FA6A1343FB62FB6A9AB27B681A8100BFB0
:101B30003037BD4680BD00BF003801401F85EB51E6
:101B400080B483B000AF78600B46FB70FB78002B4D
:101B500008D07B689B899BB243F400539AB27B68A0
:101B60009A8107E07B689B899BB223F400539AB269
:101B70007B689A8100BF0C37BD4680BC704700BFB0
:101B800080B487B000AF78600B467B8013467B70D3
:101B900000233B610023FB600023BB6000237B61CB
:101BA0007B687B617B88DBB25B09DBB23B617B8856
:101BB00003F01F03FB600122FB6802FA03F3BB6022
:101BC0003B69012B03D17B690C337B6109E03B69E5
:101BD000022B03D17B6910337B6102E07B691433F4
:101BE0007B617B78002B06D07B697A691168BA68C3
:101BF0000A431A6006E07B697A691168BA68D243C1
:101C00000A401A6000BF1C37BD4680BC704700BF49
:101C100080B483B000AF78600B467B8013467B7046
:101C20007B78002B08D07B689B8A9AB27B88134311
:101C30009AB27B689A8209E07B689B8A9AB27B8819
:101C4000DB439BB213409AB27B689A8200BF0C3789
:101C5000BD4680BC704700BF80B483B000AF7860E1
:101C60000B467B807B681B8A9BB223F020039AB2D1
:101C70007B681A827B681B8A9AB27B8813439AB26C
:101C80007B681A8200BF0C37BD4680BC704700BF1E
:101C900080B483B000AF78600B467B807B88C3F351
:101CA00008039AB27B689A8000BF0C37BD4680BC9F
:101CB000704700BF80B483B000AF78607B689B88BA
:101CC0009BB2C3F308039BB218460C37BD4680BCD9
:101CD000704700BF80B485B000AF78600B467B8052
:101CE0000023FB737B681B889AB27B8813409BB2EE
:101CF000002B02D00123FB7301E00023FB73FB7B6D
:101D000018461437BD4680BC704700BF80B483B00E
:101D100000AF78600B467B807B88DB439AB27B68A0
:101D20001A8000BF0C37BD4680BC704780B500AF3D
:101D300001211F4801F0D6FC00BF1E491C4801F0DC
:101D40003FFD0346002BF8D000229821184801F0EF
:101D500019FD00BF1849164801F032FD0346002B5B
:101D6000F8D09821124801F0FDFC00BF134910483B
:101D700001F026FD0346002BF8D078210C4801F035
:101D8000F1FC00BF0D490A4801F01AFD0346002B83
:101D9000F8D00121064801F0C5FC00BF07490448FE
:101DA00001F00EFD0346002BF8D000BF80BD00BF40
:101DB0000054004001000300820007008400070077
:101DC00080B500AF01211F4801F08CFC00BF1E4907
:101DD0001C4801F0F5FC0346002BF8D000229821A6
:101DE000184801F0CFFC00BF1849164801F0E8FC84
:101DF0000346002BF8D09821124801F0B3FC00BF35
:101E00001349104801F0DCFC0346002BF8D07C217C
:101E10000C4801F0A7FC00BF0D490A4801F0D0FCB6
:101E20000346002BF8D00121064801F07BFC00BFDF
:101E30000749044801F0C4FC0346002BF8D000BF5A
:101E400080BD00BF00540040010003008200070075
:101E50008400070080B582B000AF78607B685A1CB0
:101E60007A601B789BB219460948FFF711FF00BF43
:101E700040210748FFF72EFF0346002BF8D07B6870
:101E80001B78002BEAD100BF0837BD4680BD00BFDC
:101E90000038014080B500AF0021064800F052FA3A
:101EA000044B17225A600121024800F04BFA00BF90
:101EB00080BD00BF8000024080B500AF0021064811
:101EC00000F040FA044B07225A600121024800F05A
:101ED00039FA00BF80BD00BF1C00024080B485B04D
:101EE00000AF78600B46FB700023FB730023BB60E0
:101EF00009E0BB687A6813441A78FB7B1344FB73D0
:101F0000BB680133BB60FB785A1EBB689A42F0DCA9
:101F1000FB78013B7A6813441B78FA7B9A4201D024
:101F2000002300E0012318461437BD4680BC7047EB
:101F300080B400AF064B1B78002B0CBF012300239D
:101F4000DBB21A46034B1A7000BFBD4680BC704717
:101F5000800000203F00002080B500AF00F0A6FA0E
:101F6000054B05221A7010210448FEF719FCFFF7F3
:101F7000DDFE00BF80BD00BF4D0000200008014015
:101F800080B500AF10210348FEF718FCFFF718FFDB
:101F900000BF80BD0008014080B582B000AF0023C3
:101FA000FB7100233B6009E00A4A3B6813441A783E
:101FB000FB791344FB713B6801333B603B68052BA5
:101FC000F2DD044AFB799371FFF776FF00BF083713
:101FD000BD4680BD8400002080B584B000AF0721DD
:101FE0009B48FFF77BFF0346002B00F06081984B76
:101FF0005B78022B07D0964B5B78202B03D0944B59
:102000005B78402B02D1934B1E221A70914B1B78A8
:10201000002B1AD08F4B1B78013BDAB28D4B1A7014
:102020008C4B1B78002B10D100F0E0F98A4B1B7809
:10203000012B0AD1894B1B78042B01D0FFF778FFC5
:10204000FFF78AFF844B00221A70854B1B78002B08
:1020500021D0844B1B78412B1DD80023FB600BE063
:10206000814AFB6813441978794AFB6813440A468D
:102070001A70FB680133FB60FB68062BF0DD744BC4
:1020800020225A70774B1B780133DAB2754B1A70E5
:10209000FFF782FF0CE1724B1B78002B05D0704BD1
:1020A00000221A706F4B42221A706C4B1B78052B62
:1020B00040F0A7806B4B1B78002B03D16B4B1B7838
:1020C000002B21D1624B5B78402B02D0674B012261
:1020D0001A70644B1B78013BDAB2624B1A70002312
:1020E000BB600BE0604ABB6813441978584ABB6870
:1020F00013440A461A70BB680133BB60BB68062BE9
:10210000F0DDFFF749FFD3E0514B5B78402B03D064
:102110004F4B5B78202B01D1FFF732FF4C4B5B78A4
:10212000022B13D1524B1B78002B0BD1514B1B7838
:10213000022B02D1FEF75EFF01E0FEF751FF4C4B90
:1021400001221A70424B00225A7057E0404B9B7894
:10215000012B09D1464B1B78002B4FD1FEF75EFFB8
:10216000434B01221A7049E0394B9B78022B09D16D
:102170003F4B1B78002B41D1FEF746FF3C4B012221
:102180001A703BE03C48FFF7B9FB03461A463B4B4D
:10219000A3FB02235B099BB2FB71FB79083B052B78
:1021A00025D801A252F823F0C1210008C12100085E
:1021B000C7210008C7210008DB210008DB21000837
:1021C000FFF7DEFE1AE02A4B1B78002B13D1FEF737
:1021D0001BFF274B01221A700DE0254B1B78002BAB
:1021E0000BD1FEF71BFF224B01221A7005E0204B9A
:1021F00000221A7002E000BF00E000BFFFF7CCFE33
:1022000056E0164B1B78052B52D0114B5B78402BB8
:1022100036D10F4B00225A70144B00221A70114B0A
:102220001B780133DAB20F4B1A700E4B1B78422B1E
:102230000AD90C4B00221A70084B1B78042B01D0D2
:10224000FFF776FEFFF788FEFFF7A6FE30E000BF3F
:102250008400002014000020480000204D000020D1
:102260003F0000203E000020180000201F0000203A
:102270004000002082000020002401401F85EB5117
:102280000D4B1B78002B0FD00C4B1B78002B0BD168
:102290000B4B01221A700B4B40225A70064B1B78D5
:1022A000013BDAB2044B1A70FFF776FE00E000BF84
:1022B0001037BD4680BD00BF3E0000203F0000201B
:1022C0001F0000208400002080B485B000AF78603B
:1022D00039600023FB607B681B68FB60FB6823F4AC
:1022E000FF4323F07003FB603B689A683B681B6AFE
:1022F0001A433B681B691A433B685B691A433B6896
:102300009B691A433B68DB691A433B685B6A1A4363
:102310003B689B6A1343FA681343FB607B68FA6867
:102320001A603B68DA687B685A603B681A687B68A9
:102330009A603B685A687B68DA6000BF1437BD4614
:1023400080BC704780B483B000AF78600B46FB70F0
:10235000FB78002B06D07B681B6843F001027B688A
:102360001A6006E07B681A684FF6FE7313407A68BD
:10237000136000BF0C37BD4680BC704780B485B089
:1023800000AFF860B9601346FB71FB79002B06D0F3
:10239000FB681A68BB681A43FB681A6006E0FB68B2
:1023A0001A68BB68DB431A40FB681A6000BF143729
:1023B000BD4680BC704700BF80B483B000AF78607A
:1023C0007B6803F08053002B03D0064A7B68536080
:1023D00002E0054A7B68536000BF0C37BD4680BCF5
:1023E000704700BF000402400000024080B500AF0B
:1023F00010212048FEF7BAF90346002B38D11E4BB6
:102400001B7C03F01003002B03D01C4B00221A701E
:102410002FE0194B5B7C03F00103002B03D0174B1B
:1024200001221A7025E0144BDB78572B0FD1124B89
:102430009B784D2B03D1114B02221A7019E00E4BE1
:102440009B784C2B03D10D4B03221A7011E00A4BE1
:102450009B79412B0DD1084BDB79552B09D1064BCC
:102460001B7A582B05D1054B04221A7000BF00E0DF
:1024700000BF80BD00080140E80100204D000020A1
:1024800080B400AF064B00221A70064B00221A607F
:10249000054B00221A7000BFBD4680BC704700BFCC
:1024A0008D000020CC0100209C00002080B400AFF3
:1024B000044B00221A70044B00221A7000BFBD4664
:1024C00080BC7047A00000209000002080B582B042
:1024D00000AF17219348FFF701FD0346002B00F0E2
:1024E0006A810023FB7108E0FB79FA798D49895CE8
:1024F0008D4AD154FB790133FB71FB79162BF3D94B
:102500008A4B1B78002B06D1874BDB7A272B02D115
:10251000854B3A22DA72834B9B79412B09D1814B4F
:10252000DB79552B05D17F4B1B7A582B01D1012329
:1025300000E00023DAB27E4B1A707C4B1B78052B2F
:1025400040F0EC807B4B1B78002B6ED07A4B1B78D5
:10255000032B58D801A252F823F000BF6D250008C4
:102560008F250008CB250008E9250008734B1A7851
:10257000734B1B789A4206D2704B1B780133DAB248
:102580006E4B1A703FE06C4B01221A703BE06D4BB2
:102590001B680C33674AD35C002B12D06A4B1B7844
:1025A0005A1CD1B2684A1170684A1278934229D1F4
:1025B000644B1B680133634A1360634B00221A703B
:1025C00020E05D4B02221A701CE05C4B1B78002B54
:1025D00006D05A4B1B78013BDAB2584B1A7012E006
:1025E000554B03221A700EE0564B1B68002B05D08A
:1025F000544B1B68013B534A136004E04E4B0022CE
:102600001A7000E000BF0023BB710BE0BB79B97901
:102610004C4A12680A444749895C4D4AD154BB79F7
:102620000133BB71BB790B2BF0D9414B1B78002BCD
:1026300072D0474B1B78002B03D0464B1B78002BE6
:1026400024D1394B86229A70374B2022DA70364BD0
:1026500042221A71344B6C225A71334B75229A7193
:10266000314B6522DA71304B74221A722E4B6F2275
:102670005A722D4B6F229A722B4B7422DA722A4BAC
:1026800068221A73284B20225A731AE000237B71A8
:1026900014E07B792E4AD35C002B05D17B79023381
:1026A000214A2121D15406E07B7902337A792849E5
:1026B000895C1D4AD1547B7901337B717B790B2B6B
:1026C000E7D9244B1B78012B28D1174B86229A700F
:1026D000154B2022DA70144B50221A71124B6122D2
:1026E0005A71114B75229A710F4B7322DA710E4B8E
:1026F00065221A720C4B64225A720B4B2E229A726C
:10270000094B2E22DA72084B2E221A73064B202216
:102710005A73FFF7B5FE01E0FFF7B2FE00233B60FE
:102720002AE000BFE8010020D00100204D00002079
:1027300080000020A00000208D0000209C000020D0
:1027400037000020CC0100208C0000203800002041
:102750009000002082000020194B1B681D2B08DC14
:10276000184A3B6813441978174A3B6813440A46D1
:102770001A703B6801333B603B68162BECDD124B53
:102780001B78402B0FD10E4B00221A600F4B1B7889
:10279000052B04D10E4B01221A70FFF7F1FB0B4BF6
:1027A00007221A7004E0064B1B680133044A1360C9
:1027B00000F010F800E000BF0837BD4680BD00BF44
:1027C0004400002020000020D00100204D00002007
:1027D0004800002080B582B000AF0023FB710023C9
:1027E0003B6009E00A4A3B6813441A78FB791344BA
:1027F000FB713B6801333B603B68152BF2DD044AFB
:10280000FB799375FFF746FB00BF0837BD4680BDD7
:10281000D001002080B487B000AF786000237B61D6
:1028200000233B610F23FB607B68DB78002B3AD0F1
:10283000274BDB68DB4303F4E0631B0A7B617B69A6
:10284000C3F104033B61FA687B6922FA03F3FB607E
:102850007B685B781A463B6902FA03F37B617B680D
:102860009B781A46FB6813407A6913437B617B6946
:102870001B017B61174A7B681B787969C9B21344D5
:102880000A4683F80023134A7B681B785B09DBB296
:1028900018467B681B7803F01F03012101FA03F33C
:1028A00042F820300FE00B497B681B785B09DBB2F4
:1028B00018467B681B7803F01F0301229A4000F141
:1028C000200341F8232000BF1C37BD4680BC704761
:1028D00000ED00E000E100E080B485B000AF78607A
:1028E0000023FB8100237B7311E0FB891A469200D1
:1028F00013445B009AB27B7B79680B441B789BB2D4
:1029000013449BB2303BFB817B7B01337B737B7B2E
:102910007A6813441B78002BE7D1FB8918461437DB
:10292000BD4680BC704700BF80B584B000AF786002
:102930000023FB6010E00E4AFB6852F823307968F0
:10294000184600F0B7FD0346002B02D0FB685BB2CF
:102950000AE0FB680133FB60064B1B781A46FB68F4
:102960009A42E8DC4FF0FF3318461037BD4680BD71
:10297000040200207E02002080B582B000AF3548FE
:10298000FFF7D2FF0346FB713348FFF7CDFF034645
:10299000BB7197F90730B3F1FF3F06D197F90630C5
:1029A000B3F1FF3F01D1002350E097F90730013325
:1029B0002A4A52F823301846FFF78EFF0346002BB1
:1029C0000DD197F906300133244A52F823301846C6
:1029D000FFF782FF0346002B01D1002336E097F971
:1029E0000730B3F1FF3F12D097F9073001331B4A8C
:1029F00052F823301846FFF76FFF0346002B06D02E
:102A000097F907300233154A52F8233000E00023CB
:102A1000134A536097F90630B3F1FF3F12D097F98C
:102A2000063001330D4A52F823301846FFF754FFA1
:102A30000346002B06D097F906300233074A52F8B6
:102A4000233000E00023064A1360012318460837AC
:102A5000BD4680BDA8380008B03800080402002038
:102A6000B003002080B485B000AF0346FB80002394
:102A7000FB81FB884DF2B002934200F0C5814DF21C
:102A8000B002934200F3B0804DF29F02934200F0F7
:102A900084814DF29F02934255DC4DF2960293429F
:102AA00000F05F814DF29602934223DC4DF29202D8
:102AB000934200F04A814DF2920293420FDC4DF2B4
:102AC0009002934200F03B814DF29002934200F35A
:102AD00039814DF20102934200F0FB8104E24DF294
:102AE0009402934200F037814DF29402934200F336
:102AF00035812DE14DF29A02934200F03F814DF273
:102B00009A0293420ADC4DF29802934200F030811F
:102B10004DF29802934200F32E8126E14DF29C0281
:102B2000934200F031814DF29C029342C0F2298120
:102B30004DF29D02934200F02A814DF29E02934293
:102B400000F02881D0E14DF2A702934200F03D81D0
:102B50004DF2A70293421EDC4DF2A302934200F015
:102B600028814DF2A30293420ADC4DF2A102934266
:102B700000F019814DF2A102934200F317810FE199
:102B80004DF2A502934200F01A814DF2A502934244
:102B900000F3188110E14DF2AB02934200F0248162
:102BA0004DF2AB0293420ADC4DF2A902934200F0CF
:102BB00014814DF2A902934200F3138109E14DF211
:102BC000AD02934200F016814DF2AD029342C0F285
:102BD0000E814DF2AE02934200F00F814DF2AF0232
:102BE000934200F00D817FE14DF28112934200F09B
:102BF0003F814DF28112934250DC4DF2B802934274
:102C000000F01B814DF2B80293421EDC4DF2B4027B
:102C1000934200F005814DF2B40293420ADC4DF27A
:102C2000B202934200F0F6804DF2B202934200F3FA
:102C3000F480ECE04DF2B602934200F0F7804DF2E2
:102C4000B602934200F3F680EDE04DF2BC029342EF
:102C500000F0FF804DF2BC0293420ADC4DF2BA0252
:102C6000934200F0F0804DF2BA02934200F3EE80FE
:102C7000E6E04DF2BE02934200F0F1804DF2BE025A
:102C80009342C0F2E9804DF2BF02934200F0EA8025
:102C90004DF28012934200F0E88025E14DF2891256
:102CA000934200F0FF804DF2891293421EDC4DF2F8
:102CB0008512934200F0E8804DF2851293420ADCBF
:102CC0004DF28312934200F0D9804DF28312934269
:102CD00000F3D780CFE04DF28712934200F0DA8004
:102CE0004DF28712934200F3D980D0E04DF28D125D
:102CF000934200F0E4804DF28D1293420ADC4DF2D3
:102D00008B12934200F0D5804DF28B12934200F368
:102D1000D380CBE04DF28F12934200F0D6804DF27B
:102D20008F129342C0F2CE804DF29112934200F086
:102D3000D4804EF28022934200F0D380D4E041232D
:102D4000FB81D3E04223FB81D0E05623FB81CDE021
:102D50004723FB81CAE04423FB81C7E04523FB8175
:102D6000C4E045F66823FB81C0E05A23FB81BDE047
:102D70004923FB81BAE04923FB81B7E04B23FB8168
:102D8000B4E04C23FB81B1E04D23FB81AEE04E2348
:102D9000FB81ABE04F23FB81A8E05023FB81A5E042
:102DA0005223FB81A2E05323FB819FE05423FB814C
:102DB0009CE05523FB8199E04623FB8196E0482364
:102DC000FB8193E04323FB8190E044F26833FB8175
:102DD0008CE045F26833FB8188E045F26833FB8183
:102DE00084E02723FB8181E05923FB817EE02723B8
:102DF000FB817BE04523FB8178E05523FB8175E077
:102E000045F66113FB8171E06123FB816EE0622373
:102E1000FB816BE07623FB8168E06723FB8165E043
:102E20006423FB8162E06523FB815FE047F6682352
:102E3000FB815BE07A23FB8158E06923FB8155E04D
:102E40006923FB8152E06B23FB814FE06C23FB8104
:102E50004CE06D23FB8149E06E23FB8146E06F234C
:102E6000FB8143E07023FB8140E07223FB813DE066
:102E70007323FB813AE07423FB8137E07523FB81E8
:102E800034E06623FB8131E06823FB812EE063237D
:102E9000FB812BE046F26833FB8127E047F2683381
:102EA000FB8123E047F26833FB811FE02723FB818E
:102EB0001CE07923FB8119E02723FB8116E06523C1
:102EC000FB8113E07523FB8110E047F66113FB8162
:102ED0000CE045F64F13FB8108E047F66F13FB81CA
:102EE00004E02D23FB8101E02023FB81FB891846B0
:102EF0001437BD4680BC704780B584B000AF002356
:102F0000FB8100237B738C4B1B688C49184600F0B7
:102F1000D1FA0346002B00F06A81874B9B688849F1
:102F2000184600F0C7FA0346002B00F00F81FFF7A8
:102F300023FD0346012B04D0FFF7B8FAFFF7A0FAF0
:102F4000A0E10023FB8100237B737E4B1B68002BD9
:102F500075D07C4B1A687B7B13441B785BB2002BCB
:102F60003DDA784B1A687B7B013313441B785BB2E4
:102F7000002B34DA734B1A687B7B13441B781B02DB
:102F80001AB2704B19687B7B01330B441B781BB260
:102F900013431BB2FB80FB881846FFF763FD034613
:102FA000FB80FB8803F47F43002B0FD0FB89FA885A
:102FB000120A92B2D1B2644AD154FB890133FB8127
:102FC000FB89FA88D1B2604AD15404E0FB89FA88BF
:102FD000D1B25D4AD1547B7B01337B7307E0FB891F
:102FE000584A11687A7B0A441178574AD154554B94
:102FF0001A687B7B591C797313441B78002B05D00E
:10300000FB895A1CFA81B3F5967FA2D34D4B5B68BE
:10301000002B14D0FB895A1CFA811A464A4B2021F6
:103020009954FB895A1CFA811A46474B2D21995411
:10303000FB895A1CFA811A46434B202199540023DC
:103040007B73404B5B68002B5CD03E4B5A687B7BAC
:1030500013441B785BB2002B3DDA3A4B5A687B7BFA
:10306000013313441B785BB2002B34DA354B5A68BA
:103070007B7B13441B781B021AB2324B59687B7B53
:1030800001330B441B781BB213431BB2FB80FB883C
:103090001846FFF7E7FC0346FB80FB8803F47F43F9
:1030A000002B0FD0FB89FA88120A92B2D1B2264ABD
:1030B000D154FB890133FB81FB89FA88D1B2224AC2
:1030C000D15404E0FB89FA88D1B21F4AD1547B7BEA
:1030D00001337B7307E0FB891A4A51687A7B0A4403
:1030E0001178194AD154174B5A687B7B591C797354
:1030F00013441B78002B05D0FB895A1CFA81B3F5C9
:10310000967FA2D300237B73FB890133FB81FB896C
:10311000BB6007E00C4ABB68134400221A70BB680E
:103120000133BB60BB68B3F5967FF3DB00237B7391
:10313000FFF7A6F9A6E000BF04020020B838000897
:10314000C0380008B0030020A00000204F4B9B684F
:103150004F49184600F0AEF90346002B00F08D8071
:103160004A4BDB684B49184600F0A4F90346002B94
:1031700000F08380454B1B694749184600F09AF9D7
:103180000346002B03D0FDF767FFFDF751FF3F4BD0
:103190001B694249184600F08DF90346002B6CD09C
:1031A000FDF750FF394B5B693D49184600F082F945
:1031B0000346002B02D03B4B02221A70334B5B6953
:1031C0003949184600F076F90346002B02D0354BFA
:1031D00001221A702D4B5B693449184600F06AF9D8
:1031E0000346002B49D02F4B00221A7045E0274B95
:1031F0001B682F49184600F05DF90346002B11D0DB
:10320000224B9B682B49184600F054F90346002BCB
:1032100035D0FDF70DFFFDF715FFFDF71DFFFDF79D
:10322000DFFE2CE0194B1B682349184600F042F9D9
:103230000346002B26D0154B5B682049184600F04A
:1032400039F90346002B1CD0104B9B681C491846CB
:1032500000F030F90D4B9B681A49184600F02AF926
:103260000346002B0DD0FDF7E3FEFDF7EBFEFDF767
:10327000F3FEFDF7B5FE00BF03E000BF02E000BFB4
:1032800000E000BF1037BD4680BD00BF0402002033
:10329000DC380008F8380008003900081039000848
:1032A0002839000882000020303900083839000829
:1032B00040390008B838000848390008503900087B
:1032C0005C3900086439000880B400AF094B012262
:1032D0001A70094B00221A80084B01221A70084B01
:1032E000084A1A60084B00221A7000BFBD4680BC15
:1032F000704700BF49000020800200207E020020AD
:1033000004020020840200200002002080B582B068
:1033100000AF0346FB715E4B1B88B3F5967F80F0D0
:10332000B1805C4B1B781D2B00F2AC80FB790D2B20
:1033300000F0AA80564B1B881946574AFB79535414
:10334000534B1B881A46544B9B5C0A2B0BD1504B9A
:103350001B881A46504B00219954504B00221A707A
:10336000FFF7CAFD91E04E4B1B78002B1DD04D4B53
:103370001B885A1E91B24B4A1180002B06D0444B39
:103380001B8801339AB2424B1A807EE0404B1B8867
:103390001A46414B002199543D4B1B8801339AB288
:1033A0003B4B1A803E4B00221A70394B1B881A4641
:1033B000394B9B5C222B3CD1364B1B78013B344A6A
:1033C0001288013234490A44374941F82320304BEE
:1033D0001B8801339AB22E4B1A802E4B1B78023B6E
:1033E000314A52F823301846FFF776FA03461A4658
:1033F0002C4B1A802B4B1B882C4AA2FB0323DB0887
:103400009BB230331A462A4B1A60264B1A88274B38
:10341000A3FB0213D9080B469B000B445B00D31A95
:103420009BB230331A46224B5A601D4B01221A7050
:103430002BE0174B1B881A46174B9B5C202B1AD18D
:10344000174B1B78002B16D1124B1B781946104BCB
:103450001B880133104A1344134A42F821300D4BA4
:103460001B780133DAB20B4B1A70094B1B881A46D2
:10347000094B00219954064B1B8801339AB2044B27
:103480001A8002E000BF00E000BF0837BD4680BDE3
:10349000800200207E0200208402002049000020DB
:1034A000000200207C02002004020020CDCCCCCC05
:1034B0005000002080B485B000AF786039600023F0
:1034C000FB7302E0FB7B0133FB73FB7B7A681344E5
:1034D0001A78FB7B39680B441B789A420BD1FB7B33
:1034E0007A6813441B78002B05D0FB7B3A681344A1
:1034F0001B78002BE6D1FB7B7A6813441B78002BEA
:1035000007D1FB7B3A6813441B78002B01D10123C0
:1035100000E0002318461437BD4680BC704700BF4A
:1035200080B58AB000AF786039600023FB84002347
:103530007B840423BB84574BFB617B689B88FB84A3
:10354000FB8C23F03F03FB8407F108031846FDF7CB
:10355000B1FE3B69FB61FB694F4AA2FB03239B0C55
:103560007B84FA8C7B8C1343FB847B68FA8C9A8077
:103570007B681B889BB223F001039AB27B681A8098
:103580000023FB843B681B68444A934215D83B6880
:103590001B685B00FA69B2FBF3F3BB84BB8C032BA3
:1035A00001D80423BB84FA8CBB8C1343FB847B8C33
:1035B00001339AB27B681A8440E03B68DB884BF6A3
:1035C000FF72934209D13B681A6813465B001344AB
:1035D000FA69B2FBF3F3BB840EE03B681A6813464A
:1035E0009B0013449A001344FA69B2FBF3F3BB84C3
:1035F000BB8C43F48043BB84BB8CC3F30B03002B15
:1036000003D1BB8C43F00103BB84BA8CFB8C134306
:103610009BB26FEA43436FEA5343FB847B8C4FF4C6
:10362000967202FB03F31E4A82FB03129211DB1710
:10363000D31A9BB201339AB27B681A847B68FA8CE6
:103640009A837B681B889BB243F001039AB27B6824
:103650001A807B681B88FB84FB8C23F4816323F036
:103660000203FB843B689A883B685B8913439AB2E8
:10367000FB8C1343FB847B68FA8C1A803B689A8925
:103680003B681B8913439AB27B681A8100BF2837B5
:10369000BD4680BD00127A0083DE1B43A086010078
:1036A000D34D621080B483B000AF78600B46FB70DE
:1036B000FB78002B08D07B681B889BB243F001038A
:1036C0009AB27B681A8007E07B681B889BB223F064
:1036D00001039AB27B681A8000BF0C37BD4680BCDC
:1036E000704700BF80B483B000AF78600B46FB70BA
:1036F000FB78002B08D07B681B889BB243F4807357
:103700009AB27B681A8007E07B681B889BB223F41F
:1037100080739AB27B681A8000BF0C37BD4680BCAC
:10372000704700BF80B483B000AF78600B46FB7079
:10373000FB78002B08D07B681B889BB243F4007396
:103740009AB27B681A8007E07B681B889BB223F4DF
:1037500000739AB27B681A8000BF0C37BD4680BCEC
:10376000704700BF80B483B000AF78600B46FB7039
:10377000FB789AB27B681A8200BF0C37BD4680BCCA
:10378000704700BF80B483B000AF78600B46FB7019
:103790001346BB70BB78002B04D0FB7843F00103C9
:1037A000FB7003E0FB7823F00103FB70FB789AB217
:1037B0007B681A8200BF0C37BD4680BC704700BFD3
:1037C00080B487B000AF7860396000233B6100238C
:1037D000FB600023BB600023FB757B689B8A9BB268
:1037E000FB607B681B8B9BB2BB60BB681B04BB6030
:1037F000FA68BB68134323F07F433B613A693B6837
:103800001A403B689A4202D10123FB7501E0002374
:10381000FB75FB7D18461C37BD4680BC704700BF5A
:10382000415652435020504C4159200D0A0000008F
:103830004156524350205041555345200D0A000037
:10384000415652435020464F5257415244200D0A90
:10385000000000004156524350204241434B574123
:103860005244200D0A00000041565243502050445B
:10387000552033312032200D0A00000041565243BA
:1038800050205044552033312031200D0A000000D3
:10389000415652435020504455203230203220317E
:1038A0002032200D0A0000004152544953540000B8
:1038B0005449544C4500000041565243500000000A
:1038C0004745545F454C454D454E545F4154545215
:1038D0004942555445535F525350000052454749A1
:1038E000535445525F4E4F54494649434154494F02
:1038F0004E5F5253500000004348414E474544003C
:10390000545241434B5F4348414E474544000000F9
:10391000504C41594241434B5F5354415455535FBE
:103920004348414E47454400504C4159494E470099
:10393000504155534544000053544F5050454400A6
:10394000434F4E4E45435400413244500000000066
:1039500053545245414D494E4700000053544F5077
:0A39600000000000535441525400CF
:10396A00000000000102030401020304060708091B
:10397A00020406081E000000410000003000710128
:10398A0021FE2D4D4954535542495348492DFFFFB5
:0C399A000000000000009D0A0100000079
:0400000508000000EF
:00000001FF
