:020000040800F2
:1000000088040020A9040008090500080905000863
:10001000090500080905000809050008000000009E
:1000200000000000000000000000000009050008BA
:10003000090500080000000009050008090500087E
:100040000905000809050008090500080905000858
:100050000905000809050008090500080905000848
:100060000905000809050008090500080905000838
:10007000390F0008090500080905000809050008EE
:10008000090500081D0F00080905000809050008FA
:100090000905000809050008090500080905000808
:1000A00009050008090500080905000809050008F8
:1000B000850E0008D10E0008090500080905000892
:1000C00009050008090500080905000809050008D8
:1000D0000905000809050008A90D0008290E0008F7
:1000E00009050008090500080905000800000000CE
:1000F0000000000000000000000000000000000000
:1001000000000000000000005FF808F180B485B036
:1001100000AF786039600023FB817B681B88FB811E
:100120007B682E4A934213D07B682D4A93420FD0AE
:100130007B68B3F1804F0BD07B682A4A934207D08B
:100140007B68294A934203D07B68284A934208D1AE
:10015000FB8923F07003FB813B685A88FB891343BA
:10016000FB817B68224A93420CD07B68214A9342F0
:1001700008D0FB8923F44073FB813B68DA88FB8954
:100180001343FB817B68FA891A803B689A887B68F5
:100190009A853B681A887B681A857B680F4A934268
:1001A0000FD07B680E4A93420BD07B68124A934271
:1001B00007D07B68114A934203D07B68104A934270
:1001C00004D13B681B7A9AB27B681A867B6801224D
:1001D0009A8200BF1437BD4680BC7047002C014096
:1001E000003401400004004000080040000C0040C2
:1001F0000010004000140040004001400044014055
:100200000048014080B483B000AF78607B684FF64F
:10021000FF729A807B6800221A807B680022DA8055
:100220007B6800225A807B6800221A7200BF0C375C
:10023000BD4680BC704700BF80B483B000AF78601B
:100240000B46FB70FB78002B08D07B681B889BB2A9
:1002500043F001039AB27B681A8007E07B681B8831
:100260009BB223F001039AB27B681A8000BF0C375F
:10027000BD4680BC704700BF80B483B000AF7860DB
:100280000B467B8013467B707B78002B08D07B6805
:100290009B899AB27B8813439AB27B689A8109E062
:1002A0007B689B899AB27B88DB439BB213409AB2EE
:1002B0007B689A8100BF0C37BD4680BC704700BF89
:1002C00080B485B000AF78600B467B800023FB7361
:1002D0000023BB8100237B817B681B8A9AB27B88C9
:1002E0001340BB817B689B899AB27B8813407B81DA
:1002F000BB89002B05D07B89002B02D00123FB7327
:1003000001E00023FB73FB7B18461437BD4680BC1D
:10031000704700BF80B483B000AF78600B467B802D
:100320007B88DB439AB27B681A8200BF0C37BD46DC
:1003300080BC704780B500AF154A154B1B6843F071
:10034000010313601249124B5A68124B13404B6061
:100350000F4A0F4B1B6823F0847323F48033136020
:100360000B4A0B4B1B6823F480231360084A084B8D
:100370005B6823F4FE035360054B4FF41F029A6041
:1003800000F00CF8044B4FF000629A6000BF80BD93
:10039000001002400000FFF800ED00E080B500AF63
:1003A00000F002F800BF80BD80B483B000AF00232E
:1003B0007B6000233B603A4A394B1B6843F480332F
:1003C0001360374B1B6803F400333B607B680133D9
:1003D0007B603B68002B03D17B68B3F5A06FF0D145
:1003E0002F4B1B6803F40033002B02D001233B602A
:1003F00001E000233B603B68012B4BD1294A294B8C
:100400001B6843F010031360264A264B1B6823F039
:1004100003031360234A234B1B6843F0020313605A
:100420001F4A1F4B5B6853601D4A1D4B5B6853603E
:100430001B4A1B4B5B6843F480635360184A184B9C
:100440005B6823F47C135360154A154B5B6843F4D7
:10045000E8135360124A124B1B6843F08073136019
:1004600000BF0F4B1B6803F00073002BF9D00C4A40
:100470000B4B5B6823F003035360094A084B5B682E
:1004800043F00203536000BF054B5B6803F00C03AD
:10049000082BF9D100BF0C37BD4680BC704700BFA8
:1004A000001002400020024080B582B000AF114B26
:1004B0007B60114B3B6007E03B681A1D3A607A682D
:1004C000111D796012681A603B680C4A9342F3D39D
:1004D0000B480C494FF000028842B8BF40F8042B8B
:1004E000FADBFFF727FF00F06DFD00BF0837BD46C0
:1004F00080BD00BF942800080000002038000020C4
:10050000380000208400002080B400AFFEE700BF68
:1005100080B582B000AF78607B682F4A934208D1E3
:100520000121042000F086FF0021042000F082FF5A
:100530004EE07B68294A934208D10121082000F04F
:1005400079FF0021082000F075FF41E07B68244A14
:10055000934208D10121102000F06CFF00211020EF
:1005600000F068FF34E07B681E4A934208D1012105
:10057000202000F05FFF0021202000F05BFF27E03B
:100580007B68194A934208D10121402000F052FFB4
:100590000021402000F04EFF1AE07B68134A93428E
:1005A00008D10121802000F045FF0021802000F0CB
:1005B00041FF0DE07B680E4A934209D101214FF4BF
:1005C000807000F037FF00214FF4807000F032FFA0
:1005D00000BF0837BD4680BD00080140000C014047
:1005E000001001400014014000180140001C0140AF
:1005F0000020014080B489B000AF786039600023EA
:10060000FB6100233B610023BB610023FB600023EF
:100610007B610023BB603B68DB7803F00F03FB6169
:100620003B68DB7803F01003002B05D03B689B7818
:100630001A46FB691343FB613B681B88DBB2002B46
:1006400044D07B681B687B610023BB6138E00122DA
:10065000BB6902FA03F3FB603B681B881A46FB6820
:1006600013403B613A69FB689A4226D1BB699B0003
:10067000FB600F22FB6802FA03F3BB60BB68DB433D
:100680007A6913407B61FA69FB6802FA03F37A69BD
:1006900013437B613B68DB78282B05D10122BB69C2
:1006A0009A407B685A6108E03B68DB78482B04D1AC
:1006B0000122BB699A407B681A61BB690133BB6147
:1006C000BB69072BC3D97B687A691A603B681B88B2
:1006D000FF2B46D97B685B687B610023BB613AE0F6
:1006E000BB690833012202FA03F3FB603B681B88F5
:1006F0001A46FB6813403B613A69FB689A4227D16E
:10070000BB699B00FB600F22FB6802FA03F3BB602E
:10071000BB68DB437A6913407B61FA69FB6802FAC4
:1007200003F37A6913437B613B68DB78282B05D19F
:10073000BB69083301229A407B685A613B68DB78C9
:10074000482B05D1BB69083301229A407B681A61A6
:10075000BB690133BB61BB69072BC1D97B687A696F
:100760005A6000BF2437BD4680BC704780B485B056
:1007700000AF78600B467B800023FB737B68DA68F0
:100780007B881340002B02D00123FB7301E0002380
:10079000FB73FB7B18461437BD4680BC704700BF17
:1007A00080B483B000AF78600B467B807A887B682A
:1007B0001A6100BF0C37BD4680BC704780B483B05F
:1007C00000AF78600B467B807A887B685A6100BFF7
:1007D0000C37BD4680BC704780B483B000AF034681
:1007E000FB71084997F907305B09FA7902F01F029B
:1007F000012000FA02F241F8232000BF0C37BD4669
:1008000080BC704700E100E080B59EB000AF0121E0
:100810004FF4003000F0F0FD0121042000F0CEFD87
:100820004FF40073A7F87430032387F87630182349
:1008300087F8773007F174031946E348FFF7DAFECB
:100840004FF48063A7F87430042387F8773007F1FA
:1008500074031946DC48FFF7CDFE4FF4E1337B66A5
:100860000023A7F868300023A7F86A300023A7F810
:100870006C300023A7F870300C23A7F86E3007F116
:1008800064031946D14801F057F80121CF4801F01F
:100890000DF9252387F86030002387F861300023A5
:1008A00087F86230012387F8633007F16003184648
:1008B00001F00EFE012240F22551C44801F016F964
:1008C00001214FF4003000F097FD0121042000F0D9
:1008D00075FD0423A7F87430032387F876301823B6
:1008E00087F8773007F174031946B748FFF782FE9F
:1008F0000823A7F87430042387F8773007F17403CE
:100900001946B148FFF776FE4FF461537B664FF40A
:100910008053A7F868304FF40053A7F86A304FF4BB
:100920008063A7F86C300023A7F870300C23A7F879
:100930006E3007F164031946A54800F0FDFF012160
:10094000A34801F0B3F8262387F86030002387F826
:100950006130002387F86230012387F8633007F1A4
:100960006003184601F0B4FD2021994801F02AF9EE
:10097000012240F22551964801F0B8F8012240F6D4
:100980004601934801F0B2F801214FF4802000F0B5
:1009900033FD0121082000F011FD4FF48063A7F81A
:1009A0007430032387F87630182387F8773007F1FF
:1009B000740319468748FFF71DFE4FF40063A7F83C
:1009C0007430042387F8773007F17403194681489F
:1009D000FFF710FE07F1640319467F4800F0ACFFF3
:1009E00001217D4801F062F8272387F86030002359
:1009F00087F86130002387F86230012387F863307D
:100A000007F16003184601F063FD012240F2255111
:100A1000714801F06BF80121012000F0EDFC07F1B5
:100A200054031846FFF7EEFB0023A7F856304FF4A7
:100A3000E153A7F854304FF49673A7F8583007F1F4
:100A4000540319464FF08040FFF760FB012201215B
:100A50004FF08040FFF710FC01214FF08040FFF77E
:100A6000EBFB1C2387F86030002387F861300023FC
:100A700087F86230012387F8633007F16003184676
:100A800001F026FD0121022000F0B6FC07F154031D
:100A90001846FFF7B7FB0023A7F856304FF4E15391
:100AA000A7F854306423A7F8583007F154031946C7
:100AB0004A48FFF72BFB012201214848FFF7DCFBE6
:100AC00001214648FFF7B8FB1D2387F8603000235B
:100AD00087F86130002387F86230012387F863309C
:100AE00007F16003184601F0F3FC0121012000F03A
:100AF00047FC3B4BBB623B4BFB6210233B63172322
:100B00007B630023BB638023FB6300233B640023E0
:100B10007B640023BB640023FB6400233B6507F177
:100B200028031946304801F027FB0122802128487C
:100B300001F024F8012202212B4801F077FB11205B
:100B4000FFF74AFE294BBB62294BFB6207237B63FD
:100B500007F128031946274801F00EFB01228021E6
:100B60001D4801F00BF801220221224801F05EFB32
:100B70000C20FFF731FE01214FF4001000F03CFC87
:100B80000121082000F01AFCC023A7F874300323C9
:100B900087F876301C2387F8773007F174031946FD
:100BA0000C48FFF727FD0023BB834BF6FF73FB8345
:100BB00038233B844FF480637B844FF48043BB84B1
:100BC0000D4BBB61012119E00008014000380140D4
:100BD00000440040000C0140004800400004004078
:100BE00004440040540000208000024004480040BB
:100BF0004C0000201C000240A0860100424801F089
:100C00008BFD07F1180319463F4801F0C3FC012191
:100C1000102000F0D3FB4FF46043A7F8743010238A
:100C200087F87730032387F8763007F17403194685
:100C30003648FFF7DFFC4FF460413448FFF7BEFD54
:100C40001023A7F87430102387F87730032387F830
:100C5000763007F1740319462D48FFF7CBFC1021BD
:100C60002B48FFF7ABFD002387F877300223A7F866
:100C7000743007F1740319462548FFF7BBFC4FF4A5
:100C8000004000F0B1FA01214FF4007000F096FB33
:100C900000237B6000233B7201237B724FF46023AF
:100CA000FB6000233B6101233B75032301220121EB
:100CB000184800F00FFD3B1D1946164800F030FCA7
:100CC0000121144800F07EFC124800F097FC00BFA0
:100CD000104800F0A3FC0346002BF9D10D4800F0AA
:100CE000B5FC00BF0B4800F0C1FC0346002BF9D156
:100CF0000121084800F066FC0121064800F0CEFC06
:100D000000BF7837BD4680BD005400400010014050
:100D1000000801400024014080B582B000AF1B48AC
:100D2000FFF7F6FB1A48FFF7F3FB1A4800F0A8FD9F
:100D3000194800F0A5FD04233B801023FB7003231A
:100D4000BB703B4619461148FFF754FC04210F487D
:100D5000FFF734FD00237B6002E07B6801337B609A
:100D60007B680E4A9342F8D90D4B1E221A70FFF78A
:100D70004BFD0C4B1B78052B02D000F0A9FF01E0C6
:100D800000F05CFF00BF0837BD4680BD0008014091
:100D9000000C014000440040004800409FBB0D0093
:100DA000140000204600002098B500AF1A4B1B88A5
:100DB0009BB203F48073002B0CD04FF48071164863
:100DC00000F02CFF154B01221A70134800F016FF9B
:100DD000FFF7A2FF104B1B889BB203F02003002BF0
:100DE00018D00F4B1B78162B14D80D4B1B785A1CA0
:100DF000D1B20B4A11701C46074800F0FFFE0346B3
:100E0000DAB2084B1A554FF0804300229A84034B04
:100E100001221A7000BF98BD004400403800002035
:100E2000480000206C00002098B500AF104B1B88D4
:100E30009BB203F02003002B17D00E4B1B78062B20
:100E400013D80C4B1B785A1CD1B20A4A11701C469D
:100E5000074800F0D3FE0346DAB2074B1A55074B9A
:100E600000229A84064B01221A7000BF98BD00BF71
:100E700000480040450000204C00002000040040D5
:100E80003900002080B500AF01214FF08040FFF70E
:100E900017FA0346002B13D001214FF08040FFF7D3
:100EA00039FA084B1B78002B0AD001F041FA0648AA
:100EB00000F0A4FE034B00221A70044B00221A70AB
:100EC00000BF80BD380000200044004048000020E2
:100ED00080B500AF01210D48FFF7F2F90346002B62
:100EE00012D001210948FFF715FA094B1B78002B96
:100EF0000AD000F0DBFF074800F080FE044B002220
:100F00001A70054B00221A7000BF80BD000400401B
:100F100039000020004800404500002080B500AFA7
:100F20004FF0007001F0A0F90021024801F062F9D1
:100F300000BF80BD8000024080B500AF202001F0DE
:100F400093F90021024801F055F900BF80BD00BFB0
:100F50001C00024080B500AF00F03EF84FF4803036
:100F600000F068F800BF312000F0A0FA0346002B23
:100F7000F9D0002000F0E4F8002000F019F94FF457
:100F8000806000F0F9F84FF4804000F02DF94FF444
:100F9000E0114FF4803000F07BF8012000F096F86B
:100FA00000BF392000F082FA0346002BF9D002205E
:100FB00000F09CF800BF00F0B5F80346082BFAD10A
:100FC00000BF80BD80B500AFFFF7C4FFFFF71CFC7A
:100FD000FFF7A2FEFEE700BF80B400AF134A134B39
:100FE0001B6843F0010313601049104B5A68104B03
:100FF00013404B600D4A0D4B1B6823F0847323F4A0
:1010000080331360094A094B1B6823F48023136063
:10101000064A064B5B6823F4FE035360034B4FF410
:101020001F029A6000BFBD4680BC7047001002409E
:101030000000FFF880B483B000AF7860134A134B10
:101040001B6823F480331360104A104B1B6823F491
:10105000802313607B68B3F5803F03D0B3F5802F06
:1010600007D00DE0094A094B1B6843F48033136035
:1010700006E0064A054B1B6843F4A023136000BF3B
:1010800000BF0C37BD4680BC704700BF0010024057
:1010900080B485B000AF786039600023FB600A4BF4
:1010A0005B68FB60FB6823F47C13FB607A683B6839
:1010B0001343FA681343FB60034AFB68536000BFA5
:1010C0001437BD4680BC70470010024080B483B026
:1010D00000AF0346FB71044AFB79136000BF0C3775
:1010E000BD4680BC704700BF6000424280B485B0FE
:1010F00000AF78600023FB60094B5B68FB60FB6816
:1011000023F00303FB60FA687B681343FB60044A27
:10111000FB68536000BF1437BD4680BC704700BFFA
:101120000010024080B400AF044B5B68DBB203F0F8
:101130000C03DBB21846BD4680BC7047001002406D
:1011400080B485B000AF78600023FB60094B5B681A
:10115000FB60FB6823F0F003FB60FA687B681343D5
:10116000FB60044AFB68536000BF1437BD4680BC77
:10117000704700BF0010024080B485B000AF7860B7
:101180000023FB60094B5B68FB60FB6823F4E063B2
:10119000FB60FA687B681343FB60044AFB6853609A
:1011A00000BF1437BD4680BC704700BF001002402E
:1011B00080B485B000AF78600023FB60094B5B68AA
:1011C000FB60FB6823F46053FB607B68DB00FA681C
:1011D0001343FB60034AFB68536000BF1437BD46EE
:1011E00080BC70470010024080B485B000AF7860CA
:1011F0000023FB60094B5B68FB60FB6823F4404302
:10120000FB60FA687B681343FB60044AFB68536029
:1012100000BF1437BD4680BC704700BF00100240BD
:1012200080B487B000AF786000237B6100233B610E
:101230000023FB600023BB604C4B5B6803F00C0396
:101240007B617B69042B07D0082B09D0002B33D19D
:101250007B68474A1A6033E07B68454A1A602FE092
:10126000424B5B6803F470133B61404B5B6803F4D3
:101270008033FB603B699B0C02333B61FB68002BB6
:1012800006D13B693B4A02FB03F27B681A6017E018
:10129000364B5B6803F40033002B06D03B69354ABC
:1012A00002FB03F27B681A600AE03B69304A02FBEA
:1012B00003F27B681A6003E07B682D4A1A6000BF66
:1012C0002A4B5B6803F0F0037B617B691B097B6140
:1012D000294A7B6913441B78DBB2BB607B681A68C0
:1012E000BB68DA407B685A60204B5B6803F4E063BC
:1012F0007B617B691B0A7B611F4A7B6913441B78F6
:10130000DBB2BB607B685A68BB68DA407B689A6076
:10131000164B5B6803F460537B617B69DB0A7B617E
:10132000154A7B6913441B78DBB2BB607B685A6843
:10133000BB68DA407B68DA600C4B5B6803F44043BF
:101340007B617B699B0B7B610C4A7B6913441B7837
:10135000DBB2BB607B68DA68BB68B2FBF3F27B6828
:101360001A6100BF1C37BD4680BC704700100240A8
:1013700000127A0000093D0000000020100000204B
:1013800080B483B000AF78600B46FB70FB78002B15
:1013900006D00949084B5A697B6813434B6106E044
:1013A0000549054B5A697B68DB4313404B6100BF1D
:1013B0000C37BD4680BC70470010024080B483B03B
:1013C00000AF78600B46FB70FB78002B06D0094914
:1013D000084B9A697B6813438B6106E00549054B0E
:1013E0009A697B68DB4313408B6100BF0C37BD46B5
:1013F00080BC70470010024080B483B000AF7860BA
:101400000B46FB70FB78002B06D00949084BDA69C4
:101410007B681343CB6106E00549054BDA697B68BD
:10142000DB431340CB6100BF0C37BD4680BC704727
:101430000010024080B483B000AF78600B46FB70B0
:10144000FB78002B06D00949084BDA687B68134308
:10145000CB6006E00549054BDA687B68DB43134047
:10146000CB6000BF0C37BD4680BC70470010024007
:1014700080B483B000AF78600B46FB70FB78002B24
:1014800006D00949084B1A697B6813430B6106E0D3
:101490000549054B1A697B68DB4313400B6100BFAC
:1014A0000C37BD4680BC70470010024080B487B046
:1014B00000AF0346FB710023FB6000237B61002328
:1014C000FB74FB795B09DBB2FB60FB68012B03D18A
:1014D000124B1B687B6109E0FB68022B03D10F4BA9
:1014E0001B6A7B6102E00D4B5B6A7B61FB7903F059
:1014F0001F03FB607A69FB6822FA03F303F0010320
:10150000002B02D00123FB7401E00023FB74FB7C61
:1015100018461C37BD4680BC704700BF0010024013
:1015200080B485B000AF786039600023FB60002391
:10153000FB727B685B68FB60FB6823F4702323F419
:101540008073FB603B681A683B681B791B0213437E
:10155000FA681343FB607B68FA685A607B689B6893
:10156000FB60FA68164B1340FB603B68DA683B6827
:101570009B681A433B685B795B001343FA6813432B
:10158000FB607B68FA689A607B68DB6AFB60FB68DB
:1015900023F47003FB603B681B7C013BDAB2FB7AEF
:1015A0001343FB72FB7A1B05FA681343FB607B68ED
:1015B000FA68DA6200BF1437BD4680BC704700BFCE
:1015C000FDF7F1FF80B483B000AF78600B46FB708D
:1015D000FB78002B06D07B689B6843F001027B6898
:1015E0009A6005E07B689B6823F001027B689A6043
:1015F00000BF0C37BD4680BC704700BF80B483B0CD
:1016000000AF78607B689B6843F008027B689A6053
:1016100000BF0C37BD4680BC704700BF80B485B0AA
:1016200000AF78600023FB737B689B6803F00803BE
:10163000002B02D00123FB7301E00023FB73FB7B33
:1016400018461437BD4680BC704700BF80B483B0D5
:1016500000AF78607B689B6843F004027B689A6007
:1016600000BF0C37BD4680BC704700BF80B485B05A
:1016700000AF78600023FB737B689B6803F0040372
:10168000002B02D00123FB7301E00023FB73FB7BE3
:1016900018461437BD4680BC704700BF80B483B085
:1016A00000AF78600B46FB70FB78002B06D07B68A0
:1016B0009B6843F4A0027B689A6005E07B689B68A6
:1016C00023F4A0027B689A6000BF0C37BD4680BC43
:1016D000704700BF80B485B000AF786008461146FF
:1016E0001A460346FB700B46BB7013467B70002303
:1016F000FB600023BB60FB78092B23D97B68DB6888
:10170000FB60FB78A3F10A0213465B001344072237
:1017100002FA03F3BB60BB68DB43FA681340FB606B
:101720007978FB78A3F10A0213465B00134401FAAF
:1017300003F3BB60FA68BB681343FB607B68FA681D
:10174000DA601EE07B681B69FB60FA7813465B0079
:101750001344072202FA03F3BB60BB68DB43FA6859
:101760001340FB607978FA7813465B00134401FA62
:1017700003F3BB60FA68BB681343FB607B68FA68DD
:101780001A61BB78062B21D87B685B6BFB60BB784A
:101790005A1E13469B0013441F2202FA03F3BB6038
:1017A000BB68DB43FA681340FB60F978BB785A1ECC
:1017B00013469B00134401FA03F3BB60FA68BB684D
:1017C0001343FB607B68FA685A6347E0BB780C2BD5
:1017D00021D87B681B6BFB60BB78DA1F13469B002C
:1017E00013441F2202FA03F3BB60BB68DB43FA68B1
:1017F0001340FB60F978BB78DA1F13469B00134453
:1018000001FA03F3BB60FA68BB681343FB607B68B3
:10181000FA681A6322E07B68DB6AFB60BB78A3F19D
:101820000D0213469B0013441F2202FA03F3BB6010
:10183000BB68DB43FA681340FB60F978BB78A3F11F
:101840000D0213469B00134401FA03F3BB60FA68D0
:10185000BB681343FB607B68FA68DA6200BF143729
:10186000BD4680BC704700BF80B483B000AF7860D5
:101870007B68DB6C9BB218460C37BD4680BC70475A
:1018800080B582B000AF78607B68264A93420AD167
:1018900001214FF48040FFF7CDFD00214FF480403F
:1018A000FFF7C8FD3AE07B681F4A93420AD1012145
:1018B0004FF40030FFF7DCFD00214FF40030FFF75C
:1018C000D7FD2BE07B68194A93420AD101214FF4DE
:1018D0008020FFF7CDFD00214FF48020FFF7C8FDE9
:1018E0001CE07B68124A93420AD101214FF4002088
:1018F000FFF7BEFD00214FF40020FFF7B9FD0DE01A
:101900007B680C4A934209D101214FF48010FFF704
:10191000AFFD00214FF48010FFF7AAFD00BF08378C
:10192000BD4680BD003801400044004000480040F2
:10193000004C00400050004080B58CB000AF786093
:1019400039600023FB620023BB6200237B6200231B
:101950003B620023FB617B68FB617B681B8A9BB257
:10196000FB62FA6A4CF6FF731340FB623B68DB884C
:101970001A46FB6A1343FB62FB6A9AB27B681A82BF
:101980007B689B899BB2FB62FA6A4EF6F3131340A5
:10199000FB623B689A883B681B8913439AB23B6899
:1019A0005B8913439BB21A46FB6A1343FB62FB6AD3
:1019B0009AB27B689A817B689B8A9BB2FB62FA6AC7
:1019C0004FF6FF431340FB623B689B891A46FB6A54
:1019D0001343FB62FB6A9AB27B689A8207F10803A1
:1019E0001846FFF71DFCFB692E4A934202D17B6922
:1019F000BB6201E03B69BB627B689B899BB21BB207
:101A0000002B0CDABA6A13469B0013449A001A445E
:101A10003B681B685B00B2FBF3F37B620BE0BA6AC6
:101A200013469B0013449A001A443B681B689B00B2
:101A3000B2FBF3F37B627B6A1B4AA2FB03235B09C5
:101A40001B01FB62FB6A1B09642202FB03F37A6A37
:101A5000D31A3B627B689B899BB21BB2002B0CDACA
:101A60003B6ADB003233104AA2FB03235B0903F01D
:101A70000703FA6A1343FB620BE03B6A1B01323334
:101A8000094AA2FB03235B0903F00F03FA6A13431D
:101A9000FB62FB6A9AB27B681A8100BF3037BD4691
:101AA00080BD00BF003801401F85EB5180B483B07A
:101AB00000AF78600B46FB70FB78002B08D07B688A
:101AC0009B899BB243F400539AB27B689A8107E0EA
:101AD0007B689B899BB223F400539AB27B689A81FE
:101AE00000BF0C37BD4680BC704700BF80B487B0D4
:101AF00000AF78600B467B8013467B7000233B6110
:101B00000023FB600023BB6000237B617B687B615B
:101B10007B88DBB25B09DBB23B617B8803F01F0390
:101B2000FB600122FB6802FA03F3BB603B69012BF7
:101B300003D17B690C337B6109E03B69022B03D144
:101B40007B6910337B6102E07B6914337B617B78B6
:101B5000002B06D07B697A691168BA680A431A605B
:101B600006E07B697A691168BA68D2430A401A6054
:101B700000BF1C37BD4680BC704700BF80B483B037
:101B800000AF78600B467B8013467B707B78002B20
:101B900008D07B689B8A9AB27B8813439AB27B6891
:101BA0009A8209E07B689B8A9AB27B88DB439BB26E
:101BB00013409AB27B689A8200BF0C37BD4680BC46
:101BC000704700BF80B483B000AF78600B467B8065
:101BD0007B681B8A9BB223F020039AB27B681A822F
:101BE0007B681B8A9AB27B8813439AB27B681A82FD
:101BF00000BF0C37BD4680BC704700BF80B483B0C7
:101C000000AF78607B689B889BB2C3F308039BB2EC
:101C100018460C37BD4680BC704700BF80B483B007
:101C200000AF78600B467B807B88DB439AB27B6891
:101C30001A8000BF0C37BD4680BC704780B500AF2E
:101C400001211F4800F088FD00BF1E491C4800F01C
:101C5000F1FD0346002BF8D000229821184800F02F
:101C6000CBFD00BF1849164800F0E4FD0346002BE9
:101C7000F8D09821124800F0AFFD00BF134910487A
:101C800000F0D8FD0346002BF8D060210C4800F08E
:101C9000A3FD00BF0D490A4800F0CCFD0346002B10
:101CA000F8D00121064800F077FD00BF074904483D
:101CB00000F0C0FD0346002BF8D000BF80BD00BF80
:101CC0000054004001000300820007008400070068
:101CD00080B500AF01211F4800F03EFD00BF1E4946
:101CE0001C4800F0A7FD0346002BF8D000229821E5
:101CF000184800F081FD00BF1849164800F09AFD11
:101D00000346002BF8D09821124800F065FD00BF73
:101D10001349104800F08EFD0346002BF8D07C21BB
:101D20000C4800F059FD00BF0D490A4800F082FD43
:101D30000346002BF8D00121064800F02DFD00BF1E
:101D40000749044800F076FD0346002BF8D000BF99
:101D500080BD00BF00540040010003008200070066
:101D60008400070080B500AF0021064800F042FA69
:101D7000044B17225A600121024800F03BFA00BFD1
:101D800080BD00BF8000024080B500AF0021064842
:101D900000F030FA044B07225A600121024800F09B
:101DA00029FA00BF80BD00BF1C00024080B485B08E
:101DB00000AF78600B46FB700023FB730023BB6011
:101DC00009E0BB687A6813441A78FB7B1344FB7301
:101DD000BB680133BB60FB785A1EBB689A42F0DCDB
:101DE000FB78013B7A6813441B78FA7B9A4201D056
:101DF000002300E0012318461437BD4680BC70471D
:101E000080B400AF064B1B78002B0CBF01230023CE
:101E1000DBB21A46034B1A7000BFBD4680BC704748
:101E2000470000203B00002080B500AF064B052294
:101E30001A70064B00221A7010210548FEF7B0FCFC
:101E4000FFF7FCFE00BF80BD460000203C000020E4
:101E50000008014080B500AF10210348FEF7AEFC3A
:101E6000FFF736FF00BF80BD0008014080B582B09B
:101E700000AF0023FB7100233B6009E00A4A3B6886
:101E800013441A78FB791344FB713B6801333B60C0
:101E90003B68052BF2DD044AFB799371FFF774FF71
:101EA00000BF0837BD4680BD4C00002080B584B01F
:101EB00000AF0721A448FFF779FF0346002B00F08D
:101EC0003E81A14B5B78022B07D09F4B5B78202B88
:101ED00003D09D4B5B78402B02D19C4B1E221A7085
:101EE0009A4B1B78002B1AD0984B1B78013BDAB227
:101EF000964B1A70954B1B78002B10D100F0CEF941
:101F0000934B1B78012B0AD1924B1B78042B01D0E9
:101F1000FFF776FFFFF788FF8D4B00221A708E4B7C
:101F20001B78002B21D08D4B1B78412B1DD8002313
:101F3000FB600BE08A4AFB6813441978824AFB680D
:101F400013440A461A70FB680133FB60FB68062BDA
:101F5000F0DD7D4B20225A70804B1B780133DAB2C2
:101F60007E4B1A70FFF782FFEAE07B4B1B78002B59
:101F700005D0794B00221A70784B42221A70754BAB
:101F80001B78052B40F09E80744B1B78002B03D1EF
:101F9000744B1B78002B21D16B4B5B78402B02D00C
:101FA000704B01221A706D4B1B78013BDAB26B4B00
:101FB0001A700023BB600BE0694ABB6813441978B0
:101FC000614ABB6813440A461A70BB680133BB60A0
:101FD000BB68062BF0DDFFF749FFB1E05A4B5B7899
:101FE000402B03D0584B5B78202B01D1FFF732FFF9
:101FF000554B5B78022B07D05B4B1B78962B0CD98B
:10200000594B1B78B32B08D84FF400415748FEF7C3
:10201000C7FB4D4B00225A7047E04B4B9B78012B7E
:1020200005D14FF480415148FEF7BAFB3DE0464BE5
:102030009B78022B05D14FF400514C48FEF7B0FBC2
:1020400033E04B48FFF710FC03461A46494BA3FB0D
:1020500002235B099BB2FB71FB79083B052B1ED861
:1020600001A252F823F000BF81200008812000085F
:10207000872000088720000893200008932000088C
:10208000FFF7E8FE11E04FF400513848FEF788FBF7
:102090000BE04FF480413548FEF782FB05E04FF43A
:1020A00060413248FEF78AFB00BF2F4B1B78F92BAB
:1020B00005D82D4B1B780133DAB22B4B1A70FFF782
:1020C000D5FE3DE0234B1B78052B39D01E4B5B78AA
:1020D000402B1DD11C4B00225A70224B00221A703B
:1020E0001E4B1B780133DAB21C4B1A701B4B1B784A
:1020F000422B0AD9194B00221A70164B1B78042B5D
:1021000001D0FFF77DFEFFF78FFEFFF7AFFE17E070
:10211000124B1B78002B0FD00F4B1B78002B0BD1D1
:10212000104B01221A70084B40225A700B4B1B783F
:10213000013BDAB2094B1A70FFF798FE00E000BFCE
:102140001037BD4680BD00BF4C00002014000020A9
:1021500044000020460000203B0000203A00002000
:10216000180000201F0000203C000020001001404B
:10217000002401401F85EB5180B485B000AF78602A
:1021800039600023FB607B681B68FB60FB6823F4FD
:10219000FF4323F07003FB603B689A683B681B6A4F
:1021A0001A433B681B691A433B685B691A433B68E7
:1021B0009B691A433B68DB691A433B685B6A1A43B5
:1021C0003B689B6A1343FA681343FB607B68FA68B9
:1021D0001A603B68DA687B685A603B681A687B68FB
:1021E0009A603B685A687B68DA6000BF1437BD4666
:1021F00080BC704780B483B000AF78600B46FB7042
:10220000FB78002B06D07B681B6843F001027B68DB
:102210001A6006E07B681A684FF6FE7313407A680E
:10222000136000BF0C37BD4680BC704780B485B0DA
:1022300000AFF860B9601346FB71FB79002B06D044
:10224000FB681A68BB681A43FB681A6006E0FB6803
:102250001A68BB68DB431A40FB681A6000BF14377A
:10226000BD4680BC704700BF80B483B000AF7860CB
:102270007B6803F08053002B03D0064A7B685360D1
:1022800002E0054A7B68536000BF0C37BD4680BC46
:10229000704700BF000402400000024080B500AF5C
:1022A00010212048FEF762FA0346002B38D11E4B5E
:1022B0001B7C03F01003002B03D01C4B00221A7070
:1022C0002FE0194B5B7C03F00103002B03D0174B6D
:1022D00001221A7025E0144BDB78572B0FD1124BDB
:1022E0009B784D2B03D1114B02221A7019E00E4B33
:1022F0009B784C2B03D10D4B03221A7011E00A4B33
:102300009B79412B0DD1084BDB79552B09D1064B1D
:102310001B7A582B05D1054B04221A7000BF00E030
:1023200000BF80BD000801406C0000204600002076
:1023300080B582B000AF17214E48FFF737FD034646
:10234000002B00F092800023FB7108E0FB79FA7902
:102350004849895C484AD154FB790133FB71FB79C8
:10236000162BF3D9444B1B7C002B06D0424BDB7A57
:10237000272B02D1404B3A22DA723E4B9B79412BFC
:1023800009D13C4BDB79552B05D13A4B1B7A582BA5
:1023900001D1012300E00023DAB2384B1A70384B28
:1023A0001B78052B27D1354B1B78002B23D0324BC4
:1023B00086229A70304B2022DA702F4B42221A71FB
:1023C0002D4B4C225A712C4B55229A712A4B452287
:1023D000DA71294B54221A72274B4F225A72264B1C
:1023E0004F229A72244B5422DA72234B48221A73DA
:1023F000214B20225A7300233B6017E0214B1B68BE
:102400001D2B09DC204A3B68134419781A4A3B68A3
:1024100013440A461A7006E03B68012B02DD3B6854
:102420000D2B00E000BF3B6801333B603B68162B7F
:10243000E4DD114B1B78402B0FD1124B00221A60A8
:102440000F4B1B78052B04D1104B01221A70FFF79C
:1024500001FD0B4B07221A7004E00A4B1B68013385
:10246000084A136000F014F800E000BF0837BD46CA
:1024700080BD00BF6C0000205400002047000020F9
:1024800046000020400000202000002044000020E2
:1024900080B582B000AF0023FB7100233B6009E0F0
:1024A0000A4A3B6813441A78FB791344FB713B6872
:1024B00001333B603B68152BF2DD044AFB799375D1
:1024C000FFF750FC00BF0837BD4680BD5400002018
:1024D00080B487B000AF786000237B6100233B614C
:1024E0000F23FB607B68DB78002B3AD0274BDB683F
:1024F000DB4303F4E0631B0A7B617B69C3F10403E4
:102500003B61FA687B6922FA03F3FB607B685B78C6
:102510001A463B6902FA03F37B617B689B781A4693
:10252000FB6813407A6913437B617B691B017B6104
:10253000174A7B681B787969C9B213440A4683F845
:102540000023134A7B681B785B09DBB218467B6863
:102550001B7803F01F03012101FA03F342F8203036
:102560000FE00B497B681B785B09DBB218467B6880
:102570001B7803F01F0301229A4000F1200341F869
:10258000232000BF1C37BD4680BC704700ED00E033
:1025900000E100E080B58AB000AF786039600023C8
:1025A000FB8400237B840423BB84574BFB617B6843
:1025B0009B88FB84FB8C23F03F03FB8407F108031B
:1025C0001846FEF72DFE3B69FB61FB694F4AA2FBF3
:1025D00003239B0C7B84FA8C7B8C1343FB847B68EA
:1025E000FA8C9A807B681B889BB223F001039AB215
:1025F0007B681A800023FB843B681B68444A934233
:1026000015D83B681B685B00FA69B2FBF3F3BB8427
:10261000BB8C032B01D80423BB84FA8CBB8C1343E3
:10262000FB847B8C01339AB27B681A8440E03B6860
:10263000DB884BF6FF72934209D13B681A68134658
:102640005B001344FA69B2FBF3F3BB840EE03B6812
:102650001A6813469B0013449A001344FA69B2FBAC
:10266000F3F3BB84BB8C43F48043BB84BB8CC3F3C8
:102670000B03002B03D1BB8C43F00103BB84BA8C4A
:10268000FB8C13439BB26FEA43436FEA5343FB84D3
:102690007B8C4FF4967202FB03F31E4A82FB0312FB
:1026A0009211DB17D31A9BB201339AB27B681A845A
:1026B0007B68FA8C9A837B681B889BB243F001038A
:1026C0009AB27B681A807B681B88FB84FB8C23F49E
:1026D000816323F00203FB843B689A883B685B8933
:1026E00013439AB2FB8C1343FB847B68FA8C1A80E9
:1026F0003B689A893B681B8913439AB27B681A81AD
:1027000000BF2837BD4680BD00127A0083DE1B4320
:10271000A0860100D34D621080B483B000AF786012
:102720000B46FB70FB78002B08D07B681B889BB2A4
:1027300043F001039AB27B681A8007E07B681B882C
:102740009BB223F001039AB27B681A8000BF0C375A
:10275000BD4680BC704700BF80B483B000AF7860D6
:102760000B46FB70FB78002B08D07B681B889BB264
:1027700043F480739AB27B681A8007E07B681B88F9
:102780009BB223F480739AB27B681A8000BF0C3727
:10279000BD4680BC704700BF80B483B000AF786096
:1027A0000B46FB70FB78002B08D07B681B889BB224
:1027B00043F400739AB27B681A8007E07B681B8839
:1027C0009BB223F400739AB27B681A8000BF0C3767
:1027D000BD4680BC704700BF80B483B000AF786056
:1027E0000B46FB70FB789AB27B681A8200BF0C37ED
:1027F000BD4680BC704700BF80B483B000AF786036
:102800000B46FB701346BB70BB78002B04D0FB78E3
:1028100043F00103FB7003E0FB7823F00103FB703E
:10282000FB789AB27B681A8200BF0C37BD4680BC29
:10283000704700BF80B487B000AF78603960002374
:102840003B610023FB600023BB600023FB757B68BA
:102850009B8A9BB2FB607B681B8B9BB2BB60BB6897
:102860001B04BB60FA68BB68134323F07F433B61E2
:102870003A693B681A403B689A4202D10123FB75D2
:1028800001E00023FB75FB7D18461C37BD4680BC6C
:04289000704700BFCE
:102894000000000001020304010203040607080902
:1028A400020406081E00000041000000300071010F
:1028B40021FE2D4D4954535542495348492DFFFF9C
:0828C4000000000000009D006F
:0400000508000000EF
:00000001FF
