:020000040800F2
:1000000088040020A9040008090500080905000863
:10001000090500080905000809050008000000009E
:1000200000000000000000000000000009050008BA
:10003000090500080000000009050008090500087E
:100040000905000809050008090500080905000858
:100050000905000809050008090500080905000848
:100060000905000809050008090500080905000838
:10007000990C000809050008090500080905000891
:10008000090500087D0C000809050008090500089D
:100090000905000809050008090500080905000808
:1000A00009050008090500080905000809050008F8
:1000B000D50B0008310C00080905000809050008E7
:1000C00009050008090500080905000809050008D8
:1000D0000905000809050008FD0A0008790B000859
:1000E00009050008090500080905000800000000CE
:1000F0000000000000000000000000000000000000
:1001000000000000000000005FF808F180B485B036
:1001100000AF786039600023FB817B681B88FB811E
:100120007B682E4A934213D07B682D4A93420FD0AE
:100130007B68B3F1804F0BD07B682A4A934207D08B
:100140007B68294A934203D07B68284A934208D1AE
:10015000FB8923F07003FB813B685A88FB891343BA
:10016000FB817B68224A93420CD07B68214A9342F0
:1001700008D0FB8923F44073FB813B68DA88FB8954
:100180001343FB817B68FA891A803B689A887B68F5
:100190009A853B681A887B681A857B680F4A934268
:1001A0000FD07B680E4A93420BD07B68124A934271
:1001B00007D07B68114A934203D07B68104A934270
:1001C00004D13B681B7A9AB27B681A867B6801224D
:1001D0009A8200BF1437BD4680BC7047002C014096
:1001E000003401400004004000080040000C0040C2
:1001F0000010004000140040004001400044014055
:100200000048014080B483B000AF78607B684FF64F
:10021000FF729A807B6800221A807B680022DA8055
:100220007B6800225A807B6800221A7200BF0C375C
:10023000BD4680BC704700BF80B483B000AF78601B
:100240000B46FB70FB78002B08D07B681B889BB2A9
:1002500043F001039AB27B681A8007E07B681B8831
:100260009BB223F001039AB27B681A8000BF0C375F
:10027000BD4680BC704700BF80B483B000AF7860DB
:100280000B467B8013467B707B78002B08D07B6805
:100290009B899AB27B8813439AB27B689A8109E062
:1002A0007B689B899AB27B88DB439BB213409AB2EE
:1002B0007B689A8100BF0C37BD4680BC704700BF89
:1002C00080B485B000AF78600B467B800023FB7361
:1002D0000023BB8100237B817B681B8A9AB27B88C9
:1002E0001340BB817B689B899AB27B8813407B81DA
:1002F000BB89002B05D07B89002B02D00123FB7327
:1003000001E00023FB73FB7B18461437BD4680BC1D
:10031000704700BF80B483B000AF78600B467B802D
:100320007B88DB439AB27B681A8200BF0C37BD46DC
:1003300080BC704780B500AF154A154B1B6843F071
:10034000010313601249124B5A68124B13404B6061
:100350000F4A0F4B1B6823F0847323F48033136020
:100360000B4A0B4B1B6823F480231360084A084B8D
:100370005B6823F4FE035360054B4FF41F029A6041
:1003800000F00CF8044B4FF000629A6000BF80BD93
:10039000001002400000FFF800ED00E080B500AF63
:1003A00000F002F800BF80BD80B483B000AF00232E
:1003B0007B6000233B603A4A394B1B6843F480332F
:1003C0001360374B1B6803F400333B607B680133D9
:1003D0007B603B68002B03D17B68B3F5A06FF0D145
:1003E0002F4B1B6803F40033002B02D001233B602A
:1003F00001E000233B603B68012B4BD1294A294B8C
:100400001B6843F010031360264A264B1B6823F039
:1004100003031360234A234B1B6843F0020313605A
:100420001F4A1F4B5B6853601D4A1D4B5B6853603E
:100430001B4A1B4B5B6843F480635360184A184B9C
:100440005B6823F47C135360154A154B5B6843F4D7
:10045000E8135360124A124B1B6843F08073136019
:1004600000BF0F4B1B6803F00073002BF9D00C4A40
:100470000B4B5B6823F003035360094A084B5B682E
:1004800043F00203536000BF054B5B6803F00C03AD
:10049000082BF9D100BF0C37BD4680BC704700BFA8
:1004A000001002400020024080B582B000AF114B26
:1004B0007B60114B3B6007E03B681A1D3A607A682D
:1004C000111D796012681A603B680C4A9342F3D39D
:1004D0000B480C494FF000028842B8BF40F8042B8B
:1004E000FADBFFF727FF00F01DFC00BF0837BD4611
:1004F00080BD00BFC41E000800000020380000209E
:10050000380000208800002080B400AFFEE700BF64
:1005100080B582B000AF78607B682F4A934208D1E3
:100520000121042000F048FE0021042000F044FED8
:100530004EE07B68294A934208D10121082000F04F
:100540003BFE0021082000F037FE41E07B68244A92
:10055000934208D10121102000F02EFE002110202E
:1005600000F02AFE34E07B681E4A934208D1012144
:10057000202000F021FE0021202000F01DFE27E0B9
:100580007B68194A934208D10121402000F014FEF3
:100590000021402000F010FE1AE07B68134A9342CD
:1005A00008D10121802000F007FE0021802000F00A
:1005B00003FE0DE07B680E4A934209D101214FF4FE
:1005C000807000F0F9FD00214FF4807000F0F4FD20
:1005D00000BF0837BD4680BD00080140000C014047
:1005E000001001400014014000180140001C0140AF
:1005F0000020014080B489B000AF786039600023EA
:10060000FB6100233B610023BB610023FB600023EF
:100610007B610023BB603B68DB7803F00F03FB6169
:100620003B68DB7803F01003002B05D03B689B7818
:100630001A46FB691343FB613B681B88DBB2002B46
:1006400044D07B681B687B610023BB6138E00122DA
:10065000BB6902FA03F3FB603B681B881A46FB6820
:1006600013403B613A69FB689A4226D1BB699B0003
:10067000FB600F22FB6802FA03F3BB60BB68DB433D
:100680007A6913407B61FA69FB6802FA03F37A69BD
:1006900013437B613B68DB78282B05D10122BB69C2
:1006A0009A407B685A6108E03B68DB78482B04D1AC
:1006B0000122BB699A407B681A61BB690133BB6147
:1006C000BB69072BC3D97B687A691A603B681B88B2
:1006D000FF2B46D97B685B687B610023BB613AE0F6
:1006E000BB690833012202FA03F3FB603B681B88F5
:1006F0001A46FB6813403B613A69FB689A4227D16E
:10070000BB699B00FB600F22FB6802FA03F3BB602E
:10071000BB68DB437A6913407B61FA69FB6802FAC4
:1007200003F37A6913437B613B68DB78282B05D19F
:10073000BB69083301229A407B685A613B68DB78C9
:10074000482B05D1BB69083301229A407B681A61A6
:10075000BB690133BB61BB69072BC1D97B687A696F
:100760005A6000BF2437BD4680BC704780B483B058
:1007700000AF78600B467B807A887B685A6100BF47
:100780000C37BD4680BC704780B483B000AF0346D1
:10079000FB71084997F907305B09FA7902F01F02EB
:1007A000012000FA02F241F8232000BF0C37BD46B9
:1007B00080BC704700E100E080B594B000AF01213B
:1007C0004FF4003000F0DAFC0121042000F0B8FC06
:1007D0000423A7F84C30032387F84E30182387F8FA
:1007E0004F3007F14C0319469E48FFF703FF0823DB
:1007F000A7F84C30042387F84F3007F14C03194613
:100800009848FFF7F7FE4FF46153FB634FF48053B2
:10081000A7F840304FF40053A7F842304FF48063FC
:10082000A7F844300023A7F848300C23A7F8463037
:1008300007F13C0319468C4800F090FD01218A48DD
:1008400000F046FE262387F83830002387F8393039
:10085000002387F83A30012387F83B3007F138034B
:10086000184601F0CDFA012240F225517E4800F0F1
:100870004FFE012260217C4800F04AFE01214FF426
:10088000802000F07BFC0121082000F059FC4FF48F
:100890008063A7F84C30032387F84E30182387F87D
:1008A0004F3007F14C0319467048FFF7A3FE4FF491
:1008B0000063A7F84C30042387F84F3007F14C034E
:1008C00019466A48FFF796FE07F13C031946684847
:1008D00000F044FD0121664800F0FAFD272387F867
:1008E0003830002387F83930002387F83A30012365
:1008F00087F83B3007F13803184601F081FA0122EE
:1009000040F225515A4800F003FE0121012000F079
:1009100035FC07F12C031846FFF774FC0023FB8518
:100920004FF4E153BB854FF496733B8607F12C03DC
:1009300019464FF08040FFF7E9FB012201214FF0FB
:100940008040FFF799FC01214FF08040FFF774FCD5
:100950001C2387F83830002387F83930002387F8C4
:100960003A30012387F83B3007F13803184601F08D
:1009700047FA0121022000F001FC07F12C03184680
:10098000FFF740FC0023FB854FF4E153BB85642354
:100990003B8607F12C0319463648FFF7B7FB0122C7
:1009A00001213448FFF768FC01213248FFF744FC7D
:1009B0001D2387F83830002387F83930002387F863
:1009C0003A30012387F83B3007F13803184601F02D
:1009D00017FA0121012000F095FB274B3B60274BC4
:1009E0007B601023BB601723FB6000233B618023E7
:1009F0007B610023BB610023FB6100233B6200237A
:100A00007B620023BB623B4619461D4800F052FF43
:100A100001228021144800F0C3FD01220221184860
:100A200000F0A2FF1120FFF7AFFE164B3B60164B04
:100A30007B600723FB603B461946144800F03AFFF1
:100A4000012280210A4800F0ABFD012202210F485B
:100A500000F08AFF0C20FFF797FE00BF5037BD461D
:100A600080BD00BF0008014000440040000C014070
:100A70000048004000040040044400407000002092
:100A80008000024004480040480000201C00024052
:100A900080B582B000AF1448FFF73AFD1348FFF766
:100AA00037FD134800F0FEFB124800F0FBFB042367
:100AB0003B801023FB700323BB703B4619460A485A
:100AC000FFF798FD04210848FFF750FE00237B60E4
:100AD00002E07B6801337B607B68074A9342F8D968
:100AE00000BF0837BD4680BD00080140000C014032
:100AF00000440040004800403F420F0098B500AF5E
:100B0000194B1B889BB203F00703002B0AD0174B2D
:100B100001221A70144800F067FDFFF7B9FFFFF7D4
:100B20004BFE1FE0104B1B889BB203F02003002BF1
:100B300018D00F4B1B78162B14D80D4B1B785A1C52
:100B4000D1B20B4A11701C46074800F04DFD034618
:100B5000DAB2084B1A554FF0804300229A84034BB7
:100B600001221A7000BF98BD0044004038000020E8
:100B7000460000205800002098B500AF104B1B889D
:100B80009BB203F02003002B17D00E4B1B78162BC3
:100B900013D80C4B1B785A1CD1B20A4A11701C4650
:100BA000074800F021FD0346DAB2074B1A55074B00
:100BB00000229A84064B01221A7000BF98BD00BF24
:100BC0000048004044000020500000200004004085
:100BD0003900002080B500AF01214FF08040FFF7C1
:100BE0006FFB0346002B19D001214FF08040FFF727
:100BF00091FB0B4B1B78002B10D00A4A094BDB688A
:100C000083F40053D36000F0E7FE074800F0ECFCEB
:100C1000034B00221A70054B00221A7000BF80BDE2
:100C20003800002000100140004400404600002031
:100C300080B500AF01210D48FFF742FB0346002BB2
:100C400012D001210948FFF765FB094B1B78002BE7
:100C50000AD000F03FFD074800F0C6FC044B00221C
:100C60001A70054B00221A7000BF80BD00040040BE
:100C700039000020004800404400002080B500AF4B
:100C80004FF0007000F08EFE0021024800F050FE90
:100C900000BF80BD8000024080B500AF202000F082
:100CA00081FE0021024800F043FE00BF80BD00BF6E
:100CB0001C00024080B500AF00F050F84FF48030C7
:100CC00000F07AF800BF312000F0B2FA0346002BA2
:100CD000F9D0002000F0F6F8002000F02BF94FF4D6
:100CE000806000F00BF94FF4804000F03FF94FF4C2
:100CF000E0114FF4803000F08DF8012000F0A8F8EA
:100D000000BF392000F094FA0346002BF9D00220EE
:100D100000F0AEF800BF00F0C7F80346082BFAD188
:100D200000BF80BD80B582B000AFFFF7C3FFFFF703
:100D3000AFFEFFF741FD0121102000F001FA4FF452
:100D40000053BB801023FB710323BB713B1D19466D
:100D50000148FFF74FFCFEE70010014080B400AFF0
:100D6000134A134B1B6843F0010313601049104BE7
:100D70005A68104B13404B600D4A0D4B1B6823F013
:100D8000847323F480331360094A094B1B6823F4EE
:100D900080231360064A064B5B6823F4FE0353600E
:100DA000034B4FF41F029A6000BFBD4680BC7047E2
:100DB000001002400000FFF880B483B000AF7860FC
:100DC000134A134B1B6823F480331360104A104BF3
:100DD0001B6823F4802313607B68B3F5803F03D046
:100DE000B3F5802F07D00DE0094A094B1B6843F487
:100DF0008033136006E0064A054B1B6843F4A023CA
:100E0000136000BF00BF0C37BD4680BC704700BFF9
:100E10000010024080B485B000AF786039600023D4
:100E2000FB600A4B5B68FB60FB6823F47C13FB6090
:100E30007A683B681343FA681343FB60034AFB6814
:100E4000536000BF1437BD4680BC7047001002409D
:100E500080B483B000AF0346FB71044AFB79136092
:100E600000BF0C37BD4680BC704700BF60004242E7
:100E700080B485B000AF78600023FB60094B5B68ED
:100E8000FB60FB6823F00303FB60FA687B68134395
:100E9000FB60044AFB68536000BF1437BD4680BC4A
:100EA000704700BF0010024080B400AF044B5B6885
:100EB000DBB203F00C03DBB21846BD4680BC7047C2
:100EC0000010024080B485B000AF78600023FB6062
:100ED000094B5B68FB60FB6823F0F003FB60FA687A
:100EE0007B681343FB60044AFB68536000BF143700
:100EF000BD4680BC704700BF0010024080B485B082
:100F000000AF78600023FB60094B5B68FB60FB6807
:100F100023F4E063FB60FA687B681343FB60044AD8
:100F2000FB68536000BF1437BD4680BC704700BFEC
:100F30000010024080B485B000AF78600023FB60F1
:100F4000094B5B68FB60FB6823F46053FB607B68C4
:100F5000DB00FA681343FB60034AFB68536000BF81
:100F60001437BD4680BC70470010024080B485B085
:100F700000AF78600023FB60094B5B68FB60FB6897
:100F800023F44043FB60FA687B681343FB60044A28
:100F9000FB68536000BF1437BD4680BC704700BF7C
:100FA0000010024080B487B000AF786000237B61FE
:100FB00000233B610023FB600023BB604C4B5B685C
:100FC00003F00C037B617B69042B07D0082B09D04D
:100FD000002B33D17B68474A1A6033E07B68454A6F
:100FE0001A602FE0424B5B6803F470133B61404B87
:100FF0005B6803F48033FB603B699B0C02333B610D
:10100000FB68002B06D13B693B4A02FB03F27B687D
:101010001A6017E0364B5B6803F40033002B06D0F0
:101020003B69354A02FB03F27B681A600AE03B69C0
:10103000304A02FB03F27B681A6003E07B682D4AAA
:101040001A6000BF2A4B5B6803F0F0037B617B6989
:101050001B097B61294A7B6913441B78DBB2BB60A7
:101060007B681A68BB68DA407B685A60204B5B6813
:1010700003F4E0637B617B691B0A7B611F4A7B6928
:1010800013441B78DBB2BB607B685A68BB68DA40EC
:101090007B689A60164B5B6803F460537B617B69E5
:1010A000DB0A7B61154A7B6913441B78DBB2BB60AA
:1010B0007B685A68BB68DA407B68DA600C4B5B6817
:1010C00003F440437B617B699B0B7B610C4A7B692A
:1010D00013441B78DBB2BB607B68DA68BB68B2FB89
:1010E000F3F27B681A6100BF1C37BD4680BC7047B5
:1010F0000010024000127A0000093D0000000020AC
:101100001000002080B483B000AF78600B46FB7005
:10111000FB78002B06D00949084B5A697B681343BA
:101120004B6106E00549054B5A697B68DB43134078
:101130004B6100BF0C37BD4680BC704700100240B9
:1011400080B483B000AF78600B46FB70FB78002B57
:1011500006D00949084B9A697B6813438B6106E006
:101160000549054B9A697B68DB4313408B6100BFDF
:101170000C37BD4680BC70470010024080B483B07D
:1011800000AF78600B46FB70FB78002B06D0094956
:10119000084BDA697B681343CB6106E00549054BD0
:1011A000DA697B68DB431340CB6100BF0C37BD4677
:1011B00080BC70470010024080B483B000AF7860FC
:1011C0000B46FB70FB78002B06D00949084BDA6808
:1011D0007B681343CB6006E00549054BDA687B6802
:1011E000DB431340CB6000BF0C37BD4680BC70476B
:1011F0000010024080B483B000AF78600B46FB70F3
:10120000FB78002B06D00949084B1A697B68134309
:101210000B6106E00549054B1A697B68DB43134007
:101220000B6100BF0C37BD4680BC70470010024008
:1012300080B487B000AF0346FB710023FB6000233E
:101240007B610023FB74FB795B09DBB2FB60FB680D
:10125000012B03D1124B1B687B6109E0FB68022B59
:1012600003D10F4B1B6A7B6102E00D4B5B6A7B6114
:10127000FB7903F01F03FB607A69FB6822FA03F332
:1012800003F00103002B02D00123FB7401E00023D3
:10129000FB74FB7C18461C37BD4680BC704700BF02
:1012A0000010024080B582B000AF78607B68264AAB
:1012B00093420AD101214FF48040FFF77DFF0021C6
:1012C0004FF48040FFF778FF3AE07B681F4A934273
:1012D0000AD101214FF40030FFF78CFF00214FF4B9
:1012E0000030FFF787FF2BE07B68194A93420AD151
:1012F00001214FF48020FFF77DFF00214FF4802073
:10130000FFF778FF1CE07B68124A93420AD1012163
:101310004FF40020FFF76EFF00214FF40020FFF78D
:1013200069FF0DE07B680C4A934209D101214FF41B
:101330008010FFF75FFF00214FF48010FFF75AFF86
:1013400000BF0837BD4680BD003801400044004062
:1013500000480040004C00400050004080B58CB078
:1013600000AF786039600023FB620023BB6200237A
:101370007B6200233B620023FB617B68FB617B682F
:101380001B8A9BB2FB62FA6A4CF6FF731340FB6246
:101390003B68DB881A46FB6A1343FB62FB6A9AB21E
:1013A0007B681A827B689B899BB2FB62FA6A4EF665
:1013B000F3131340FB623B689A883B681B89134315
:1013C0009AB23B685B8913439BB21A46FB6A13438C
:1013D000FB62FB6A9AB27B689A817B689B8A9BB2AC
:1013E000FB62FA6A4FF6FF431340FB623B689B893E
:1013F0001A46FB6A1343FB62FB6A9AB27B689A82C5
:1014000007F108031846FFF7CDFDFB692E4A93420A
:1014100002D17B69BB6201E03B69BB627B689B894F
:101420009BB21BB2002B0CDABA6A13469B00134422
:101430009A001A443B681B685B00B2FBF3F37B62C3
:101440000BE0BA6A13469B0013449A001A443B68A7
:101450001B689B00B2FBF3F37B627B6A1B4AA2FB17
:1014600003235B091B01FB62FB6A1B09642202FB6D
:1014700003F37A6AD31A3B627B689B899BB21BB2E7
:10148000002B0CDA3B6ADB003233104AA2FB032349
:101490005B0903F00703FA6A1343FB620BE03B6A44
:1014A0001B013233094AA2FB03235B0903F00F033C
:1014B000FA6A1343FB62FB6A9AB27B681A8100BF27
:1014C0003037BD4680BD00BF003801401F85EB515D
:1014D00080B483B000AF78600B46FB70FB78002BC4
:1014E00008D07B689B899BB243F400539AB27B6817
:1014F0009A8107E07B689B899BB223F400539AB2E0
:101500007B689A8100BF0C37BD4680BC704700BF26
:1015100080B487B000AF78600B467B8013467B7049
:1015200000233B610023FB600023BB6000237B6141
:101530007B687B617B88DBB25B09DBB23B617B88CC
:1015400003F01F03FB600122FB6802FA03F3BB6098
:101550003B69012B03D17B690C337B6109E03B695B
:10156000022B03D17B6910337B6102E07B6914336A
:101570007B617B78002B06D07B697A691168BA6839
:101580000A431A6006E07B697A691168BA68D24337
:101590000A401A6000BF1C37BD4680BC704700BFC0
:1015A00080B483B000AF78600B467B8013467B70BD
:1015B0007B78002B08D07B689B8A9AB27B88134388
:1015C0009AB27B689A8209E07B689B8A9AB27B8890
:1015D000DB439BB213409AB27B689A8200BF0C3700
:1015E000BD4680BC704700BF80B483B000AF786058
:1015F0007B689B889BB2C3F308039BB218460C37E9
:10160000BD4680BC704700BF80B500AF00210648D2
:1016100000F08EF9044B17225A600121024800F0B5
:1016200087F900BF80BD00BF8000024080B500AFD9
:101630000021064800F07CF9044B07225A60012182
:10164000024800F075F900BF80BD00BF1C000240D9
:1016500080B485B000AF78600B46FB700023FB734D
:101660000023BB6009E0BB687A6813441A78FB7BEF
:101670001344FB73BB680133BB60FB785A1EBB6825
:101680009A42F0DCFB78013B7A6813441B78FA7BC2
:101690009A4201D0002300E0012318461437BD46CA
:1016A00080BC704780B400AF034B01221A7000BFAA
:1016B000BD4680BC704700BF3B00002080B400AF37
:1016C000034B01221A7000BFBD4680BC704700BFAB
:1016D0004500002080B584B000AF07215F48FFF7C8
:1016E000B7FF0346002B00F0B4805D4B1B78002B46
:1016F00021D05C4B1B78412B1DD80023FB600BE0F5
:10170000594AFB6813441978584AFB6813440A463F
:101710001A70FB680133FB60FB68062BF0DD534B4E
:1017200020225A704F4B1B780133DAB24D4B1A709E
:1017300000F0A0F88EE04A4B1B78002B05D0484BF8
:1017400000221A70474B42221A70494B1B78012B1A
:101750003ED1444B1B78002B1AD0424B1B78013BE7
:10176000DAB2404B1A700023BB600BE03E4ABB6804
:10177000134419783D4ABB6813440A461A70BB6883
:101780000133BB60BB68062BF0DD00F073F861E04D
:1017900000237B600BE0314A7B6813441978334A9D
:1017A0007B6813440A461A707B6801337B607B6850
:1017B000062BF0DD2D4B5B78402B03D02B4B5B7859
:1017C000202B02D12A4B00221A7000F053F841E07E
:1017D000274B1B78002B3DD100233B600BE01F4AB9
:1017E0003B6813441978214A3B6813440A461A702F
:1017F0003B6801333B603B68062BF0DD174B5B78A1
:10180000402B16D1194B00225A70164B1B7801330E
:10181000DAB2144B1A70134B1B78422B06D9114BBA
:1018200000221A70FFF73EFFFFF748FF00F022F892
:1018300010E00C4B1B78002B08D00C4B40225A7048
:10184000084B1B78013BDAB2064B1A7000F012F815
:1018500000E000BF1037BD4680BD00BF5000002033
:101860003B0000203A000020140000204800002027
:101870004500002080B582B000AF0023FB7100233B
:101880003B6009E00A4A3B6813441A78FB79134429
:10189000FB713B6801333B603B68052BF2DD044A7A
:1018A000FB799371FFF7C2FE00BF0837BD4680BDCC
:1018B0004800002080B485B000AF78603960002314
:1018C000FB607B681B68FB60FB6823F4FF4323F02D
:1018D0007003FB603B689A683B681B6A1A433B686D
:1018E0001B691A433B685B691A433B689B691A434F
:1018F0003B68DB691A433B685B6A1A433B689B6A37
:101900001343FA681343FB607B68FA681A603B680C
:10191000DA687B685A603B681A687B689A603B6843
:101920005A687B68DA6000BF1437BD4680BC7047D8
:1019300080B483B000AF78600B46FB70FB78002B5F
:1019400006D07B681B6843F001027B681A6006E0E2
:101950007B681A684FF6FE7313407A68136000BF05
:101960000C37BD4680BC704780B485B000AFF860CE
:10197000B9601346FB71FB79002B06D0FB681A682F
:10198000BB681A43FB681A6006E0FB681A68BB680C
:10199000DB431A40FB681A6000BF1437BD4680BCA9
:1019A000704700BF80B483B000AF78607B6803F0FD
:1019B0008053002B03D0064A7B68536002E0054A3F
:1019C0007B68536000BF0C37BD4680BC704700BFCA
:1019D000000402400000024080B582B000AF172131
:1019E0004148FFF735FE0346002B78D000237B608B
:1019F0002EE03E4B1B681D2B09DC3D4A7B681344DF
:101A000019783C4A7B6813440A461A701DE07B68CB
:101A1000012B02DD7B680D2B09DD334A7B68134403
:101A20001978344A7B6813440A461A700DE02E4A2E
:101A30007B6813441B78184600F080F8034619466B
:101A40002C4A7B6813440A461A707B6801337B601A
:101A50007B68162BCDDD274B1B78402B03D1234B06
:101A600000221A6004E0214B1B6801331F4A1360F7
:101A7000214B1B78012B2FD11E4B9B79412B2BD156
:101A80001C4BDB79552B27D11A4B1B7A582B23D1B2
:101A9000184B86229A70174B2022DA70154B42227F
:101AA0001A71144B4C225A71124B55229A71114BD8
:101AB0004522DA710F4B54221A720E4B4F225A7282
:101AC0000C4B4F229A720B4B5422DA72094B48226C
:101AD0001A73084B20225A7300F010F800E000BF80
:101AE0000837BD4680BD00BF580000203C000020E4
:101AF0001C000020700000204500002080B582B04E
:101B000000AF0023FB7100233B6009E00A4A3B68F9
:101B100013441A78FB791344FB713B6801333B6033
:101B20003B68152BF2DD044AFB799375FFF76CFDDA
:101B300000BF0837BD4680BD7000002080B485B06E
:101B400000AF0346FB71FB79BF2B01D8FB7952E153
:101B5000FB79203BC03B1F2B00F2A48001A252F86E
:101B600023F000BFE51B0008EB1B0008F11B000879
:101B7000F71B0008FD1B0008031C0008091C0008D7
:101B80000F1C0008151C00081B1C0008211C000865
:101B9000271C00082D1C0008331C0008391C0008F5
:101BA0003F1C0008451C00084B1C0008511C000885
:101BB000571C00085D1C0008631C0008691C000815
:101BC0006F1C0008751C00087B1C0008811C0008A5
:101BD000871C00088D1C0008931C0008991C000835
:101BE0009F1C00084123FB735CE04223FB7359E018
:101BF0005623FB7356E04723FB7353E04423FB73E8
:101C000050E04523FB734DE05A23FB734AE05A230F
:101C1000FB7347E04923FB7344E04923FB7341E036
:101C20004B23FB733EE04C23FB733BE04D23FB73E4
:101C300038E04E23FB7335E04F23FB7332E0502333
:101C4000FB732FE05223FB732CE05323FB7329E03B
:101C50005423FB7326E05523FB7323E04623FB73D9
:101C600020E04823FB731DE04323FB731AE0342379
:101C7000FB7317E05723FB7314E05723FB7311E04A
:101C80006223FB730EE04923FB730BE06223FB73BB
:101C900008E04523FB7305E05523FB7302E0412375
:101CA000FB7300BFFB79C03B1F2B00F2A38001A296
:101CB00052F823F0351D00083B1D0008411D0008A7
:101CC000471D00084D1D0008531D0008591D000840
:101CD0005F1D0008651D00086B1D0008711D0008D0
:101CE000771D00087D1D0008831D0008891D000860
:101CF0008F1D0008951D00089B1D0008A11D0008F0
:101D0000A71D0008AD1D0008B31D0008B91D00087F
:101D1000BF1D0008C51D0008CB1D0008D11D00080F
:101D2000D71D0008DD1D0008E31D0008E91D00089F
:101D3000EF1D00084123FB735CE04223FB7359E075
:101D40005623FB7356E04723FB7353E04423FB7396
:101D500050E04523FB734DE05A23FB734AE05A23BE
:101D6000FB7347E04923FB7344E04923FB7341E0E5
:101D70004B23FB733EE04C23FB733BE04D23FB7393
:101D800038E04E23FB7335E04F23FB7332E05023E2
:101D9000FB732FE05223FB732CE05323FB7329E0EA
:101DA0005423FB7326E05523FB7323E04623FB7388
:101DB00020E04823FB731DE04323FB731AE0342328
:101DC000FB7317E05723FB7314E05723FB7311E0F9
:101DD0006223FB730EE04923FB730BE06223FB736A
:101DE00008E04523FB7305E05523FB7302E0412324
:101DF000FB7300BFFB7B18461437BD4680BC7047A1
:101E000080B487B000AF786000237B6100233B6122
:101E10000F23FB607B68DB78002B3AD0274BDB6815
:101E2000DB4303F4E0631B0A7B617B69C3F10403BA
:101E30003B61FA687B6922FA03F3FB607B685B789D
:101E40001A463B6902FA03F37B617B689B781A466A
:101E5000FB6813407A6913437B617B691B017B61DB
:101E6000174A7B681B787969C9B213440A4683F81C
:101E70000023134A7B681B785B09DBB218467B683A
:101E80001B7803F01F03012101FA03F342F820300D
:101E90000FE00B497B681B785B09DBB218467B6857
:101EA0001B7803F01F0301229A4000F1200341F840
:101EB000232000BF1C37BD4680BC704700ED00E00A
:041EC00000E100E05D
:101EC40000000000010203040102030406070809DC
:101ED40002040608410000003000710021FE2D4D6F
:101EE4004954535542495348492DFFFF000000000F
:081EF40000009D0058020000EF
:0400000508000000EF
:00000001FF
