:020000040800F2
:1000000088070020A9040008090500080905000860
:10001000090500080905000809050008000000009E
:1000200000000000000000000000000009050008BA
:10003000090500080000000009050008090500087E
:100040000905000809050008090500080905000858
:100050000905000809050008090500080905000848
:100060000905000809050008090500080905000838
:10007000410F0008090500080905000809050008E6
:1000800009050008250F00080905000809050008F2
:100090000905000809050008090500080905000808
:1000A00009050008090500080905000809050008F8
:1000B0008D0E0008D90E0008090500080905000882
:1000C00009050008090500080905000809050008D8
:1000D00009050008750D0008B10D0008310E000873
:1000E00009050008090500080905000800000000CE
:1000F0000000000000000000000000000000000000
:1001000000000000000000005FF808F180B485B036
:1001100000AF786039600023FB817B681B88FB811E
:100120007B682E4A934213D07B682D4A93420FD0AE
:100130007B68B3F1804F0BD07B682A4A934207D08B
:100140007B68294A934203D07B68284A934208D1AE
:10015000FB8923F07003FB813B685A88FB891343BA
:10016000FB817B68224A93420CD07B68214A9342F0
:1001700008D0FB8923F44073FB813B68DA88FB8954
:100180001343FB817B68FA891A803B689A887B68F5
:100190009A853B681A887B681A857B680F4A934268
:1001A0000FD07B680E4A93420BD07B68124A934271
:1001B00007D07B68114A934203D07B68104A934270
:1001C00004D13B681B7A9AB27B681A867B6801224D
:1001D0009A8200BF1437BD4680BC7047002C014096
:1001E000003401400004004000080040000C0040C2
:1001F0000010004000140040004001400044014055
:100200000048014080B483B000AF78607B684FF64F
:10021000FF729A807B6800221A807B680022DA8055
:100220007B6800225A807B6800221A7200BF0C375C
:10023000BD4680BC704700BF80B483B000AF78601B
:100240000B46FB70FB78002B08D07B681B889BB2A9
:1002500043F001039AB27B681A8007E07B681B8831
:100260009BB223F001039AB27B681A8000BF0C375F
:10027000BD4680BC704700BF80B483B000AF7860DB
:100280000B467B8013467B707B78002B08D07B6805
:100290009B899AB27B8813439AB27B689A8109E062
:1002A0007B689B899AB27B88DB439BB213409AB2EE
:1002B0007B689A8100BF0C37BD4680BC704700BF89
:1002C00080B485B000AF78600B467B800023FB7361
:1002D0000023BB8100237B817B681B8A9AB27B88C9
:1002E0001340BB817B689B899AB27B8813407B81DA
:1002F000BB89002B05D07B89002B02D00123FB7327
:1003000001E00023FB73FB7B18461437BD4680BC1D
:10031000704700BF80B483B000AF78600B467B802D
:100320007B88DB439AB27B681A8200BF0C37BD46DC
:1003300080BC704780B500AF154A154B1B6843F071
:10034000010313601249124B5A68124B13404B6061
:100350000F4A0F4B1B6823F0847323F48033136020
:100360000B4A0B4B1B6823F480231360084A084B8D
:100370005B6823F4FE035360054B4FF41F029A6041
:1003800000F00CF8044B4FF000629A6000BF80BD93
:10039000001002400000FFF800ED00E080B500AF63
:1003A00000F002F800BF80BD80B483B000AF00232E
:1003B0007B6000233B603A4A394B1B6843F480332F
:1003C0001360374B1B6803F400333B607B680133D9
:1003D0007B603B68002B03D17B68B3F5A06FF0D145
:1003E0002F4B1B6803F40033002B02D001233B602A
:1003F00001E000233B603B68012B4BD1294A294B8C
:100400001B6843F010031360264A264B1B6823F039
:1004100003031360234A234B1B6843F0020313605A
:100420001F4A1F4B5B6853601D4A1D4B5B6853603E
:100430001B4A1B4B5B6843F480635360184A184B9C
:100440005B6823F47C135360154A154B5B6843F4D7
:10045000E8135360124A124B1B6843F08073136019
:1004600000BF0F4B1B6803F00073002BF9D00C4A40
:100470000B4B5B6823F003035360094A084B5B682E
:1004800043F00203536000BF054B5B6803F00C03AD
:10049000082BF9D100BF0C37BD4680BC704700BFA8
:1004A000001002400020024080B582B000AF114B26
:1004B0007B60114B3B6007E03B681A1D3A607A682D
:1004C000111D796012681A603B680C4A9342F3D39D
:1004D0000B480C494FF000028842B8BF40F8042B8B
:1004E000FADBFFF727FF00F071FD00BF0837BD46BC
:1004F00080BD00BF4E310008000000203C000020FD
:100500003C0000208803002080B400AFFEE700BF5D
:1005100080B582B000AF78607B682F4A934208D1E3
:100520000121042000F0C0FF0021042000F0BCFFE6
:100530004EE07B68294A934208D10121082000F04F
:10054000B3FF0021082000F0AFFF41E07B68244AA0
:10055000934208D10121102000F0A6FF00211020B5
:1005600000F0A2FF34E07B681E4A934208D10121CB
:10057000202000F099FF0021202000F095FF27E0C7
:100580007B68194A934208D10121402000F08CFF7A
:100590000021402000F088FF1AE07B68134A934254
:1005A00008D10121802000F07FFF0021802000F091
:1005B0007BFF0DE07B680E4A934209D101214FF485
:1005C000807000F071FF00214FF4807000F06CFF2C
:1005D00000BF0837BD4680BD00080140000C014047
:1005E000001001400014014000180140001C0140AF
:1005F0000020014080B489B000AF786039600023EA
:10060000FB6100233B610023BB610023FB600023EF
:100610007B610023BB603B68DB7803F00F03FB6169
:100620003B68DB7803F01003002B05D03B689B7818
:100630001A46FB691343FB613B681B88DBB2002B46
:1006400044D07B681B687B610023BB6138E00122DA
:10065000BB6902FA03F3FB603B681B881A46FB6820
:1006600013403B613A69FB689A4226D1BB699B0003
:10067000FB600F22FB6802FA03F3BB60BB68DB433D
:100680007A6913407B61FA69FB6802FA03F37A69BD
:1006900013437B613B68DB78282B05D10122BB69C2
:1006A0009A407B685A6108E03B68DB78482B04D1AC
:1006B0000122BB699A407B681A61BB690133BB6147
:1006C000BB69072BC3D97B687A691A603B681B88B2
:1006D000FF2B46D97B685B687B610023BB613AE0F6
:1006E000BB690833012202FA03F3FB603B681B88F5
:1006F0001A46FB6813403B613A69FB689A4227D16E
:10070000BB699B00FB600F22FB6802FA03F3BB602E
:10071000BB68DB437A6913407B61FA69FB6802FAC4
:1007200003F37A6913437B613B68DB78282B05D19F
:10073000BB69083301229A407B685A613B68DB78C9
:10074000482B05D1BB69083301229A407B681A61A6
:10075000BB690133BB61BB69072BC1D97B687A696F
:100760005A6000BF2437BD4680BC704780B485B056
:1007700000AF78600B467B800023FB737B68DA68F0
:100780007B881340002B02D00123FB7301E0002380
:10079000FB73FB7B18461437BD4680BC704700BF17
:1007A00080B483B000AF78600B467B807A887B682A
:1007B0001A6100BF0C37BD4680BC704780B483B05F
:1007C00000AF78600B467B807A887B685A6100BFF7
:1007D0000C37BD4680BC704780B483B000AF034681
:1007E000FB71084997F907305B09FA7902F01F029B
:1007F000012000FA02F241F8232000BF0C37BD4669
:1008000080BC704700E100E080B59EB000AF0121E0
:100810004FF4804000F00CFE0121042000F008FE9F
:100820004FF40073A7F87430032387F87630182349
:1008300087F8773007F174031946E348FFF7DAFECB
:100840004FF48063A7F87430042387F8773007F1FA
:1008500074031946DC48FFF7CDFE4FF4E1337B66A5
:100860000023A7F868300023A7F86A300023A7F810
:100870006C300023A7F870300C23A7F86E3007F116
:1008800064031946D14801F091F80121CF4801F0E5
:1008900047F9252387F86030002387F8613000236B
:1008A00087F86230012387F8633007F16003184648
:1008B00001F05CFF012240F22551C44801F050F9DB
:1008C00001214FF4003000F0D1FD0121042000F09F
:1008D000AFFD0423A7F87430032387F8763018237C
:1008E00087F8773007F174031946B748FFF782FE9F
:1008F0000823A7F87430042387F8773007F17403CE
:100900001946B148FFF776FE4FF461537B664FF40A
:100910008053A7F868304FF40053A7F86A304FF4BB
:100920008063A7F86C300023A7F870300C23A7F879
:100930006E3007F164031946A54801F037F801212C
:10094000A34801F0EDF8262387F86030002387F8EC
:100950006130002387F86230012387F8633007F1A4
:100960006003184601F002FF2021994801F064F964
:10097000012240F22551964801F0F2F8012240F69A
:100980004601934801F0ECF801214FF4802000F07B
:100990006DFD0121082000F04BFD4FF48063A7F8A6
:1009A0007430032387F87630182387F8773007F1FF
:1009B000740319468748FFF71DFE4FF40063A7F83C
:1009C0007430042387F8773007F17403194681489F
:1009D000FFF710FE07F1640319467F4800F0E6FFB9
:1009E00001217D4801F09CF8272387F8603000231F
:1009F00087F86130002387F86230012387F863307D
:100A000007F16003184601F0B1FE012240F22551C2
:100A1000714801F0A5F80121012000F027FD07F140
:100A200054031846FFF7EEFB0023A7F856304FF4A7
:100A3000E153A7F854304FF49673A7F8583007F1F4
:100A4000540319464FF08040FFF760FB012201215B
:100A50004FF08040FFF710FC01214FF08040FFF77E
:100A6000EBFB1C2387F86030002387F861300023FC
:100A700087F86230012387F8633007F16003184676
:100A800001F074FE0121022000F0F0FC07F1540394
:100A90001846FFF7B7FB0023A7F856304FF4E15391
:100AA000A7F854306423A7F8583007F154031946C7
:100AB0004A48FFF72BFB012201214848FFF7DCFBE6
:100AC00001214648FFF7B8FB1D2387F8603000235B
:100AD00087F86130002387F86230012387F863309C
:100AE00007F16003184601F041FE0121012000F0EA
:100AF00081FC3B4BBB623B4BFB6210233B631723E8
:100B00007B630023BB638023FB6300233B640023E0
:100B10007B640023BB640023FB6400233B6507F177
:100B200028031946304801F0CFFB012280212848D4
:100B300001F05EF8012202212B4801F01FFC112078
:100B4000FFF74AFE294BBB62294BFB6207237B63FD
:100B500007F128031946274801F0B6FB012280213E
:100B60001D4801F045F801220221224801F006FC4F
:100B70000C20FFF731FE01214FF4001000F076FC4D
:100B80000121082000F054FCC023A7F8743003238F
:100B900087F876301C2387F8773007F174031946FD
:100BA0000C48FFF727FD0023BB834BF6FF73FB8345
:100BB00038233B844FF480637B844FF48043BB84B1
:100BC0000D4BBB61012119E00008014000380140D4
:100BD00000440040000C0140004800400004004078
:100BE000044400409C010020800002400448004072
:100BF000500000201C000240A0860100364802F090
:100C000071F907F118031946334802F0A9F81023C7
:100C1000A7F87430102387F87730032387F87630ED
:100C200007F1740319462D48FFF7E4FC10212B4807
:100C3000FFF7C4FD002387F877300223A7F874304C
:100C400007F1740319462548FFF7D4FC4FF4004020
:100C500000F004FB01214FF4007000F0E9FB0023D9
:100C60007B6000233B7201237B724FF46023FB60A7
:100C700000233B6101233B75032301220121184816
:100C800000F062FD3B1D1946154800F083FC012170
:100C9000134800F0D1FC124800F0EAFC00BF1048F5
:100CA00000F0F6FC0346002BF9D10D4800F008FDDA
:100CB00000BF0B4800F014FD0346002BF9D10121C1
:100CC000074800F0B9FC0121054800F021FD00BFF4
:100CD0007837BD4680BD00BF005400400008014089
:100CE0000024014080B582B000AF1B48FFF710FC24
:100CF0001A48FFF70DFC1A4800F0FCFD194800F0F7
:100D0000F9FD04233B801023FB700323BB703B469B
:100D100019461148FFF76EFC04210F48FFF74EFDFE
:100D200000237B6002E07B6801337B607B680E4AB6
:100D30009342F8D90D4B1E221A70FFF765FD0C4B3C
:100D40001B78052B02D001F02BF801E000F0DEFF4C
:100D500000BF0837BD4680BD00080140000C0140BF
:100D600000440040004800409FBB0D0014000020DC
:100D70004B00002080B500AF0B4B1B889BB203F0EB
:100D80002003002B0DD0094B1B78002B01D101F063
:100D9000DFFE054800F07EFF0346DBB2184601F097
:100DA000F9FE00BF80BD00BF0038014049000020AF
:100DB00098B500AF1A4B1B889BB203F48073002BCD
:100DC0000CD04FF48071164800F090FF154B0122B3
:100DD0001A70134800F05EFFFFF784FF104B1B886A
:100DE0009BB203F02003002B18D00F4B1B78162B5F
:100DF00014D80D4B1B785A1CD1B20B4A11701C46EB
:100E0000074800F047FF0346DAB2084B1A554FF087
:100E1000804300229A84034B01221A7000BF98BDC0
:100E2000004400403C0000204D000020B4010020A0
:100E300098B500AF104B1B889BB203F02003002B2A
:100E400017D00E4B1B78062B13D80C4B1B785A1C53
:100E5000D1B20A4A11701C46074800F01BFF034636
:100E6000DAB2074B1A55074B00229A84064B01222F
:100E70001A7000BF98BD00BF004800404A00002023
:100E800050000020000400403D00002080B500AF6D
:100E900001214FF08040FFF713FA0346002B13D0D7
:100EA00001214FF08040FFF735FA084B1B78002BEB
:100EB0000AD001F0FBFA064800F0ECFE034B0022DA
:100EC0001A70044B00221A7000BF80BD3C00002045
:100ED000004400404D00002080B500AF01210D48C6
:100EE000FFF7EEF90346002B12D001210948FFF766
:100EF00011FA094B1B78002B0AD001F05FF8074864
:100F000000F0C8FE044B00221A70054B00221A7034
:100F100000BF80BD000400403D00002000480040AC
:100F20004A00002080B500AF4FF0007001F044FA95
:100F30000021024801F006FA00BF80BD8000024097
:100F400080B500AF202001F037FA0021024801F0FF
:100F5000F9F900BF80BD00BF1C00024080B500AFA2
:100F600000F074F84FF4803000F09EF800BF31209C
:100F700000F0D6FA0346002BF9D0002000F01AF951
:100F8000002000F04FF94FF4806000F02FF94FF48B
:100F9000804000F063F94FF4E0114FF4803000F02E
:100FA000B1F8012000F0CCF800BF392000F0B8FA09
:100FB0000346002BF9D0022000F0D2F800BF00F069
:100FC000EBF80346082BFAD100BF80BD80B500AF17
:100FD000FFF7C4FFFFF718FCFFF784FEFEE700BF32
:100FE00080B500AF044800F025FF00F01BF800F0CA
:100FF00023F800BF80BD00BF6030000880B500AF9F
:10100000024800F017FF00BF80BD00BF703000082D
:1010100080B500AF024800F00DFF00BF80BD00BFEB
:101020008430000880B500AF024800F003FF00BF25
:1010300080BD00BF9830000880B500AF024800F0C6
:10104000F9FE00BF80BD00BFAC30000880B400AF27
:10105000134A134B1B6843F0010313601049104BF4
:101060005A68104B13404B600D4A0D4B1B6823F020
:10107000847323F480331360094A094B1B6823F4FB
:1010800080231360064A064B5B6823F4FE0353601B
:10109000034B4FF41F029A6000BFBD4680BC7047EF
:1010A000001002400000FFF880B483B000AF786009
:1010B000134A134B1B6823F480331360104A104B00
:1010C0001B6823F4802313607B68B3F5803F03D053
:1010D000B3F5802F07D00DE0094A094B1B6843F494
:1010E0008033136006E0064A054B1B6843F4A023D7
:1010F000136000BF00BF0C37BD4680BC704700BF07
:101100000010024080B485B000AF786039600023E1
:10111000FB600A4B5B68FB60FB6823F47C13FB609D
:101120007A683B681343FA681343FB60034AFB6821
:10113000536000BF1437BD4680BC704700100240AA
:1011400080B483B000AF0346FB71044AFB7913609F
:1011500000BF0C37BD4680BC704700BF60004242F4
:1011600080B485B000AF78600023FB60094B5B68FA
:10117000FB60FB6823F00303FB60FA687B681343A2
:10118000FB60044AFB68536000BF1437BD4680BC57
:10119000704700BF0010024080B400AF044B5B6892
:1011A000DBB203F00C03DBB21846BD4680BC7047CF
:1011B0000010024080B485B000AF78600023FB606F
:1011C000094B5B68FB60FB6823F0F003FB60FA6887
:1011D0007B681343FB60044AFB68536000BF14370D
:1011E000BD4680BC704700BF0010024080B485B08F
:1011F00000AF78600023FB60094B5B68FB60FB6815
:1012000023F4E063FB60FA687B681343FB60044AE5
:10121000FB68536000BF1437BD4680BC704700BFF9
:101220000010024080B485B000AF78600023FB60FE
:10123000094B5B68FB60FB6823F46053FB607B68D1
:10124000DB00FA681343FB60034AFB68536000BF8E
:101250001437BD4680BC70470010024080B485B092
:1012600000AF78600023FB60094B5B68FB60FB68A4
:1012700023F44043FB60FA687B681343FB60044A35
:10128000FB68536000BF1437BD4680BC704700BF89
:101290000010024080B487B000AF786000237B610B
:1012A00000233B610023FB600023BB604C4B5B6869
:1012B00003F00C037B617B69042B07D0082B09D05A
:1012C000002B33D17B68474A1A6033E07B68454A7C
:1012D0001A602FE0424B5B6803F470133B61404B94
:1012E0005B6803F48033FB603B699B0C02333B611A
:1012F000FB68002B06D13B693B4A02FB03F27B688B
:101300001A6017E0364B5B6803F40033002B06D0FD
:101310003B69354A02FB03F27B681A600AE03B69CD
:10132000304A02FB03F27B681A6003E07B682D4AB7
:101330001A6000BF2A4B5B6803F0F0037B617B6996
:101340001B097B61294A7B6913441B78DBB2BB60B4
:101350007B681A68BB68DA407B685A60204B5B6820
:1013600003F4E0637B617B691B0A7B611F4A7B6935
:1013700013441B78DBB2BB607B685A68BB68DA40F9
:101380007B689A60164B5B6803F460537B617B69F2
:10139000DB0A7B61154A7B6913441B78DBB2BB60B7
:1013A0007B685A68BB68DA407B68DA600C4B5B6824
:1013B00003F440437B617B699B0B7B610C4A7B6937
:1013C00013441B78DBB2BB607B68DA68BB68B2FB96
:1013D000F3F27B681A6100BF1C37BD4680BC7047C2
:1013E0000010024000127A0000093D0000000020B9
:1013F0001000002080B483B000AF78600B46FB7013
:10140000FB78002B06D00949084B5A697B681343C7
:101410004B6106E00549054B5A697B68DB43134085
:101420004B6100BF0C37BD4680BC704700100240C6
:1014300080B483B000AF78600B46FB70FB78002B64
:1014400006D00949084B9A697B6813438B6106E013
:101450000549054B9A697B68DB4313408B6100BFEC
:101460000C37BD4680BC70470010024080B483B08A
:1014700000AF78600B46FB70FB78002B06D0094963
:10148000084BDA697B681343CB6106E00549054BDD
:10149000DA697B68DB431340CB6100BF0C37BD4684
:1014A00080BC70470010024080B483B000AF786009
:1014B0000B46FB70FB78002B06D00949084BDA6815
:1014C0007B681343CB6006E00549054BDA687B680F
:1014D000DB431340CB6000BF0C37BD4680BC704778
:1014E0000010024080B483B000AF78600B46FB7000
:1014F000FB78002B06D00949084B1A697B68134317
:101500000B6106E00549054B1A697B68DB43134014
:101510000B6100BF0C37BD4680BC70470010024015
:1015200080B487B000AF0346FB710023FB6000234B
:101530007B610023FB74FB795B09DBB2FB60FB681A
:10154000012B03D1124B1B687B6109E0FB68022B66
:1015500003D10F4B1B6A7B6102E00D4B5B6A7B6121
:10156000FB7903F01F03FB607A69FB6822FA03F33F
:1015700003F00103002B02D00123FB7401E00023E0
:10158000FB74FB7C18461C37BD4680BC704700BF0F
:101590000010024080B485B000AF7860396000234D
:1015A000FB600023FB727B685B68FB60FB6823F4D5
:1015B000702323F48073FB603B681A683B681B79D7
:1015C0001B021343FA681343FB607B68FA685A6096
:1015D0007B689B68FB60FA68164B1340FB603B68B6
:1015E000DA683B689B681A433B685B795B0013438E
:1015F000FA681343FB607B68FA689A607B68DB6A71
:10160000FB60FB6823F47003FB603B681B7C013BC1
:10161000DAB2FB7A1343FB72FB7A1B05FA681343B9
:10162000FB607B68FA68DA6200BF1437BD4680BC95
:10163000704700BFFDF7F1FF80B483B000AF786062
:101640000B46FB70FB78002B06D07B689B6843F051
:1016500001027B689A6005E07B689B6823F00102C9
:101660007B689A6000BF0C37BD4680BC704700BFE6
:1016700080B483B000AF78607B689B6843F0080259
:101680007B689A6000BF0C37BD4680BC704700BFC6
:1016900080B485B000AF78600023FB737B689B68E3
:1016A00003F00803002B02D00123FB7301E00023A9
:1016B000FB73FB7B18461437BD4680BC704700BFE8
:1016C00080B483B000AF78607B689B6843F004020D
:1016D0007B689A6000BF0C37BD4680BC704700BF76
:1016E00080B485B000AF78600023FB737B689B6893
:1016F00003F00403002B02D00123FB7301E000235D
:10170000FB73FB7B18461437BD4680BC704700BF97
:1017100080B483B000AF78600B46FB70FB78002B81
:1017200006D07B689B6843F4A0027B689A6005E062
:101730007B689B6823F4A0027B689A6000BF0C372B
:10174000BD4680BC704700BF80B485B000AF7860F4
:10175000084611461A460346FB700B46BB701346FB
:101760007B700023FB600023BB60FB78092B23D92F
:101770007B68DB68FB60FB78A3F10A0213465B0021
:101780001344072202FA03F3BB60BB68DB43FA6829
:101790001340FB607978FB78A3F10A0213465B00E3
:1017A000134401FA03F3BB60FA68BB681343FB60A0
:1017B0007B68FA68DA601EE07B681B69FB60FA7878
:1017C00013465B001344072202FA03F3BB60BB68B5
:1017D000DB43FA681340FB607978FA7813465B00C4
:1017E000134401FA03F3BB60FA68BB681343FB6060
:1017F0007B68FA681A61BB78062B21D87B685B6B23
:10180000FB60BB785A1E13469B0013441F2202FA4A
:1018100003F3BB60BB68DB43FA681340FB60F978F5
:10182000BB785A1E13469B00134401FA03F3BB60B6
:10183000FA68BB681343FB607B68FA685A6347E049
:10184000BB780C2B21D87B681B6BFB60BB78DA1F45
:1018500013469B0013441F2202FA03F3BB60BB68CC
:10186000DB43FA681340FB60F978BB78DA1F134654
:101870009B00134401FA03F3BB60FA68BB6813438F
:10188000FB607B68FA681A6322E07B68DB6AFB60B6
:10189000BB78A3F10D0213469B0013441F2202FAEA
:1018A00003F3BB60BB68DB43FA681340FB60F97865
:1018B000BB78A3F10D0213469B00134401FA03F316
:1018C000BB60FA68BB681343FB607B68FA68DA6246
:1018D00000BF1437BD4680BC704700BF80B483B0E2
:1018E00000AF78607B68DB6C9BB218460C37BD4656
:1018F00080BC704780B582B000AF78607B68264AB4
:1019000093420AD101214FF48040FFF7CDFD002121
:101910004FF48040FFF7C8FD3AE07B681F4A9342CE
:101920000AD101214FF40030FFF7DCFD00214FF414
:101930000030FFF7D7FD2BE07B68194A93420AD1AC
:1019400001214FF48020FFF7CDFD00214FF48020CE
:10195000FFF7C8FD1CE07B68124A93420AD10121BF
:101960004FF40020FFF7BEFD00214FF40020FFF7E9
:10197000B9FD0DE07B680C4A934209D101214FF477
:101980008010FFF7AFFD00214FF48010FFF7AAFD94
:1019900000BF0837BD4680BD00380140004400400C
:1019A00000480040004C00400050004080B58CB022
:1019B00000AF786039600023FB620023BB62002324
:1019C0007B6200233B620023FB617B68FB617B68D9
:1019D0001B8A9BB2FB62FA6A4CF6FF731340FB62F0
:1019E0003B68DB881A46FB6A1343FB62FB6A9AB2C8
:1019F0007B681A827B689B899BB2FB62FA6A4EF60F
:101A0000F3131340FB623B689A883B681B891343BE
:101A10009AB23B685B8913439BB21A46FB6A134335
:101A2000FB62FB6A9AB27B689A817B689B8A9BB255
:101A3000FB62FA6A4FF6FF431340FB623B689B89E7
:101A40001A46FB6A1343FB62FB6A9AB27B689A826E
:101A500007F108031846FFF71DFCFB692E4A934265
:101A600002D17B69BB6201E03B69BB627B689B89F9
:101A70009BB21BB2002B0CDABA6A13469B001344CC
:101A80009A001A443B681B685B00B2FBF3F37B626D
:101A90000BE0BA6A13469B0013449A001A443B6851
:101AA0001B689B00B2FBF3F37B627B6A1B4AA2FBC1
:101AB00003235B091B01FB62FB6A1B09642202FB17
:101AC00003F37A6AD31A3B627B689B899BB21BB291
:101AD000002B0CDA3B6ADB003233104AA2FB0323F3
:101AE0005B0903F00703FA6A1343FB620BE03B6AEE
:101AF0001B013233094AA2FB03235B0903F00F03E6
:101B0000FA6A1343FB62FB6A9AB27B681A8100BFD0
:101B10003037BD4680BD00BF003801401F85EB5106
:101B200080B483B000AF78600B46FB70FB78002B6D
:101B300008D07B689B899BB243F400539AB27B68C0
:101B40009A8107E07B689B899BB223F400539AB289
:101B50007B689A8100BF0C37BD4680BC704700BFD0
:101B600080B487B000AF78600B467B8013467B70F3
:101B700000233B610023FB600023BB6000237B61EB
:101B80007B687B617B88DBB25B09DBB23B617B8876
:101B900003F01F03FB600122FB6802FA03F3BB6042
:101BA0003B69012B03D17B690C337B6109E03B6905
:101BB000022B03D17B6910337B6102E07B69143314
:101BC0007B617B78002B06D07B697A691168BA68E3
:101BD0000A431A6006E07B697A691168BA68D243E1
:101BE0000A401A6000BF1C37BD4680BC704700BF6A
:101BF00080B483B000AF78600B467B8013467B7067
:101C00007B78002B08D07B689B8A9AB27B88134331
:101C10009AB27B689A8209E07B689B8A9AB27B8839
:101C2000DB439BB213409AB27B689A8200BF0C37A9
:101C3000BD4680BC704700BF80B483B000AF786001
:101C40000B467B807B681B8A9BB223F020039AB2F1
:101C50007B681A827B681B8A9AB27B8813439AB28C
:101C60007B681A8200BF0C37BD4680BC704700BF3E
:101C700080B483B000AF78600B467B807B88C3F371
:101C800008039AB27B689A8000BF0C37BD4680BCBF
:101C9000704700BF80B483B000AF78607B689B88DA
:101CA0009BB2C3F308039BB218460C37BD4680BCF9
:101CB000704700BF80B485B000AF78600B467B8072
:101CC0000023FB737B681B889AB27B8813409BB20E
:101CD000002B02D00123FB7301E00023FB73FB7B8D
:101CE00018461437BD4680BC704700BF80B483B02F
:101CF00000AF78600B467B807B88DB439AB27B68C1
:101D00001A8000BF0C37BD4680BC704780B500AF5D
:101D100001211F4801F006F900BF1E491C4801F0CF
:101D20006FF90346002BF8D000229821184801F0E3
:101D300049F900BF1849164801F062F90346002B23
:101D4000F8D09821124801F02DF900BF134910482E
:101D500001F056F90346002BF8D078210C4801F029
:101D600021F900BF0D490A4801F04AF90346002B4A
:101D7000F8D00121064801F0F5F800BF07490448F2
:101D800001F03EF90346002BF8D000BF80BD00BF34
:101D90000054004001000300820007008400070097
:101DA00080B500AF01211F4801F0BCF800BF1E49FB
:101DB0001C4801F025F90346002BF8D00022982199
:101DC000184801F0FFF800BF1849164801F018F94B
:101DD0000346002BF8D09821124801F0E3F800BF29
:101DE0001349104801F00CF90346002BF8D07C2170
:101DF0000C4801F0D7F800BF0D490A4801F000F97E
:101E00000346002BF8D00121064801F0ABF800BFD3
:101E10000749044801F0F4F80346002BF8D000BF4E
:101E200080BD00BF00540040010003008200070095
:101E30008400070080B582B000AF78607B685A1CD0
:101E40007A601B789BB219460948FFF711FF00BF63
:101E500040210748FFF72EFF0346002BF8D07B6890
:101E60001B78002BEAD100BF0837BD4680BD00BFFC
:101E70000038014080B500AF0021064800F062FA4A
:101E8000044B17225A600121024800F05BFA00BFA0
:101E900080BD00BF8000024080B500AF0021064831
:101EA00000F050FA044B07225A600121024800F06A
:101EB00049FA00BF80BD00BF1C00024080B485B05D
:101EC00000AF78600B46FB700023FB730023BB6000
:101ED00009E0BB687A6813441A78FB7B1344FB73F0
:101EE000BB680133BB60FB785A1EBB689A42F0DCCA
:101EF000FB78013B7A6813441B78FA7B9A4201D045
:101F0000002300E0012318461437BD4680BC70470B
:101F100080B400AF064B1B78002B0CBF01230023BD
:101F2000DBB21A46034B1A7000BFBD4680BC704737
:101F30004C0000203F00002080B500AF064B05227A
:101F40001A70064B00221A7010210548FEF728FC73
:101F5000FFF7DCFE00BF80BD4B00002040000020EA
:101F60000008014080B500AF10210348FEF726FCB1
:101F7000FFF716FF00BF80BD0008014080B582B0AA
:101F800000AF0023FB7100233B6009E00A4A3B6875
:101F900013441A78FB791344FB713B6801333B60AF
:101FA0003B68052BF2DD044AFB799371FFF774FF60
:101FB00000BF0837BD4680BD5000002080B584B00A
:101FC00000AF0721A248FFF779FF0346002B00F07E
:101FD0006E819F4B5B78022B07D09D4B5B78202B4B
:101FE00003D09B4B5B78402B02D19A4B1E221A7078
:101FF000984B1B78002B1AD0964B1B78013BDAB21A
:10200000944B1A70934B1B78002B10D100F0EEF913
:10201000914B1B78012B0AD1904B1B78042B01D0DC
:10202000FFF776FFFFF788FF8B4B00221A708C4B6F
:102030001B78002B21D08B4B1B78412B1DD8002304
:10204000FB600BE0884AFB6813441978804AFB6800
:1020500013440A461A70FB680133FB60FB68062BC9
:10206000F0DD7B4B20225A707E4B1B780133DAB2B5
:102070007C4B1A70FFF782FF1AE1794B1B78002B1B
:1020800005D0774B00221A70764B42221A70734BA0
:102090001B78052B40F0B680724B1B78002B03D1C8
:1020A000724B1B78002B21D1694B5B78402B02D0FF
:1020B0006E4B01221A706B4B1B78013BDAB2694BF5
:1020C0001A700023BB600BE0674ABB6813441978A1
:1020D0005F4ABB6813440A461A70BB680133BB6091
:1020E000BB68062BF0DDFFF749FFE1E0584B5B785A
:1020F000402B03D0564B5B78202B01D1FFF732FFEA
:10210000534B5B78022B07D0594B1B78962B10D979
:10211000574B1B78972B0CD8564B1B78002B04D1B0
:10212000FEF75EFF534B01221A70494B00225A7092
:102130005BE0474B9B78012B09D14E4B1B78002B62
:1021400053D1FEF765FF4B4B01221A704DE0404B17
:102150009B78022B09D1474B1B78002B45D1FEF70A
:102160004DFF444B01221A703FE04348FFF7B6FB96
:1021700003461A46414BA3FB02235B099BB2FB714A
:10218000FB79083B052B26D801A252F823F000BFAB
:10219000A9210008A9210008AF210008AF210008EB
:1021A000C3210008C3210008FFF7DCFE1AE0314B11
:1021B0001B78002B13D1FEF721FF2E4B01221A7042
:1021C0000DE02C4B1B78002B0BD1FEF721FF294B88
:1021D00001221A7005E0274B00221A7002E000BFAE
:1021E00000E000BF234B00221A70214B1B78F92B13
:1021F00005D81F4B1B780133DAB21D4B1A70FFF75D
:10220000BDFE55E0154B1B78052B51D0104B5B786C
:10221000402B35D10E4B00225A70144B00221A70FD
:10222000104B1B780133DAB20E4B1A700D4B1B7832
:10223000422B0AD90B4B00221A70084B1B78042B37
:1022400001D0FFF765FEFFF777FEFFF797FE2FE05F
:102250005000002014000020480000204B00002007
:102260003F0000203E000020180000201F0000203A
:102270004000002041000020002401401F85EB5158
:102280000D4B1B78002B0FD00C4B1B78002B0BD168
:102290000B4B01221A700B4B40225A70064B1B78D5
:1022A000013BDAB2044B1A70FFF768FE00E000BF92
:1022B0001037BD4680BD00BF3E0000203F0000201B
:1022C0001F0000205000002080B485B000AF78606F
:1022D00039600023FB607B681B68FB60FB6823F4AC
:1022E000FF4323F07003FB603B689A683B681B6AFE
:1022F0001A433B681B691A433B685B691A433B6896
:102300009B691A433B68DB691A433B685B6A1A4363
:102310003B689B6A1343FA681343FB607B68FA6867
:102320001A603B68DA687B685A603B681A687B68A9
:102330009A603B685A687B68DA6000BF1437BD4614
:1023400080BC704780B483B000AF78600B46FB70F0
:10235000FB78002B06D07B681B6843F001027B688A
:102360001A6006E07B681A684FF6FE7313407A68BD
:10237000136000BF0C37BD4680BC704780B485B089
:1023800000AFF860B9601346FB71FB79002B06D0F3
:10239000FB681A68BB681A43FB681A6006E0FB68B2
:1023A0001A68BB68DB431A40FB681A6000BF143729
:1023B000BD4680BC704700BF80B483B000AF78607A
:1023C0007B6803F08053002B03D0064A7B68536080
:1023D00002E0054A7B68536000BF0C37BD4680BCF5
:1023E000704700BF000402400000024080B500AF0B
:1023F00010212048FEF7BAF90346002B38D11E4BB6
:102400001B7C03F01003002B03D01C4B00221A701E
:102410002FE0194B5B7C03F00103002B03D0174B1B
:1024200001221A7025E0144BDB78572B0FD1124B89
:102430009B784D2B03D1114B02221A7019E00E4BE1
:102440009B784C2B03D10D4B03221A7011E00A4BE1
:102450009B79412B0DD1084BDB79552B09D1064BCC
:102460001B7A582B05D1054B04221A7000BF00E0DF
:1024700000BF80BD00080140B40100204B000020D7
:1024800080B400AF064B00221A70064B00221A607F
:10249000054B00221A7000BFBD4680BC704700BFCC
:1024A00059000020980100206800002080B582B00B
:1024B00000AF17218E48FFF701FD0346002B00F007
:1024C00013810023FB7108E0FB79FA798849895C64
:1024D000884AD154FB790133FB71FB79162BF3D970
:1024E000844B1B7C002B06D0824BDB7A272B02D13E
:1024F000804B3A22DA727E4B9B79412B09D17C4B7F
:10250000DB79552B05D17A4B1B7A582B01D101234E
:1025100000E00023DAB2784B1A70784B1B78052B59
:1025200040F0A880764B1B78002B5BD0754B1B7856
:10253000012B14D0022B30D0002B41D1724B1A78D2
:10254000724B1B789A4206D26F4B1B780133DAB27A
:102550006D4B1A7034E06B4B01221A7030E06C4BFB
:102560001B680C33664AD35C002B12D0694B1B7876
:102570005A1CD1B2674A1170674A127893421ED131
:10258000634B1B680133624A1360624B00221A706E
:1025900015E05C4B02221A7011E05B4B1B78002B9C
:1025A00006D0594B1B78013BDAB2574B1A7007E043
:1025B000544B00221A70564B00221A6000E000BFF4
:1025C0000023BB710BE0BB79B979514A12680A4408
:1025D0004B49895C514AD154BB790133BB71BB79FA
:1025E0000B2BF0D9444B1B78002B43D04B4B1B7863
:1025F000002B24D13F4B86229A703E4B2022DA706A
:102600003C4B42221A713B4B4C225A71394B55229A
:102610009A71384B4522DA71364B54221A72354B77
:102620004F225A72334B4F229A72324B5422DA7233
:10263000304B48221A732F4B20225A731AE0002382
:102640007B7114E07B79354AD35C002B05D17B7913
:102650000233284A2021D15406E07B7902337A796B
:102660002E49895C234AD1547B7901337B717B7974
:102670000B2BE7D900233B6017E0294B1B681D2B70
:1026800009DC284A3B68134419781A4A3B6813440A
:102690000A461A7006E03B68012B02DD3B680D2BF1
:1026A00000E000BF3B6801333B603B68162BE4DD74
:1026B000104B1B78402B0FD1194B00221A600F4B87
:1026C0001B78052B04D1184B01221A70FFF74AFC26
:1026D0000A4B07221A7004E0114B1B680133104AA1
:1026E000136000F023F800E000BF0837BD4680BD4E
:1026F000B40100209C0100204C0000204B00002071
:102700006C000020590000206800002037000020E5
:102710009801002058000020380000205C000020B4
:1027200044000020200000204800002080B582B036
:1027300000AF0023FB7100233B6009E00A4A3B68BD
:1027400013441A78FB791344FB713B6801333B60F7
:102750003B68152BF2DD044AFB799375FFF78AFB82
:1027600000BF0837BD4680BD9C01002080B487B003
:1027700000AF786000237B6100233B610F23FB6087
:102780007B68DB78002B3AD0274BDB68DB4303F414
:10279000E0631B0A7B617B69C3F104033B61FA6858
:1027A0007B6922FA03F3FB607B685B781A463B691E
:1027B00002FA03F37B617B689B781A46FB6813403F
:1027C0007A6913437B617B691B017B61174A7B68D4
:1027D0001B787969C9B213440A4683F80023134A67
:1027E0007B681B785B09DBB218467B681B7803F0BB
:1027F0001F03012101FA03F342F820300FE00B49D7
:102800007B681B785B09DBB218467B681B7803F09A
:102810001F0301229A4000F1200341F8232000BF4A
:102820001C37BD4680BC704700ED00E000E100E0D1
:1028300080B485B000AF78600023FB8100237B73F8
:1028400011E0FB891A46920013445B009AB27B7B2D
:1028500079680B441B789BB213449BB2303BFB81DD
:102860007B7B01337B737B7B7A6813441B78002B63
:10287000E7D1FB8918461437BD4680BC704700BFBE
:1028800080B584B000AF78600023FB6010E00E4A92
:10289000FB6852F823307968184600F02BFA03469B
:1028A000002B02D0FB685BB20AE0FB680133FB60DF
:1028B000064B1B781A46FB689A42E8DC4FF0FF3360
:1028C00018461037BD4680BDD00100204A020020C6
:1028D00080B500AF0F48FFF7D3FF034602330E4A1F
:1028E00052F823300D4A53600D48FFF7C9FF0346E5
:1028F0000233094A52F82330084A93600948FFF727
:10290000BFFF03460233044A52F82330034A1360E0
:1029100000BF80BDC4300008D00100207C0300202F
:10292000CC300008D430000880B584B000AF00235C
:10293000FB8100237B737A4B1B687A49184600F0B1
:10294000D9F90346002B00F0B580754B9B6876499A
:10295000184600F0CFF90346002B00F09480FFF7F3
:10296000B7FF0023FB8100237B73704B5A687B7B8E
:1029700013441B7803F0C003002B2DD06B4B5A6817
:102980007B7B013313441B785BB2002B24DA674B4B
:102990005A687B7B13441B78FB80FB881B01FB8000
:1029A000624B5A687B7B013313441B789AB2FB88D5
:1029B0001343FB80FB884DF29002934204D1FB89C4
:1029C0005B4A4121D15403E0FB89594A3F21D1544C
:1029D0007B7B01337B7307E0FB89544A51687A7B28
:1029E0000A441178524AD154504B5A687B7B591C87
:1029F000797313441B78002B05D0FB895A1CFA818C
:102A0000B3F5967FB1D300237B73FB895A1CFA81FF
:102A10001A46474B20219954FB895A1CFA811A46C1
:102A2000434B2D219954FB895A1CFA811A46404B7D
:102A300020219954FA893D4B1B68591C3B48016081
:102A400019783B4B9954394B1B681B78002B05D0E8
:102A5000FB895A1CFA81B3F5967FEBD3FB890133CE
:102A6000FB81FB89BB6007E0314ABB68134400224D
:102A70001A70BB680133BB60BB68B3F5967FF3DBAC
:102A8000FFF7FEFC48E0264B9B682A49184600F0F9
:102A900031F90346002B3CD0214BDB682649184610
:102AA00000F028F90346002B33D0FEF7C5FAFEF7F5
:102AB000B9FA2EE01A4B1B682049184600F01AF9A3
:102AC0000346002B06D0164B9B681D49184600F0A4
:102AD00011F921E0124B1B681949184600F00AF958
:102AE0000346002B18D00E4B5B681649184600F0C1
:102AF00001F90346002B0ED0094B9B68124918467A
:102B000000F0F8F8064B9B681049184600F0F2F800
:102B100001E000BF00E000BF18461037BD4680BD91
:102B2000D0010020DC300008E43000087C030020E5
:102B30006C000020003100081C310008243100081E
:102B40002C310008343100084031000848310008B9
:102B500080B400AF094B01221A70094B00221A8081
:102B6000084B01221A70084B084A1A60084B0022D1
:102B70001A7000BFBD4680BC704700BF49000020EE
:102B80004C0200204A020020D00100205002002008
:102B9000CC01002080B582B000AF0346FB714E4BE4
:102BA0001B88B3F5967F80F092804C4B1B781D2BD1
:102BB00000F28D80484B1B881946494AFB795354D3
:102BC000454B1B881A46464B9B5C0A2B0BD1424B4C
:102BD0001B881A46424B00219954424B00221A701E
:102BE000FFF7A2FE74E0404B1B78002B1DD03F4B3B
:102BF0001B885A1E91B23D4A1180002B06D0364BDD
:102C00001B8801339AB2344B1A8061E0324B1B8827
:102C10001A46334B002199542F4B1B8801339AB22B
:102C20002D4B1A80304B00221A702B4B1B881A46F2
:102C30002B4B9B5C222B21D1284B1B78013B264A36
:102C40001288013226490A44294941F82320224B9F
:102C50001B8801339AB2204B1A80204B1B78023B11
:102C6000234A52F823301846FFF7E2FD03461A467E
:102C70001E4B1A801C4B01221A7029E0164B1B8830
:102C80001A46174B9B5C202B1AD1174B1B78002B35
:102C900016D1124B1B7819460F4B1B880133104A73
:102CA0001344134A42F821300C4B1B780133DAB23B
:102CB0000A4B1A70084B1B881A46094B002199547D
:102CC000054B1B8801339AB2034B1A8000E000BF0A
:102CD0000837BD4680BD00BF4C0200204A020020DC
:102CE0005002002049000020CC01002048020020B2
:102CF000D001002080B485B000AF78603960002337
:102D0000FB7302E0FB7B0133FB73FB7B7A681344AC
:102D10001A78FB7B39680B441B789A420BD1FB7BFA
:102D20007A6813441B78002B05D0FB7B3A68134468
:102D30001B78002BE6D1FB7B7A6813441B78002BB1
:102D400007D1FB7B3A6813441B78002B01D1012388
:102D500000E0002318461437BD4680BC704700BF12
:102D600080B58AB000AF786039600023FB8400230F
:102D70007B840423BB84574BFB617B689B88FB846B
:102D8000FB8C23F03F03FB8407F108031846FEF792
:102D900081FA3B69FB61FB694F4AA2FB03239B0C51
:102DA0007B84FA8C7B8C1343FB847B68FA8C9A803F
:102DB0007B681B889BB223F001039AB27B681A8060
:102DC0000023FB843B681B68444A934215D83B6848
:102DD0001B685B00FA69B2FBF3F3BB84BB8C032B6B
:102DE00001D80423BB84FA8CBB8C1343FB847B8CFB
:102DF00001339AB27B681A8440E03B68DB884BF66B
:102E0000FF72934209D13B681A6813465B00134472
:102E1000FA69B2FBF3F3BB840EE03B681A68134611
:102E20009B0013449A001344FA69B2FBF3F3BB848A
:102E3000BB8C43F48043BB84BB8CC3F30B03002BDC
:102E400003D1BB8C43F00103BB84BA8CFB8C1343CE
:102E50009BB26FEA43436FEA5343FB847B8C4FF48E
:102E6000967202FB03F31E4A82FB03129211DB17D8
:102E7000D31A9BB201339AB27B681A847B68FA8CAE
:102E80009A837B681B889BB243F001039AB27B68EC
:102E90001A807B681B88FB84FB8C23F4816323F0FE
:102EA0000203FB843B689A883B685B8913439AB2B0
:102EB000FB8C1343FB847B68FA8C1A803B689A89ED
:102EC0003B681B8913439AB27B681A8100BF28377D
:102ED000BD4680BD00127A0083DE1B43A086010040
:102EE000D34D621080B483B000AF78600B46FB70A6
:102EF000FB78002B08D07B681B889BB243F0010352
:102F00009AB27B681A8007E07B681B889BB223F02B
:102F100001039AB27B681A8000BF0C37BD4680BCA3
:102F2000704700BF80B483B000AF78600B46FB7081
:102F3000FB78002B08D07B681B889BB243F480731E
:102F40009AB27B681A8007E07B681B889BB223F4E7
:102F500080739AB27B681A8000BF0C37BD4680BC74
:102F6000704700BF80B483B000AF78600B46FB7041
:102F7000FB78002B08D07B681B889BB243F400735E
:102F80009AB27B681A8007E07B681B889BB223F4A7
:102F900000739AB27B681A8000BF0C37BD4680BCB4
:102FA000704700BF80B483B000AF78600B46FB7001
:102FB000FB789AB27B681A8200BF0C37BD4680BC92
:102FC000704700BF80B483B000AF78600B46FB70E1
:102FD0001346BB70BB78002B04D0FB7843F0010391
:102FE000FB7003E0FB7823F00103FB70FB789AB2DF
:102FF0007B681A8200BF0C37BD4680BC704700BF9B
:1030000080B487B000AF7860396000233B61002353
:10301000FB600023BB600023FB757B689B8A9BB22F
:10302000FB607B681B8B9BB2BB60BB681B04BB60F7
:10303000FA68BB68134323F07F433B613A693B68FE
:103040001A403B689A4202D10123FB7501E000233C
:10305000FB75FB7D18461C37BD4680BC704700BF22
:10306000415652435020504C4159200D0A00000057
:10307000415652435020464F5257415244200D0A68
:10308000000000004156524350204241434B5741FB
:103090005244200D0A000000415652435020504433
:1030A000552033312032200D0A0000004156524392
:1030B0005020504455203230203220312032200D13
:1030C0000A0000004152544953540000414C4255FB
:1030D0004D0000005449544C4500000041565243F5
:1030E000500000004745545F454C454D454E545FE8
:1030F000415454524942555445535F525350000075
:1031000052454749535445525F4E4F5449464943EF
:103110004154494F4E5F5253500000004348414EC6
:1031200047454400434F4E4E4543540041324450BE
:103130000000000053545245414D494E47000000E5
:0E31400053544F5000000000535441525400AD
:10314E00000000000102030401020304060708093F
:10315E00020406081E00000041000000300071014C
:10316E0021FE2D4D4954535542495348492DFFFFD9
:0C317E000000000000009D1E0200000088
:0400000508000000EF
:00000001FF
