:020000040800F2
:1000000090070020A1040008010500080105000870
:1000100001050008010500080105000800000000B6
:1000200000000000000000000000000001050008C2
:100030000105000800000000010500080105000896
:100040000105000801050008010500080105000878
:100050000105000801050008010500080105000868
:100060000105000801050008010500080105000858
:100070003D0F000801050008010500080105000802
:1000800001050008210F000801050008010500080E
:100090000105000801050008010500080105000828
:1000A0000105000801050008010500080105000818
:1000B000890E0008D50E000801050008010500089A
:1000C00001050008010500080105000801050008F8
:1000D000010500086D0D0008A90D00082D0E00088F
:1000E00001050008010500080105000800000000E6
:1000F0000000000000000000000000000000000000
:1001000000000000000000005FF808F180B485B036
:1001100000AF786039600023FB817B681B88FB811E
:100120007B682E4A934213D07B682D4A93420FD0AE
:100130007B68B3F1804F0BD07B682A4A934207D08B
:100140007B68294A934203D07B68284A934208D1AE
:10015000FB8923F07003FB813B685A88FB891343BA
:10016000FB817B68224A93420CD07B68214A9342F0
:1001700008D0FB8923F44073FB813B68DA88FB8954
:100180001343FB817B68FA891A803B689A887B68F5
:100190009A853B681A887B681A857B680F4A934268
:1001A0000FD07B680E4A93420BD07B68124A934271
:1001B00007D07B68114A934203D07B68104A934270
:1001C00004D13B681B7A9AB27B681A867B6801224D
:1001D0009A8200BF1437BD4680BC7047002C014096
:1001E000003401400004004000080040000C0040C2
:1001F0000010004000140040004001400044014055
:100200000048014080B483B000AF78607B684FF64F
:10021000FF729A807B6800221A807B680022DA8055
:100220007B6800225A807B6800221A7200BF0C375C
:10023000BD4680BC704780B483B000AF78600B4689
:10024000FB70FB78002B08D07B681B889BB243F0C7
:1002500001039AB27B681A8007E07B681B889BB217
:1002600023F001039AB27B681A8000BF0C37BD46A9
:1002700080BC704780B483B000AF78600B467B8051
:1002800013467B707B78002B08D07B689B899AB2E1
:100290007B8813439AB27B689A8109E07B689B89CB
:1002A0009AB27B88DB439BB213409AB27B689A81F7
:1002B00000BF0C37BD4680BC704780B485B000AF2E
:1002C00078600B467B800023FB730023BB810023F7
:1002D0007B817B681B8A9AB27B881340BB817B68D9
:1002E0009B899AB27B8813407B81BB89002B05D008
:1002F0007B89002B02D00123FB7301E00023FB73F9
:10030000FB7B18461437BD4680BC704780B483B071
:1003100000AF78600B467B807B88DB439AB27B68BA
:100320001A8200BF0C37BD4680BC704780B500AF55
:10033000154B1B68144A43F001031360124B5A68B3
:100340001149124B13404B600F4B1B680E4A23F0B0
:10035000847323F4803313600B4B1B680A4A23F425
:1003600080231360084B5B68074A23F4FE03536045
:10037000054B4FF41F029A6000F00CF8044B4FF04D
:1003800000629A6000BF80BD001002400000FFF8CC
:1003900000ED00E080B500AF00F002F800BF80BDC6
:1003A00080B483B000AF00237B6000233B603A4BF6
:1003B0001B68394A43F480331360374B1B6803F4DE
:1003C00000333B607B6801337B603B68002B03D1CB
:1003D0007B68B3F5A06FF0D12F4B1B6803F400339B
:1003E000002B02D001233B6001E000233B603B680F
:1003F000012B4BD1294B1B68284A43F01003136093
:10040000264B1B68254A23F003031360234B1B680C
:10041000224A43F0020313601F4B1F4A5B6853607C
:100420001D4B1D4A5B6853601B4B5B681A4A43F4C3
:1004300080635360184B5B68174A23F47C13536046
:10044000154B5B68144A43F4E8135360124B1B6866
:10045000114A43F08073136000BF0F4B1B6803F019
:100460000073002BF9D00C4B5B680B4A23F003039D
:100470005360094B5B68084A43F00203536000BFB6
:10048000054B5B6803F00C03082BF9D100BF0C3758
:10049000BD4680BC704700BF0010024000200240F3
:1004A00080B582B000AF114B7B60114B3B6007E021
:1004B0007A68131D7B603B68191D396012681A60E9
:1004C0003B680C4A9342F3D30B480C494FF00002AF
:1004D0008842B8BF40F8042BFADBFFF727FF00F093
:1004E00073FD00BF0837BD4680BD00BFDE3B00087E
:1004F000000000203C0000203C0000208C03002075
:1005000080B400AFFEE7000080B582B000AF786035
:100510007B682F4A934208D10121042000F0D2FFCA
:100520000021042000F0CEFF4EE07B68294A934270
:1005300008D10121082000F0C5FF0021082000F0AB
:10054000C1FF41E07B68244A934208D10121102079
:1005500000F0B8FF0021102000F0B4FF34E07B6809
:100560001E4A934208D10121202000F0ABFF002158
:10057000202000F0A7FF27E07B68194A934208D1AA
:100580000121402000F09EFF0021402000F09AFF52
:100590001AE07B68134A934208D10121802000F0C1
:1005A00091FF0021802000F08DFF0DE07B680E4A56
:1005B000934209D101214FF4807000F083FF0021A4
:1005C0004FF4807000F07EFF00BF0837BD4680BD4D
:1005D00000080140000C01400010014000140140DF
:1005E00000180140001C01400020014080B489B087
:1005F00000AF786039600023FB6100233B6100237A
:10060000BB610023FB6000237B610023BB603B6870
:10061000DB7803F00F03FB613B68DB7803F010032A
:10062000002B05D03B689B781A46FB691343FB619E
:100630003B681B88DBB2002B44D07B681B687B6166
:100640000023BB6138E00122BB6902FA03F3FB60BF
:100650003B681B881A46FB6813403B613A69FB689C
:100660009A4226D1BB699B00FB600F22FB6802FA0D
:1006700003F3BB60BB68DB437A6913407B61FA69B3
:10068000FB6802FA03F37A6913437B613B68DB780A
:10069000282B05D10122BB699A407B685A6108E08A
:1006A0003B68DB78482B04D10122BB699A407B6808
:1006B0001A61BB690133BB61BB69072BC3D97B6876
:1006C0007A691A603B681B88FF2B46D97B685B6898
:1006D0007B610023BB613AE0BB690833012202FA67
:1006E00003F3FB603B681B881A46FB6813403B61C1
:1006F0003A69FB689A4227D1BB699B00FB600F22D5
:10070000FB6802FA03F3BB60BB68DB437A69134002
:100710007B61FA69FB6802FA03F37A6913437B6130
:100720003B68DB78282B05D1BB69083301229A404E
:100730007B685A613B68DB78482B05D1BB6908337D
:1007400001229A407B681A61BB690133BB61BB69B6
:10075000072BC1D97B687A695A6000BF2437BD4630
:1007600080BC704780B485B000AF78600B467B805A
:100770000023FB737B68DA687B881340002B02D070
:100780000123FB7301E00023FB73FB7B1846143746
:10079000BD4680BC704780B483B000AF78600B4624
:1007A0007B807A887B681A6100BF0C37BD4680BCAD
:1007B000704780B483B000AF78600B467B807A8846
:1007C0007B685A6100BF0C37BD4680BC7047000093
:1007D00080B483B000AF0346FB71FB7903F01F03C5
:1007E000012202FA03F1054A97F907305B0942F842
:1007F000231000BF0C37BD4680BC704700E100E00D
:1008000080B59EB000AF01214FF4804000F01EFE85
:100810000121042000F01AFE4FF40073A7F8743091
:10082000032387F87630182387F8773007F17403AD
:100830001946E348FFF7DAFE4FF48063A7F87430F7
:10084000042387F8773007F174031946DC48FFF773
:10085000CDFE4FF4E1337B660023A7F86830002318
:10086000A7F86A300023A7F86C300023A7F870308F
:100870000C23A7F86E3007F164031946D14801F044
:100880009DF80121CF4801F053F9252387F8603006
:10089000002387F86130002387F86230012387F84E
:1008A000633007F16003184601F0FCFF012240F2BB
:1008B0002551C44801F05BF901214FF4003000F0EC
:1008C000E3FD0121042000F0C1FD0423A7F87430EA
:1008D000032387F87630182387F8773007F17403FD
:1008E0001946B748FFF782FE0823A7F8743004239F
:1008F00087F8773007F174031946B148FFF776FEA1
:100900004FF461537B664FF48053A7F868304FF47F
:100910000053A7F86A304FF48063A7F86C300023C7
:10092000A7F870300C23A7F86E3007F1640319465E
:10093000A54801F043F80121A34801F0F9F8262366
:1009400087F86030002387F86130002387F8623031
:10095000012387F8633007F16003184601F0A2FF16
:100960002021994801F06DF9012240F22551964865
:1009700001F0FDF8012240F64601934801F0F7F836
:1009800001214FF4802000F07FFD0121082000F0BC
:100990005DFD4FF48063A7F87430032387F8763049
:1009A000182387F8773007F1740319468748FFF753
:1009B0001DFE4FF40063A7F87430042387F87730E6
:1009C00007F1740319468148FFF710FE07F164032D
:1009D00019467F4800F0F2FF01217D4801F0A8F898
:1009E000272387F86030002387F86130002387F8D9
:1009F0006230012387F8633007F16003184601F085
:100A000051FF012240F22551714801F0B0F8012157
:100A1000012000F039FD07F154031846FFF7F2FBFF
:100A20000023A7F856304FF4E153A7F854304FF4A1
:100A30009673A7F8583007F1540319464FF08040D9
:100A4000FFF764FB012201214FF08040FFF712FC09
:100A500001214FF08040FFF7EEFB1C2387F8603048
:100A6000002387F86130002387F86230012387F87C
:100A7000633007F16003184601F014FF01210220E2
:100A800000F002FD07F154031846FFF7BBFB0023FB
:100A9000A7F856304FF4E153A7F854306423A7F871
:100AA000583007F1540319464A48FFF72FFB01223B
:100AB00001214848FFF7DEFB01214648FFF7BBFB59
:100AC0001D2387F86030002387F86130002387F802
:100AD0006230012387F8633007F16003184601F0A4
:100AE000E1FE0121012000F093FC3B4BBB623B4B3C
:100AF000FB6210233B6317237B630023BB638023CC
:100B0000FB6300233B6400237B640023BB6400235E
:100B1000FB6400233B6507F128031946304801F0C8
:100B200043FC01228021284801F068F801220221BB
:100B30002B4801F093FC1120FFF74AFE294BBB62C2
:100B4000294BFB6207237B6307F1280319462748DB
:100B500001F02AFC012280211D4801F04FF80122FA
:100B60000221224801F07AFC0C20FFF731FE01211E
:100B70004FF4001000F088FC0121082000F066FC12
:100B8000C023A7F87430032387F876301C2387F836
:100B9000773007F1740319460C48FFF727FD00234F
:100BA000BB834BF6FF73FB8338233B844FF4806396
:100BB0007B844FF48043BB840D4BBB61012119E062
:100BC000000801400038014000440040000C014092
:100BD000004800400004004004440040A001002000
:100BE0008000024004480040540000201C000240E5
:100BF000A0860100364802F095FD07F1180319465A
:100C0000334802F0CDFC1023A7F87430102387F886
:100C10007730032387F8763007F1740319462D489F
:100C2000FFF7E4FC10212B48FFF7C3FD002387F8F2
:100C300077300223A7F8743007F17403194625486A
:100C4000FFF7D4FC4FF4004000F016FB01214FF4F5
:100C5000007000F0FBFB00237B6000233B7201234C
:100C60007B724FF46023FB6000233B6101233B75E3
:100C7000032301220121184800F06EFD3B1D194697
:100C8000154800F095FC0121134800F0E3FC1248E0
:100C900000F0FBFC00BF104800F006FD0346002BEF
:100CA000F9D10D4800F017FD00BF0B4800F022FD00
:100CB0000346002BF9D10121074800F0CBFC0121AC
:100CC000054800F02EFD00BF7837BD4680BD00BF4F
:100CD00000540040000801400024014080B582B06B
:100CE00000AF1B48FFF710FC1A48FFF70DFC1A482D
:100CF00000F008FE194800F005FE04233B80102395
:100D0000FB700323BB703B4619461148FFF76EFC8E
:100D100004210F48FFF74DFD00237B6002E07B6854
:100D200001337B607B680E4A9342F8D90D4B3C221D
:100D30001A70FFF765FD0C4B1B78052B02D001F0F4
:100D400031F801E000F0E4FF00BF0837BD4680BD88
:100D500000080140000C01400044004000480040F1
:100D60009FBB0D00140000204F00002080B500AF95
:100D70000B4B1B889BB203F02003002B0DD0094BBB
:100D80001B78002B01D102F0A5F8054800F085FF83
:100D90000346DBB2184602F0C9F800BF80BD00BFB1
:100DA000003801404D00002080B500AF1B4B1B8870
:100DB0009BB203F48073002B0CD04FF48071174862
:100DC00000F095FF164B01221A70144800F065FFE1
:100DD000FFF784FF114B1B889BB203F02003002B0D
:100DE00019D0104B1B78162B15D80C4800F055FF66
:100DF000034618460B4B1B785A1CD1B2094A117096
:100E00001A46C1B2084B99544FF0804300229A848D
:100E1000034B01221A7000BF80BD00BF0044004098
:100E20003C00002051000020B801002080B500AF38
:100E3000104B1B889BB203F02003002B18D00E4BE5
:100E40001B78062B14D80B4800F027FF03461846E2
:100E5000094B1B785A1CD1B2074A11701A46C1B20D
:100E6000064B9954064B00229A84064B01221A70B5
:100E700000BF80BD004800404E000020540000200C
:100E8000000400403D00002080B500AF01214FF07C
:100E90008040FFF712FA0346002B13D001214FF0D8
:100EA0008040FFF733FA084B1B78002B0AD001F083
:100EB0008DFB064800F0F1FE034B00221A70044B34
:100EC00000221A7000BF80BD3C000020004400409A
:100ED0005100002080B500AF01210D48FFF7EDF96A
:100EE0000346002B12D001210948FFF70FFA094BE6
:100EF0001B78002B0AD001F069F8074800F0CDFEFE
:100F0000044B00221A70054B00221A7000BF80BDEE
:100F1000000400403D000020004800404E0000203A
:100F200080B500AF4FF0007001F0B6FA0021024822
:100F300001F078FA00BF80BD8000024080B500AFAC
:100F4000202001F0A9FA0021024801F06BFA00BF4D
:100F500080BD00BF1C00024080B500AF00F084F8E7
:100F60004FF4803000F0AEF800BF312000F0E6FA18
:100F70000346002BF9D0002000F02AF9002000F0F1
:100F80005FF94FF4806000F03FF94FF4804000F0CB
:100F900073F94FF4E0114FF4803000F0C1F80120F4
:100FA00000F0DCF800BF392000F0C8FA0346002B3F
:100FB000F9D0022000F0E2F800BF00F0FBF8034691
:100FC000082BFAD100BF80BD80B500AFFFF7C4FF8A
:100FD000FFF716FCFFF782FEFEE7000080B500AFCA
:100FE000024800F029FF00BF80BD00BF783A00082A
:100FF00080B500AF024800F01FFF00BF80BD00BFFA
:10100000883A000880B500AF024800F015FF00BF25
:1010100080BD00BF983A000880B500AF024800F0DC
:101020000BFF00BF80BD00BFAC3A000880B500AF29
:10103000024800F001FF00BF80BD00BFC03A0008B9
:1010400080B500AF024800F0F7FE00BF80BD00BFD2
:10105000D43A000880B500AF024800F0EDFE00BFB2
:1010600080BD00BFE83A000880B400AF134B1B6896
:10107000124A43F001031360104B5A680F49104B9A
:1010800013404B600D4B1B680C4A23F0847323F410
:1010900080331360094B1B68084A23F480231360D4
:1010A000064B5B68054A23F4FE035360034B4FF481
:1010B0001F029A6000BFBD4680BC7047001002400E
:1010C0000000FFF880B483B000AF7860134B1B685A
:1010D000124A23F480331360104B1B680F4A23F429
:1010E000802313607B68B3F5803F03D0B3F5802F76
:1010F00007D00DE0094B1B68084A43F480331360A6
:1011000006E0064B1B68054A43F4A023136000BFAA
:1011100000BF0C37BD4680BC704700BF00100240C6
:1011200080B485B000AF786039600023FB600A4B63
:101130005B68FB60FB6823F47C13FB607A683B68A8
:101140001343FA681343FB60034AFB68536000BF14
:101150001437BD4680BC70470010024080B483B095
:1011600000AF0346FB71044AFB79136000BF0C37E4
:10117000BD4680BC704700BF6000424280B485B06D
:1011800000AF78600023FB60094B5B68FB60FB6885
:1011900023F00303FB60FA687B681343FB60044A97
:1011A000FB68536000BF1437BD4680BC704700BF6A
:1011B0000010024080B400AF044B5B68DBB203F068
:1011C0000C03DBB21846BD4680BC704700100240DD
:1011D00080B485B000AF78600023FB60094B5B688A
:1011E000FB60FB6823F0F003FB60FA687B68134345
:1011F000FB60044AFB68536000BF1437BD4680BCE7
:10120000704700BF0010024080B485B000AF786026
:101210000023FB60094B5B68FB60FB6823F4E06321
:10122000FB60FA687B681343FB60044AFB68536009
:1012300000BF1437BD4680BC704700BF001002409D
:1012400080B485B000AF78600023FB60094B5B6819
:10125000FB60FB6823F46053FB607B68DB00FA688B
:101260001343FB60034AFB68536000BF1437BD465D
:1012700080BC70470010024080B485B000AF786039
:101280000023FB60094B5B68FB60FB6823F4404371
:10129000FB60FA687B681343FB60044AFB68536099
:1012A00000BF1437BD4680BC704700BF001002402D
:1012B00080B487B000AF786000237B6100233B617E
:1012C0000023FB600023BB604C4B5B6803F00C0306
:1012D0007B617B69042B07D0082B09D0002B33D10D
:1012E0007B68474A1A6033E07B68454A1A602FE002
:1012F000424B5B6803F470133B61404B5B6803F443
:101300008033FB603B699B0C02333B61FB68002B25
:1013100006D13B693B4A02FB03F27B681A6017E087
:10132000364B5B6803F40033002B06D03B69354A2B
:1013300002FB03F27B681A600AE03B69304A02FB59
:1013400003F27B681A6003E07B682D4A1A6000BFD5
:101350002A4B5B6803F0F0037B617B691B097B61AF
:10136000294A7B6913441B78DBB2BB607B681A682F
:10137000BB68DA407B685A60204B5B6803F4E0632B
:101380007B617B691B0A7B611F4A7B6913441B7865
:10139000DBB2BB607B685A68BB68DA407B689A60E6
:1013A000164B5B6803F460537B617B69DB0A7B61EE
:1013B000154A7B6913441B78DBB2BB607B685A68B3
:1013C000BB68DA407B68DA600C4B5B6803F440432F
:1013D0007B617B699B0B7B610C4A7B6913441B78A7
:1013E000DBB2BB607B68DA68BB68B2FBF3F27B6898
:1013F0001A6100BF1C37BD4680BC70470010024018
:1014000000127A0000093D000000002010000020BA
:1014100080B483B000AF78600B46FB70FB78002B84
:1014200006D0094B5A6908497B6813434B6106E0B3
:10143000054B5A697B68DB43034913404B6100BF8E
:101440000C37BD4680BC70470010024080B483B0AA
:1014500000AF78600B46FB70FB78002B06D0094B81
:101460009A6908497B6813438B6106E0054B9A69CA
:101470007B68DB43034913408B6100BF0C37BD46DB
:1014800080BC70470010024080B483B000AF786029
:101490000B46FB70FB78002B06D0094BDA69084934
:1014A0007B681343CB6106E0054BDA697B68DB435D
:1014B00003491340CB6100BF0C37BD4680BC704769
:1014C0000010024080B483B000AF78600B46FB7020
:1014D000FB78002B06D0094BDA6808497B68134378
:1014E000CB6006E0054BDA687B68DB4303491340B9
:1014F000CB6000BF0C37BD4680BC70470010024077
:1015000080B483B000AF78600B46FB70FB78002B93
:1015100006D0094B1A6908497B6813430B6106E042
:10152000054B1A697B68DB43034913400B6100BF1D
:101530000C37BD4680BC70470010024080B487B0B5
:1015400000AF0346FB710023FB6000237B61002397
:10155000FB74FB795B09DBB2FB60FB68012B03D1F9
:10156000124B1B687B6109E0FB68022B03D10F4B18
:101570001B6A7B6102E00D4B5B6A7B61FB7903F0C8
:101580001F03FB607A69FB6822FA03F303F001038F
:10159000002B02D00123FB7401E00023FB74FB7CD1
:1015A00018461C37BD4680BC704700BF0010024083
:1015B00080B485B000AF786039600023FB60002301
:1015C000FB727B685B68FB60FB6823F4702323F489
:1015D0008073FB603B681A683B681B791B021343EE
:1015E000FA681343FB607B68FA685A607B689B6803
:1015F000FB60FA68164B1340FB603B68DA683B6897
:101600009B681A433B685B795B001343FA6813439A
:10161000FB607B68FA689A607B68DB6AFB60FB684A
:1016200023F47003FB603B681B7C013BDAB2FB7A5E
:101630001343FB72FB7A1B05FA681343FB607B685C
:10164000FA68DA6200BF1437BD4680BC704700BF3D
:10165000FDF7F1FF80B483B000AF78600B46FB70FC
:10166000FB78002B06D07B689B6843F001027B6807
:101670009A6005E07B689B6823F001027B689A60B2
:1016800000BF0C37BD4680BC704780B483B000AF4C
:1016900078607B689B6843F008027B689A6000BFB3
:1016A0000C37BD4680BC704780B485B000AF786011
:1016B0000023FB737B689B6803F00803002B02D0B8
:1016C0000123FB7301E00023FB73FB7B18461437F7
:1016D000BD4680BC704780B483B000AF78607B6843
:1016E0009B6843F004027B689A6000BF0C37BD46DC
:1016F00080BC704780B485B000AF78600023FB7376
:101700007B689B6803F00403002B02D00123FB736A
:1017100001E00023FB73FB7B18461437BD4680BCF9
:10172000704780B483B000AF78600B46FB70FB78E5
:10173000002B06D07B689B6843F4A0027B689A600C
:1017400005E07B689B6823F4A0027B689A6000BF79
:101750000C37BD4680BC704780B485B000AF786060
:10176000084611461A460346FB700B46BB701346EB
:101770007B700023FB600023BB60FB78092B23D91F
:101780007B68DB68FB60FB78A3F10A0213465B0011
:101790001344072202FA03F3BB60BB68DB43FA6819
:1017A0001340FB607978FB78A3F10A0213465B00D3
:1017B000134401FA03F3BB60FA68BB681343FB6090
:1017C0007B68FA68DA601EE07B681B69FB60FA7868
:1017D00013465B001344072202FA03F3BB60BB68A5
:1017E000DB43FA681340FB607978FA7813465B00B4
:1017F000134401FA03F3BB60FA68BB681343FB6050
:101800007B68FA681A61BB78062B21D87B685B6B12
:10181000FB60BB785A1E13469B0013441F2202FA3A
:1018200003F3BB60BB68DB43FA681340FB60F978E5
:10183000BB785A1E13469B00134401FA03F3BB60A6
:10184000FA68BB681343FB607B68FA685A6347E039
:10185000BB780C2B21D87B681B6BFB60BB78DA1F35
:1018600013469B0013441F2202FA03F3BB60BB68BC
:10187000DB43FA681340FB60F978BB78DA1F134644
:101880009B00134401FA03F3BB60FA68BB6813437F
:10189000FB607B68FA681A6322E07B68DB6AFB60A6
:1018A000BB78A3F10D0213469B0013441F2202FADA
:1018B00003F3BB60BB68DB43FA681340FB60F97855
:1018C000BB78A3F10D0213469B00134401FA03F306
:1018D000BB60FA68BB681343FB607B68FA68DA6236
:1018E00000BF1437BD4680BC704780B483B000AFE2
:1018F00078607B68DB6C9BB218460C37BD4680BCB9
:101900007047000080B582B000AF78607B68264ADF
:1019100093420AD101214FF48040FFF7D3FD00210B
:101920004FF48040FFF7CEFD3AE07B681F4A9342B8
:101930000AD101214FF40030FFF7E2FD00214FF4FE
:101940000030FFF7DDFD2BE07B68194A93420AD196
:1019500001214FF48020FFF7D3FD00214FF48020B8
:10196000FFF7CEFD1CE07B68124A93420AD10121A9
:101970004FF40020FFF7C4FD00214FF40020FFF7D3
:10198000BFFD0DE07B680C4A934209D101214FF461
:101990008010FFF7B5FD00214FF48010FFF7B0FD78
:1019A00000BF0837BD4680BD0038014000440040FC
:1019B00000480040004C00400050004080B58CB012
:1019C00000AF786039600023FB620023BB62002314
:1019D0007B6200233B620023FB617B68FB617B68C9
:1019E0001B8A9BB2FB62FA6A4CF6FF731340FB62E0
:1019F0003B68DB881A46FB6A1343FB62FB6A9AB2B8
:101A00007B681A827B689B899BB2FB62FA6A4EF6FE
:101A1000F3131340FB623B689A883B681B891343AE
:101A20009AB23B685B8913439BB21A46FB6A134325
:101A3000FB62FB6A9AB27B689A817B689B8A9BB245
:101A4000FB62FA6A4FF6FF431340FB623B689B89D7
:101A50001A46FB6A1343FB62FB6A9AB27B689A825E
:101A600007F108031846FFF723FCFB692E4A93424F
:101A700002D17B69BB6201E03B69BB627B689B89E9
:101A80009BB21BB2002B0CDABA6A13469B001344BC
:101A90009A001A443B681B685B00B2FBF3F37B625D
:101AA0000BE0BA6A13469B0013449A001A443B6841
:101AB0001B689B00B2FBF3F37B627B6A1B4AA2FBB1
:101AC00003235B091B01FB62FB6A1B09642202FB07
:101AD00003F37A6AD31A3B627B689B899BB21BB281
:101AE000002B0CDA3B6ADB003233104AA2FB0323E3
:101AF0005B0903F00703FA6A1343FB620BE03B6ADE
:101B00001B013233094AA2FB03235B0903F00F03D5
:101B1000FA6A1343FB62FB6A9AB27B681A8100BFC0
:101B20003037BD4680BD00BF003801401F85EB51F6
:101B300080B483B000AF78600B46FB70FB78002B5D
:101B400008D07B689B899BB243F400539AB27B68B0
:101B50009A8107E07B689B899BB223F400539AB279
:101B60007B689A8100BF0C37BD4680BC704780B44B
:101B700087B000AF78600B467B8013467B700023F4
:101B80003B610023FB600023BB6000237B617B681B
:101B90007B617B88DBB25B09DBB23B617B8803F056
:101BA0001F03FB600122FB6802FA03F3BB603B6981
:101BB000012B03D17B690C337B6109E03B69022B6C
:101BC00003D17B6910337B6102E07B6914337B6155
:101BD0007B78002B06D07B6919687B69BA680A4359
:101BE0001A6006E07B691968BB68DA437B690A40C2
:101BF0001A6000BF1C37BD4680BC704780B483B0FC
:101C000000AF78600B467B8013467B707B78002B9F
:101C100008D07B689B8A9AB27B8813439AB27B6810
:101C20009A8209E07B689B8A9AB27B88DB439BB2ED
:101C300013409AB27B689A8200BF0C37BD4680BCC5
:101C4000704780B483B000AF78600B467B807B68C0
:101C50001B8A9BB223F020039AB27B681A827B68AE
:101C60001B8A9AB27B8813439AB27B681A8200BFA0
:101C70000C37BD4680BC704780B483B000AF78603D
:101C80000B467B807B88C3F308039AB27B689A80FB
:101C900000BF0C37BD4680BC704780B483B000AF36
:101CA00078607B689B889BB2C3F308039BB218469D
:101CB0000C37BD4680BC704780B485B000AF7860FB
:101CC0000B467B800023FB737B681B889AB27B8862
:101CD00013409BB2002B02D00123FB7301E00023D1
:101CE000FB73FB7B18461437BD4680BC704780B43D
:101CF00083B000AF78600B467B807B88DB439AB271
:101D00007B681A8000BF0C37BD4680BC704700005E
:101D100080B500AF01211F4801F023FD00BF1E491F
:101D20001C4801F088FD0346002BF8D000229821C2
:101D3000184801F063FD00BF1849164801F07BFD0B
:101D40000346002BF8D09821124801F048FD00BF4F
:101D50001349104801F06FFD0346002BF8D078219D
:101D60000C4801F03CFD00BF0D490A4801F063FD3D
:101D70000346002BF8D00121064801F011FD00BFF9
:101D80000749044801F057FD0346002BF8D000BF77
:101D900080BD00BF00540040010003008200070026
:101DA0008400070080B500AF01211F4801F0D9FC75
:101DB00000BF1E491C4801F03EFD0346002BF8D031
:101DC00000229821184801F019FD00BF1849164853
:101DD00001F031FD0346002BF8D09821124801F0A4
:101DE000FEFC00BF1349104801F025FD0346002BFF
:101DF000F8D07C210C4801F0F2FC00BF0D490A48E4
:101E000001F019FD0346002BF8D00121064801F02E
:101E1000C7FC00BF0749044801F00DFD0346002B35
:101E2000F8D000BF80BD00BF005400400100030097
:101E3000820007008400070080B582B000AF7860A0
:101E40007B685A1C7A601B789BB219460948FFF7D9
:101E500013FF00BF40210748FFF72EFF0346002B6A
:101E6000F8D07B681B78002BEAD100BF0837BD464D
:101E700080BD00BF0038014080B500AF002106489A
:101E800000F0D0FA044B17225A600121024800F0FA
:101E9000C9FA00BF80BD00BF8000024080B500AF1E
:101EA0000021064800F0BEFA044B07225A600121C7
:101EB000024800F0B7FA00BF80BD00BF1C0002401E
:101EC00080B485B000AF78600B46FB700023FB73D5
:101ED0000023BB6009E0BB687A6813441A78FB7B77
:101EE0001344FB73BB680133BB60FB78013BBA68EA
:101EF0009A42F0DBFB78013B7A6813441B78FA7B4B
:101F00009A4201D0002300E0012318461437BD4651
:101F100080BC704780B400AF054B1B78002B02D10A
:101F2000044B01221A7000BFBD4680BC704700BF41
:101F3000500000204000002080B500AF00F036FBCC
:101F4000054B05221A7010210448FEF724FCFFF708
:101F5000DFFE00BF80BD00BF4F0000200008014031
:101F600080B500AF00F022FB00F00AFB054B002219
:101F70001A7010210448FEF71CFCFFF713FF00BF86
:101F800080BD00BF520000200008014080B582B033
:101F900000AF0023FB7100233B6009E00A4A3B6865
:101FA00013441A78FB791344FB713B6801333B609F
:101FB0003B68052BF2DD044AFB799371FFF76EFF56
:101FC00000BF0837BD4680BD5400002080B582B0F8
:101FD00000AF0721A548FFF773FF0346002B00F071
:101FE000CD81A24B5B78022B07D0A04B5B78202BD6
:101FF00003D09E4B5B78402B02D19D4B1E221A7062
:102000009B4B1B78002B1BD0994B1B78013BDAB202
:10201000974B1A70964B1B78002B11D100F056FA93
:10202000944B1B78012B0BD1934B1B78042B01D0C5
:10203000FFF770FF914B02221A708E4B00221A702C
:102040008A4B5B78202B75D0402B51D0002B40F071
:1020500098808B4B1B78012B1BD1884B05221A7063
:10206000824B884A106818609188927999809A7199
:102070007E4B40225A70844B1B785A1CD1B2824A44
:102080001170102B05D97E4B03221A707E4B002253
:102090001A707B4B1B78022B02D1794B03221A70EA
:1020A0007A4B1B78012B1BD1744B05221A706F4B96
:1020B000744A106818609188927999809A716B4B74
:1020C00020225A70704B1B785A1CD1B26E4A117084
:1020D000102B05D96D4B03221A706B4B00221A701E
:1020E0006A4B1B78022B47D1684B03221A7043E0DE
:1020F000634B1B78022B08D15C4B624A1068186056
:102100009188927999809A713BE05D4B01221A7017
:10211000564B00225A705C4B1B785A1CD1B25A4A5B
:102120001170422B2AD9564B02221A70564B0022AC
:102130001A7023E0554B1B78022B08D14B4B514AA8
:10214000106818609188927999809A7119E04F4BC4
:1021500001221A70454B00225A704B4B1B785A1CB7
:10216000D1B2494A1170422B0AD9484B02221A7047
:10217000454B00221A7003E000BF02E000BF00E000
:1021800000BF3E4B1B78052B00F2D88001A252F80D
:1021900023F000BFAD210008E7210008F521000869
:1021A000012200083D2300082B230008344B1B7834
:1021B000022B0AD1364B1B78002B03D02F4B022267
:1021C0001A7002E02D4B01221A70304B1B78022B43
:1021D00040F0B1802E4B1B78002B40F0AC802D4B93
:1021E00001221A70A7E02B4B01221A70234B022206
:1021F0001A70A3E0FFF7A0FE204B03221A709DE0A7
:102200001A4B5B78022B15D1234B1B78002B0DD179
:10221000FEF716FF214B1B78022B02D1FEF7E8FEDA
:1022200001E0FEF7DBFE1C4B01221A700F4B00226F
:102230005A7072E00D4B9B78012B09D1164B1B781D
:10224000002B6AD1FEF7E8FE134B01221A7064E0FE
:10225000064B9B78022B23D10F4B1B78002B5CD1B4
:10226000FEF7D0FE0C4B01221A7056E054000020FD
:10227000140000204C0000204F00002043000020EC
:1022800041000020180000203E00002042000020F5
:102290005000002040000020440000205200002098
:1022A0003848FFF722FB03461A46374BA3FB0223AD
:1022B0005B099BB2FB71FB79083B052B26D801A279
:1022C00052F823F0DD220008DD220008E522000894
:1022D000E5220008F9220008F92200082B4B05220C
:1022E0001A701AE02A4B1B78002B13D1FEF78AFED6
:1022F000274B01221A700DE0254B1B78002B0BD1C8
:10230000FEF78AFE224B01221A7005E0204B0022C4
:102310001A7002E000BF00E000BF1E4B1B78022BCA
:102320000BD11A4B05221A7007E0FFF719FE174B65
:1023300000221A7002E000BF00E000BF164B1B78BD
:10234000002B18D0154B164A1068186091889279A6
:1023500099809A71114B20225A70124B1B785A1C8B
:10236000D1B2104A1170422B05D90B4B00221A70C2
:102370000C4B00221A70FFF709FE00E000BF08377F
:10238000BD4680BD002401401F85EB514300002065
:1023900044000020420000204000002054000020A3
:1023A000180000203E00002080B485B000AF7860A7
:1023B00039600023FB607B681B68FB60FB6823F4CB
:1023C000FF4323F07003FB603B689A683B681B6A1D
:1023D0001A433B681B691A433B685B691A433B68B5
:1023E0009B691A433B68DB691A433B685B6A1A4383
:1023F0003B689B6A1343FA681343FB607B68FA6887
:102400001A603B68DA687B685A603B681A687B68C8
:102410009A603B685A687B68DA6000BF1437BD4633
:1024200080BC704780B483B000AF78600B46FB700F
:10243000FB78002B06D07B681B6843F001027B68A9
:102440001A6006E07B681A684FF6FE7313407A68DC
:10245000136000BF0C37BD4680BC704780B485B0A8
:1024600000AFF860B9601346FB71FB79002B06D012
:10247000FB681A68BB681A43FB681A6006E0FB68D1
:102480001A68BB68DB431A40FB681A6000BF143748
:10249000BD4680BC7047000080B483B000AF786058
:1024A0007B6803F08053002B03D0064A7B6853609F
:1024B00002E0054A7B68536000BF0C37BD4680BC14
:1024C000704700BF000402400000024080B500AF2A
:1024D00010212448FEF746F90346002B0AD0224B70
:1024E0001B78002B3BD1214B1B78032B37D0FFF7F8
:1024F00037FD34E01E4B1B7C03F01003002B03D090
:102500001C4B00221A702BE0194B5B7C03F001037B
:10251000002B03D0174B01221A7021E0144BDB78FB
:10252000572B0FD1124B9B784D2B03D1114B02220D
:102530001A7015E00E4B9B784C2B03D10D4B0322E8
:102540001A700DE003220C490C4801F0A3F9034670
:10255000002B05D1074B04221A7000BF00E000BF1A
:1025600080BD00BF00080140500000204300002053
:10257000B80100204F000020003B0008BE010020F1
:1025800080B400AF064B00221A70064B00221A607E
:10259000054B00221A7000BFBD4680BC704700BFCB
:1025A0005D0000209C0100206C00002080B400AF82
:1025B000044B00221A70044B00221A7000BFBD4663
:1025C00080BC70477000002060000020B0B582B071
:1025D00000AF17218C48FFF773FC0346002B00F077
:1025E0000F818A4B884A116855689468D0681960D1
:1025F0005D609C60D86011691961918A927D9982B1
:102600009A75834B1B78002B06D1804BDB7A272BE6
:1026100002D17E4B3A22DA7203227E497E4801F0D3
:1026200039F90346002B0CBF01230023DBB21A4605
:102630007A4B1A70764B1B78052B40F09E80784BB6
:102640001B78002B66D0774B1B78032B57D801A241
:1026500052F823F06526000887260008C3260008E4
:10266000E1260008704B1A78704B1B789A4206D20C
:102670006D4B1B780133DAB26B4B1A703FE0694B3C
:1026800001221A703BE06A4B1B680C33644AD35C2E
:10269000002B12D0674B1B785A1CD1B2654A1170BF
:1026A000654A1278934229D1614B1B680133604A15
:1026B0001360604B00221A7020E05A4B02221A70FD
:1026C0001CE0594B1B78002B06D0574B1B78013B65
:1026D000DAB2554B1A7012E0524B03221A700EE018
:1026E000534B1B68002B05D0514B1B68013B504AD4
:1026F000136004E04B4B00221A7000E000BF4C4B0B
:102700001B68474A1A444D4B10685168926818601C
:1027100059609A60414B1B78002B2CD0474B1B789B
:10272000002B03D0464B1B78002B08D1374B862259
:102730009A700B224349444801F0DEF81DE0002363
:10274000FB7114E0FB793D4AD35C002B05D1FB798A
:1027500002332E4A2E21D15406E0FA79FB79023356
:102760003649895C294AD154FB790133FB71FB79E5
:102770000B2BE7D901E0FFF703FF344B1B78012B4C
:1027800008D1264B1B78002B04D00B2230492E4851
:1027900001F0B2F82F4B1B681D2B0FDC1B4A2E4B90
:1027A00014461D460FCD20606160A260E36028687A
:1027B0002061AB88AA79A3821346A375134B1B78BB
:1027C000402B15D1254B3C221A70224B00221A6057
:1027D0000F4B1B78052B04D1214B01221A70FFF7F8
:1027E000BFFB1A4B00221A70094B06221A7004E034
:1027F000184B1B680133174A136000F033F800E0F0
:1028000000BF0837BD46B0BDB8010020A0010020C0
:102810004F000020003B0008BE01002050000020B7
:10282000700000205D0000206C00002037000020B8
:102830009C0100205C000020380000206000002087
:1028400052000020043B0008A301002043000020A8
:10285000103B000848000020200000201400002049
:102860004C00002080B582B000AF0023FB71002334
:102870003B6009E00A4A3B6813441A78FB79134429
:10288000FB713B6801333B603B68152BF2DD044A6A
:10289000FB799375FFF7F0FA00BF0837BD4680BD9E
:1028A000A001002080B487B000AF786000237B6176
:1028B00000233B610F23FB607B68DB78002B3AD061
:1028C000274BDB68DB431B0A03F007037B617B6953
:1028D000C3F104033B61FA687B6922FA03F3FB60EE
:1028E0007B685B781A463B6902FA03F37B617B687D
:1028F0009B781A46FB6813407A6913437B617B69B6
:102900001B017B61174A7B681B787969C9B2134444
:102910000A4683F800237B681B7803F01F031149E4
:102920007A6812785209D2B21046012202FA03F3F1
:1029300041F820300FE07B681B7803F01F03094942
:102940007A6812785209D2B2104601229A4000F1F8
:10295000200341F8232000BF1C37BD4680BC7047D0
:1029600000ED00E000E100E080B485B000AF7860E9
:102970000023FB8100237B7311E0FB891A46920040
:1029800013445B009AB27B7B79680B441B789BB243
:1029900013449BB2303BFB817B7B01337B737B7B9E
:1029A0007A6813441B78002BE7D1FB89184614374B
:1029B000BD4680BC7047000080B584B000AF786031
:1029C0000023FB6010E00E4AFB6852F82330796860
:1029D000184600F061FB0346002B02D0FB685BB297
:1029E0000AE0FB680133FB60064B1B781A46FB6864
:1029F0009342E8DB4FF0FF3318461037BD4680BDE9
:102A0000D40100204E02002080B582B000AF3B48C8
:102A1000FFF7D2FF0346FB713948FFF7CDFF0346AE
:102A2000BB7197F90730B3F1FF3F06D197F9063034
:102A3000B3F1FF3F01D100235CE097F90730013388
:102A4000304A52F823301846FFF78EFF0346002B1A
:102A50000DD197F9063001332A4A52F8233018462F
:102A6000FFF782FF0346002B01D1002342E097F9D4
:102A70000730B3F1FF3F12D097F907300133214AF5
:102A800052F823301846FFF76FFF0346002B06D09D
:102A900097F9073002331B4A52F8233000E0002335
:102AA000194A536097F90630B3F1FF3F12D097F9F6
:102AB00006300133134A52F823301846FFF754FF0B
:102AC0000346002B06D097F9063002330D4A52F820
:102AD000233000E000230C4A13600B4B5B68002B93
:102AE00001D1012306E0084B1B68002B01D1022312
:102AF00000E0032318460837BD4680BD1C3B000894
:102B0000243B0008D40100208003002080B584B05D
:102B100000AF0023FB8100237B739C4B1B680522C5
:102B20009B49184600F0B6FE0346002B40F06E812C
:102B3000964B9B689749184600F0AEFA0346002B67
:102B400000F00281FFF760FF0346002B02D1FFF780
:102B50002DFDA4E10023FB8100237B738E4B1B68BA
:102B6000002B75D08C4B1A687B7B13441B785BB2AF
:102B7000002B3DDA884B1A687B7B013313441B78AA
:102B80005BB2002B34DA844B1A687B7B13441B78CE
:102B90001B021AB2804B19687B7B01330B441B78F4
:102BA0001BB213431BB2FB80FB88184600F0A9FA46
:102BB0000346FB80FB8803F47F43002B0FD0FB8888
:102BC0001B0A9AB2FB89D1B2744AD154FB890133F2
:102BD000FB81FB89FA88D1B2704AD15404E0FB89A9
:102BE000FA88D1B26D4AD1547B7B01337B7307E005
:102BF000694B1A687B7B1A44FB891178674AD15468
:102C0000654B1A687B7B591C797313441B78002B26
:102C100005D0FB895A1CFA81B3F5967FA2D35E4B8F
:102C20005B68002B14D0FB895A1CFA811A465B4B57
:102C300020219954FB895A1CFA811A46574B2D21A1
:102C40009954FB895A1CFA811A46544B20219954F5
:102C500000237B73504B5B68002B5CD04E4B5A6853
:102C60007B7B13441B785BB2002B3DDA4A4B5A68DE
:102C70007B7B013313441B785BB2002B34DA464B69
:102C80005A687B7B13441B781B021AB2424B59686B
:102C90007B7B01330B441B781BB213431BB2FB80BD
:102CA000FB88184600F02DFA0346FB80FB8803F4EE
:102CB0007F43002B0FD0FB881B0A9AB2FB89D1B24D
:102CC000364AD154FB890133FB81FB89FA88D1B2A2
:102CD000324AD15404E0FB89FA88D1B22F4AD15448
:102CE0007B7B01337B7307E02B4B5A687B7B1A4459
:102CF000FB891178294AD154274B5A687B7B591C90
:102D0000797313441B78002B05D0FB895A1CFA8178
:102D1000B3F5967FA2D300237B73FB890133FB813C
:102D2000FB89BB6007E01D4ABB68134400221A7090
:102D3000BB680133BB60BB68B3F5967FF3DB002350
:102D40007B73FFF71DFCAAE0104B9B6814491846E3
:102D500000F0A2F90346002B00F09C800B4BDB68CF
:102D60001049184600F098F90346002B00F09280B5
:102D7000064B1B690C49184600F08EF90346002BE0
:102D800014D0FEF767F9FEF751F988E0D40100206E
:102D90002C3B0008343B000880030020700000201A
:102DA000503B00086C3B0008743B00083D4B1B691E
:102DB0003D49184600F070F90346002B6AD0FEF733
:102DC0003FF9384B5B693949184600F065F903460D
:102DD000002B02D0364B02221A70324B5B69354908
:102DE000184600F059F90346002B02D0304B01225F
:102DF0001A702C4B5B693049184600F04DF90346B8
:102E0000002B47D02A4B00221A7043E0254B1B6849
:102E10002A49184600F040F90346002B11D0214BF7
:102E20009B682749184600F037F90346002B33D03A
:102E3000FEF7FCF8FEF704F9FEF70CF9FEF7CEF802
:102E40002AE0184B1B681F49184600F025F9034675
:102E5000002B24D0134B5B681B49184600F01CF96B
:102E60000346002B1AD00F4B9B681849184600F0F8
:102E700013F90C4B9B681649184600F00DF90346F0
:102E8000002B0BD0FEF7D2F8FEF7DAF8FEF7E2F8E7
:102E900000BF03E000BF02E000BF00E000BF10374A
:102EA000BD4680BDD4010020843B00089C3B000847
:102EB00052000020A43B0008AC3B0008B43B0008D3
:102EC0002C3B0008BC3B0008C43B0008D03B00087A
:102ED000D83B000880B500AF4FF4967200210D4832
:102EE00000F080FD4FF4967200210B4800F07AFD4F
:102EF0000A4B01221A700A4B00221A80094B012248
:102F00001A70054B034A1A60074B00221A7000BF63
:102F100080BD00BF54020020D40100204D000020DD
:102F2000500200204E020020D001002080B582B067
:102F300000AF0346FB71514B1B88B3F5967F80F0C1
:102F400096804F4B1B781D2B00F29180FB790D2B47
:102F500000F08F80494B1B8819464A4AFB7953542D
:102F6000464B1B881A46474B9B5C0A2B0BD1434BA5
:102F70001B881A46434B00219954434B00221A7078
:102F8000FFF7C4FD76E0414B1B78002B1DD0404B72
:102F90001B885A1E91B23E4A1180002B06D0374B37
:102FA0001B8801339AB2354B1A8063E0334B1B8880
:102FB0001A46344B00219954304B1B8801339AB286
:102FC0002E4B1A80314B00221A702C4B1B881A464C
:102FD0002C4B9B5C222B21D1284B1B885A1C284B45
:102FE0001B78013B27490A442A4941F82320234BF7
:102FF0001B8801339AB2214B1A80214B1B78023B6C
:10300000244A52F823301846FFF7AEFC03461A460E
:103010001F4B1A801D4B01221A702BE0174B1B8887
:103020001A46184B9B5C202B1AD1184B1B78002B8F
:1030300016D1124B1B880133114A12781146114ADE
:103040001344144A42F821300D4B1B780133DAB295
:103050000B4B1A70094B1B881A460A4B00219954D6
:10306000064B1B8801339AB2044B1A8002E000BF62
:1030700000E000BF0837BD4680BD00BF5002002001
:103080004E020020540200204D000020D0010020FC
:103090004C020020D401002080B485B000AF7860DD
:1030A00039600023FB7302E0FB7B0133FB73FB7B86
:1030B0007A6813441A78FB7B39680B441B789A4270
:1030C0000BD1FB7B7A6813441B78002B05D0FB7B6C
:1030D0003A6813441B78002BE6D1FB7B7A681344D3
:1030E0001B78002B07D1FB7B3A6813441B78002B1D
:1030F00001D1012300E0002318461437BD4680BCEF
:10310000704780B485B000AF0346FB800023FB818D
:10311000FB884DF2B002934200F0C7814DF2B0023D
:10312000934200F3B0804DF29F02934200F08481FD
:103130004DF29F02934255DC4DF29602934200F00D
:103140005F814DF29602934223DC4DF2920293424C
:1031500000F04A814DF2920293420FDC4DF2900250
:10316000934200F03B814DF29002934200F339818B
:103170004DF28102934200F0FF8108E24DF2940289
:10318000934200F037814DF29402934200F335816F
:103190002DE14DF29A02934200F03F814DF29A02E6
:1031A00093420ADC4DF29802934200F030814DF2D6
:1031B0009802934200F32E8126E14DF29C02934245
:1031C00000F031814DF29C029342C0F229814DF210
:1031D0009D02934200F02A814DF29E02934200F03C
:1031E0002881D4E14DF2A702934200F03E814DF2D6
:1031F000A70293421EDC4DF2A302934200F0288105
:103200004DF2A30293420ADC4DF2A102934200F078
:1032100019814DF2A102934200F317810FE14DF2A3
:10322000A502934200F01A814DF2A502934200F3E9
:10323000188110E14DF2AB02934200F025814DF26E
:10324000AB0293420ADC4DF2A902934200F01581D1
:103250004DF2A902934200F314810AE14DF2AD024E
:10326000934200F017814DF2AD029342C0F20F81FC
:103270004DF2AE02934200F010814DF2AF02934244
:1032800000F00F8183E14DF28112934200F0418101
:103290004DF28112934250DC4DF2B802934200F09D
:1032A0001D814DF2B80293421EDC4DF2B4029342EE
:1032B00000F007814DF2B40293420ADC4DF2B202F3
:1032C000934200F0F8804DF2B202934200F3F68090
:1032D000EEE04DF2B602934200F0F9804DF2B602F4
:1032E000934200F3F880EFE04DF2BC02934200F00D
:1032F00001814DF2BC0293420ADC4DF2BA029342C4
:1033000000F0F2804DF2BA02934200F3F080E8E060
:103310004DF2BE02934200F0F3804DF2BE029342A2
:10332000C0F2EB804DF2BF02934200F0EC804DF210
:103330008012934200F0EA8029E14DF28912934213
:1033400000F002814DF2891293421EDC4DF285128B
:10335000934200F0EA804DF2851293420ADC4DF26E
:103360008312934200F0DB804DF28312934200F30C
:10337000D980D1E04DF28712934200F0DD804DF20A
:103380008712934200F3DC80D2E04DF28D1293421B
:1033900000F0E7804DF28D1293420ADC4DF28B1261
:1033A000934200F0D8804DF28B12934200F3D68006
:1033B000CEE04DF28F12934200F0DA804DF28F1280
:1033C0009342C0F2D1804DF29112934200F0D88026
:1033D0004EF28022934200F0D780D8E04123FB8157
:1033E000D7E04223FB81D4E05623FB81D1E0472381
:1033F000FB81CEE04423FB81CBE04523FB81C8E089
:1034000045F66823FB81C4E05A23FB81C1E04923D0
:10341000FB81BEE05923FB81BBE04B23FB81B8E07D
:103420004C23FB81B5E04D23FB81B2E04E23FB81B1
:10343000AFE04F23FB81ACE05023FB81A9E0522396
:10344000FB81A6E05323FB81A3E05423FB81A0E092
:103450005523FB819DE04623FB819AE04823FB81B5
:1034600097E045F27343FB8193E044F26833FB81BC
:103470008FE045F26833FB818BE045F26833FB81D6
:1034800087E02723FB8184E05923FB8181E0272308
:10349000FB817EE04523FB817BE045F67513FB81D4
:1034A00077E045F66113FB8173E06123FB8170E0F7
:1034B0006223FB816DE07623FB816AE06723FB8159
:1034C00067E06423FB8164E06523FB8161E047F6EC
:1034D0006823FB815DE07A23FB815AE06923FB814D
:1034E00057E07923FB8154E06B23FB8151E06C238F
:1034F000FB814EE06D23FB814BE06E23FB8148E0B6
:103500006F23FB8145E07023FB8142E07223FB8146
:103510003FE07323FB813CE07423FB8139E075239A
:10352000FB8136E06623FB8133E06823FB8130E0DA
:1035300047F27343FB812CE046F26833FB8128E0BD
:1035400047F26833FB8124E047F26833FB8120E0D7
:103550002723FB811DE07923FB811AE02723FB81D0
:1035600017E06523FB8114E047F67513FB8110E03B
:1035700047F66113FB810CE045F66F13FB8108E011
:1035800047F66F13FB8104E02D23FB8101E020232C
:10359000FB81FB8918461437BD4680BC704700008C
:1035A00080B58AB000AF786039600023FB840023C7
:1035B0007B840423BB84574BFB617B689B88FB8423
:1035C000FB8C23F03F03FB8407F108031846FDF74B
:1035D0006FFE3B69FB61FB694F4AA2FB03239B0C17
:1035E0007B84FA8C7B8C1343FB847B68FA8C9A80F7
:1035F0007B681B889BB223F001039AB27B681A8018
:103600000023FB843B681B68444A934215D83B68FF
:103610001B685B00FA69B2FBF3F3BB84BB8C032B22
:1036200001D80423BB84FA8CBB8C1343FB847B8CB2
:1036300001339AB27B681A8440E03B68DB884BF622
:10364000FF72934209D13B681A6813465B0013442A
:10365000FA69B2FBF3F3BB840EE03B681A681346C9
:103660009B0013449A001344FA69B2FBF3F3BB8442
:10367000BB8C43F48043BB84BB8CC3F30B03002B94
:1036800003D1BB8C43F00103BB84BA8CFB8C134386
:103690009BB26FEA43436FEA5343FB847B8C4FF446
:1036A000967202FB03F31E4A82FB03129211DB1790
:1036B000D31A9BB201339AB27B681A847B68FA8C66
:1036C0009A837B681B889BB243F001039AB27B68A4
:1036D0001A807B681B88FB84FB8C23F4816323F0B6
:1036E0000203FB843B689A883B685B8913439AB268
:1036F000FB8C1343FB847B68FA8C1A803B689A89A5
:103700003B681B8913439AB27B681A8100BF283734
:10371000BD4680BD00127A0083DE1B43A0860100F7
:10372000D34D621080B483B000AF78600B46FB705D
:10373000FB78002B08D07B681B889BB243F0010309
:103740009AB27B681A8007E07B681B889BB223F0E3
:1037500001039AB27B681A8000BF0C37BD4680BC5B
:10376000704780B483B000AF78600B46FB70FB7885
:10377000002B08D07B681B889BB243F480739AB2FD
:103780007B681A8007E07B681B889BB223F48073F8
:103790009AB27B681A8000BF0C37BD4680BC704768
:1037A00080B483B000AF78600B46FB70FB78002BD1
:1037B00008D07B681B889BB243F400739AB27B6885
:1037C0001A8007E07B681B889BB223F400739AB2CF
:1037D0007B681A8000BF0C37BD4680BC704780B440
:1037E00083B000AF78600B46FB70FB789AB27B68C1
:1037F0001A8200BF0C37BD4680BC704780B483B0CE
:1038000000AF78600B46FB701346BB70BB78002B93
:1038100004D0FB7843F00103FB7003E0FB7823F056
:103820000103FB70FB789AB27B681A8200BF0C37E9
:10383000BD4680BC704780B487B000AF7860396007
:1038400000233B610023FB600023BB600023FB756A
:103850007B689B8A9BB2FB607B681B8B9BB2BB60C7
:10386000BB681B04BB60FA68BB68134323F07F434B
:103870003B613A693B6813403A689A4202D101239E
:10388000FB7501E00023FB75FB7D18461C37BD4628
:1038900080BC7047032A70B414D940EA0105AD0713
:1038A00004460B4622D11D6826681946AE422046C2
:1038B00003F1040304F1040418D1043A032A204656
:1038C0001946F0D8541E72B102780B789A4208BF9C
:1038D000641806D00CE010F8012F11F8013F9A424D
:1038E00006D1A142F7D1002070BC7047541EEBE70F
:1038F000D01A70BC704700BF844641EA000313F041
:10390000030349D1403A23D30B6803604B684360FB
:103910008B688360CB68C3600B6903614B6943614B
:103920008B698361CB69C3610B6A03624B6A436233
:103930008B6A8362CB6AC3620B6B03634B6B43631B
:103940008B6B8363CB6BC36340304031403ADBD237
:1039500030320BD30B6803604B6843608B68836025
:10396000CB68C36010301031103AF3D20C3205D35B
:1039700051F8043B40F8043B043AF9D2043208D031
:10398000D2071CBF11F8013B00F8013B01D30B88A3
:1039900003806046704700BF082A13D38B07B1D05D
:1039A00010F00303AED0C3F10403D21ADB071CBF2F
:1039B00011F8013B00F8013BA4D331F8023B20F899
:1039C000023B9FE7043AD9D3013A11F8013B00F8D2
:1039D000013BF9D20B7803704B7843708B7883707E
:1039E00060467047F0B4860743D0541E002A3ED08C
:1039F000CAB2034602E014F1FF3438D303F8012BB6
:103A00009D07F8D1032C2BD9CDB245EA05250F2C03
:103A100045EA054516D9A4F110073F0903F1200630
:103A200006EB071603F1100242E9045542E902557C
:103A30001032B242F8D104F00F040137032C03EB2B
:103A400007130DD91E462246043A032A46F8045BA2
:103A5000FAD8221F22F003020432134404F00304B4
:103A60002CB1C9B21C4403F8011B9C42FBD1F0BC31
:103A7000704714460346C5E7415652435020504C08
:103A80004159200D0A000000415652435020504138
:103A9000555345200D0A0000415652435020464FD1
:103AA0005257415244200D0A000000004156524333
:103AB00050204241434B57415244200D0A00000020
:103AC0004156524350205044552033312032200D6E
:103AD0000A000000415652435020504455203331D3
:103AE0002031200D0A00000041565243502050441E
:103AF00055203230203220312032200D0A000000C3
:103B00004155580020426C7565746F6F74682000D1
:103B10002020202020202020202020004152544915
:103B2000535400005449544C450000004156524340
:103B3000500000004745545F454C454D454E545F8D
:103B4000415454524942555445535F52535000001A
:103B500052454749535445525F4E4F544946494395
:103B60004154494F4E5F5253500000004348414E6C
:103B700047454400545241434B5F4348414E4745FB
:103B800044000000504C41594241434B5F53544163
:103B90005455535F4348414E47454400504C4159AA
:103BA000494E4700504155534544000053544F502F
:103BB00050454400434F4E4E45435400413244501B
:103BC0000000000053545245414D494E470000004B
:0E3BD00053544F500000000053544152540013
:103BDE0000000000010203040102030406070809A5
:103BEE00020406081E0000004100000030007101B2
:103BFE0021FE2D4D4954535542495348492DFFFF3F
:0C3C0E000000000000009D0A0100000002
:0400000508000000EF
:00000001FF
