:020000040800F2
:1000000068040020A9040008090500080905000883
:10001000090500080905000809050008000000009E
:1000200000000000000000000000000009050008BA
:10003000090500080000000009050008090500087E
:100040000905000809050008090500080905000858
:100050000905000809050008090500080905000848
:100060000905000809050008090500080905000838
:100070005D0E0008090500080905000809050008CB
:1000800009050008410E00080905000809050008D7
:100090000905000809050008090500080905000808
:1000A00009050008090500080905000809050008F8
:1000B000A90D0008F50D000809050008090500084C
:1000C00009050008090500080905000809050008D8
:1000D0000905000809050008D10C00084D0D0008AD
:1000E00009050008090500080905000800000000CE
:1000F0000000000000000000000000000000000000
:1001000000000000000000005FF808F180B485B036
:1001100000AF786039600023FB817B681B88FB811E
:100120007B682E4A934213D07B682D4A93420FD0AE
:100130007B68B3F1804F0BD07B682A4A934207D08B
:100140007B68294A934203D07B68284A934208D1AE
:10015000FB8923F07003FB813B685A88FB891343BA
:10016000FB817B68224A93420CD07B68214A9342F0
:1001700008D0FB8923F44073FB813B68DA88FB8954
:100180001343FB817B68FA891A803B689A887B68F5
:100190009A853B681A887B681A857B680F4A934268
:1001A0000FD07B680E4A93420BD07B68124A934271
:1001B00007D07B68114A934203D07B68104A934270
:1001C00004D13B681B7A9AB27B681A867B6801224D
:1001D0009A8200BF1437BD4680BC7047002C014096
:1001E000003401400004004000080040000C0040C2
:1001F0000010004000140040004001400044014055
:100200000048014080B483B000AF78607B684FF64F
:10021000FF729A807B6800221A807B680022DA8055
:100220007B6800225A807B6800221A7200BF0C375C
:10023000BD4680BC704700BF80B483B000AF78601B
:100240000B46FB70FB78002B08D07B681B889BB2A9
:1002500043F001039AB27B681A8007E07B681B8831
:100260009BB223F001039AB27B681A8000BF0C375F
:10027000BD4680BC704700BF80B483B000AF7860DB
:100280000B467B8013467B707B78002B08D07B6805
:100290009B899AB27B8813439AB27B689A8109E062
:1002A0007B689B899AB27B88DB439BB213409AB2EE
:1002B0007B689A8100BF0C37BD4680BC704700BF89
:1002C00080B485B000AF78600B467B800023FB7361
:1002D0000023BB8100237B817B681B8A9AB27B88C9
:1002E0001340BB817B689B899AB27B8813407B81DA
:1002F000BB89002B05D07B89002B02D00123FB7327
:1003000001E00023FB73FB7B18461437BD4680BC1D
:10031000704700BF80B483B000AF78600B467B802D
:100320007B88DB439AB27B681A8200BF0C37BD46DC
:1003300080BC704780B500AF154A154B1B6843F071
:10034000010313601249124B5A68124B13404B6061
:100350000F4A0F4B1B6823F0847323F48033136020
:100360000B4A0B4B1B6823F480231360084A084B8D
:100370005B6823F4FE035360054B4FF41F029A6041
:1003800000F00CF8044B4FF000629A6000BF80BD93
:10039000001002400000FFF800ED00E080B500AF63
:1003A00000F002F800BF80BD80B483B000AF00232E
:1003B0007B6000233B603A4A394B1B6843F480332F
:1003C0001360374B1B6803F400333B607B680133D9
:1003D0007B603B68002B03D17B68B3F5A06FF0D145
:1003E0002F4B1B6803F40033002B02D001233B602A
:1003F00001E000233B603B68012B4BD1294A294B8C
:100400001B6843F010031360264A264B1B6823F039
:1004100003031360234A234B1B6843F0020313605A
:100420001F4A1F4B5B6853601D4A1D4B5B6853603E
:100430001B4A1B4B5B6843F480635360184A184B9C
:100440005B6823F47C135360154A154B5B6843F4D7
:10045000E8135360124A124B1B6843F08073136019
:1004600000BF0F4B1B6803F00073002BF9D00C4A40
:100470000B4B5B6823F003035360094A084B5B682E
:1004800043F00203536000BF054B5B6803F00C03AD
:10049000082BF9D100BF0C37BD4680BC704700BFA8
:1004A000001002400020024080B582B000AF114B26
:1004B0007B60114B3B6007E03B681A1D3A607A682D
:1004C000111D796012681A603B680C4A9342F3D39D
:1004D0000B480C494FF000028842B8BF40F8042B8B
:1004E000FADBFFF727FF00F0FFFC00BF0837BD462F
:1004F00080BD00BFBC25000800000020380000209F
:10050000380000206800002080B400AFFEE700BF84
:1005100080B582B000AF78607B682F4A934208D1E3
:100520000121042000F018FF0021042000F014FF36
:100530004EE07B68294A934208D10121082000F04F
:100540000BFF0021082000F007FF41E07B68244AF0
:10055000934208D10121102000F0FEFE002110205E
:1005600000F0FAFE34E07B681E4A934208D1012174
:10057000202000F0F1FE0021202000F0EDFE27E019
:100580007B68194A934208D10121402000F0E4FE23
:100590000021402000F0E0FE1AE07B68134A9342FD
:1005A00008D10121802000F0D7FE0021802000F03A
:1005B000D3FE0DE07B680E4A934209D101214FF42E
:1005C000807000F0C9FE00214FF4807000F0C4FE7E
:1005D00000BF0837BD4680BD00080140000C014047
:1005E000001001400014014000180140001C0140AF
:1005F0000020014080B489B000AF786039600023EA
:10060000FB6100233B610023BB610023FB600023EF
:100610007B610023BB603B68DB7803F00F03FB6169
:100620003B68DB7803F01003002B05D03B689B7818
:100630001A46FB691343FB613B681B88DBB2002B46
:1006400044D07B681B687B610023BB6138E00122DA
:10065000BB6902FA03F3FB603B681B881A46FB6820
:1006600013403B613A69FB689A4226D1BB699B0003
:10067000FB600F22FB6802FA03F3BB60BB68DB433D
:100680007A6913407B61FA69FB6802FA03F37A69BD
:1006900013437B613B68DB78282B05D10122BB69C2
:1006A0009A407B685A6108E03B68DB78482B04D1AC
:1006B0000122BB699A407B681A61BB690133BB6147
:1006C000BB69072BC3D97B687A691A603B681B88B2
:1006D000FF2B46D97B685B687B610023BB613AE0F6
:1006E000BB690833012202FA03F3FB603B681B88F5
:1006F0001A46FB6813403B613A69FB689A4227D16E
:10070000BB699B00FB600F22FB6802FA03F3BB602E
:10071000BB68DB437A6913407B61FA69FB6802FAC4
:1007200003F37A6913437B613B68DB78282B05D19F
:10073000BB69083301229A407B685A613B68DB78C9
:10074000482B05D1BB69083301229A407B681A61A6
:10075000BB690133BB61BB69072BC1D97B687A696F
:100760005A6000BF2437BD4680BC704780B483B058
:1007700000AF78600B467B807A887B681A6100BF87
:100780000C37BD4680BC704780B483B000AF786042
:100790000B467B807A887B685A6100BF0C37BD4668
:1007A00080BC704780B483B000AF0346FB7108493A
:1007B00097F907305B09FA7902F01F02012000FA6D
:1007C00002F241F8232000BF0C37BD4680BC7047C1
:1007D00000E100E080B400AFBFF34F8F0549054B47
:1007E000DB6803F4E062044B1343CB60BFF34F8F2D
:1007F000FEE700BF00ED00E00400FA0580B59EB002
:1008000000AF01214FF4003000F088FD01210420E9
:1008100000F066FD0423A7F87430032387F87630D0
:10082000182387F8773007F174031946E148FFF77A
:10083000E1FE0823A7F87430042387F8773007F126
:1008400074031946DB48FFF7D5FE4FF461537B660E
:100850004FF48053A7F868304FF40053A7F86A307C
:100860004FF48063A7F86C300023A7F870300C2396
:10087000A7F86E3007F164031946CF4800F0EEFF89
:100880000121CD4801F0A4F8262387F86030002329
:1008900087F86130002387F86230012387F86330DE
:1008A00007F16003184601F0A7FC012240F2255130
:1008B000C14801F0ADF801226021BF4801F0A8F85D
:1008C00001214FF4802000F029FD0121082000F0D3
:1008D00007FD4FF48063A7F87430032387F8763060
:1008E000182387F8773007F174031946B348FFF7E8
:1008F00081FE4FF40063A7F87430042387F8773043
:1009000007F174031946AD48FFF774FE07F164035D
:100910001946AB4800F0A2FF0121A94801F058F8A0
:10092000272387F86030002387F86130002387F899
:100930006230012387F8633007F16003184601F045
:100940005BFC012240F225519D4801F061F8012134
:10095000012000F0E3FC07F154031846FFF752FCB6
:100960000023A7F856304FF4E153A7F854304FF462
:100970009673A7F8583007F1540319464FF080409A
:10098000FFF7C4FB012201214FF08040FFF774FC08
:1009900001214FF08040FFF74FFC1C2387F86030A7
:1009A000002387F86130002387F86230012387F83D
:1009B000633007F16003184601F01EFC012102209C
:1009C00000F0ACFC07F154031846FFF71BFC0023B2
:1009D000A7F856304FF4E153A7F854306423A7F832
:1009E000583007F1540319467648FFF78FFB012270
:1009F00001217448FFF740FC01217248FFF71CFCFD
:100A00001D2387F86030002387F86130002387F8C2
:100A10006230012387F8633007F16003184601F064
:100A2000EBFB0121012000F03DFC674BBB62674BF3
:100A3000FB6210233B6317237B630023BB6380238C
:100A4000FB6300233B6400237B640023BB6400231F
:100A5000FB6400233B6507F1280319465C4801F05D
:100A600095FA01228021544801F01AF8012202214E
:100A7000574801F0E5FA1120FFF794FE554BBB6291
:100A8000554BFB6207237B6307F128031946534844
:100A900001F07CFA01228021494801F001F801228D
:100AA00002214E4801F0CCFA0C20FFF77BFE012119
:100AB0004FF4001000F032FC0121082000F010FC7F
:100AC000C023A7F87430032387F876301C2387F8F7
:100AD000773007F1740319463848FFF78BFD002380
:100AE000BB834BF6FF73FB8338233B844FF4806357
:100AF0007B844FF48043BB84394BBB61012139486F
:100B000001F09EFC07F118031946364801F0D6FBA8
:100B10000121102000F0E4FB4FF46043A7F874308B
:100B2000102387F87730032387F8763007F17403B2
:100B300019462D48FFF75EFD4FF460412A48FFF744
:100B400023FE1023A7F87430102387F8773003238F
:100B500087F8763007F1740319461648FFF74AFD07
:100B600010211448FFF710FE002387F87730022386
:100B7000A7F8743007F1740319460E48FFF73AFDE1
:100B80004FF4004000F0C2FA01214FF4007000F071
:100B9000A7FB00237B6000233B7201237B724FF491
:100BA0006023FB6000233B6101233B75032301228B
:100BB00001211BE00008014000440040000C0140FE
:100BC0000048004000040040044400405000002061
:100BD0008000024004480040480000201C00024001
:100BE000A08601000054004000100140154800F0AC
:100BF00003FD3B1D1946134800F024FC0121114858
:100C000000F072FC0F4800F08BFC00BF0D4800F0B4
:100C100097FC0346002BF9D10A4800F0A9FC00BF5D
:100C2000084800F0B5FC0346002BF9D10121054826
:100C300000F05AFC0121034800F0C2FC00BF7837E5
:100C4000BD4680BD0024014080B582B000AF1A4887
:100C5000FFF75EFC1948FFF75BFC194800F0A2FDA6
:100C6000184800F09FFD04233B801023FB700323F2
:100C7000BB703B4619461048FFF7BCFC04210E48E8
:100C8000FFF782FD00237B6002E07B6801337B601D
:100C90007B680D4A9342F8D9FFF7B0FD0B4B1B78E8
:100CA000002B02D100F07AFF01E000F02DFF00BF21
:100CB0000837BD4680BD00BF00080140000C014060
:100CC00000440040004800403F420F004500002023
:100CD00098B500AF194B1B889BB203F00703002B9C
:100CE0000AD0174B01221A70144800F0FDFEFFF7DE
:100CF00071FDFFF7A9FF1FE0104B1B889BB203F0AB
:100D00002003002B18D00F4B1B78162B14D80D4B3B
:100D10001B785A1CD1B20B4A11701C46074800F0D0
:100D2000E3FE0346DAB2084B1A554FF08043002227
:100D30009A84034B01221A7000BF98BD0044004002
:100D400038000020470000205000002098B500AF78
:100D5000104B1B889BB203F02003002B17D00E4BC7
:100D60001B78062B13D80C4B1B785A1CD1B20A4A9D
:100D700011701C46074800F0B7FE0346DAB2074B75
:100D80001A55074B00229A84064B01221A7000BFA5
:100D900098BD00BF004800404400002048000020EB
:100DA000000400403900002080B500AF01214FF061
:100DB0008040FFF785FA0346002B13D001214FF046
:100DC0008040FFF7A7FA084B1B78002B0AD001F0F0
:100DD0006FF9064800F088FE034B00221A70044B9E
:100DE00000221A7000BF80BD38000020004400407F
:100DF0004700002080B500AF01210D48FFF760FAE1
:100E00000346002B12D001210948FFF783FA094B52
:100E10001B78002B0AD000F0B1FF074800F064FEF9
:100E2000044B00221A70054B00221A7000BF80BDCF
:100E30000004004039000020004800404400002029
:100E400080B500AF4FF0007001F018F900210248A2
:100E500001F0DAF800BF80BD8000024080B500AF2D
:100E6000202001F00BF90021024801F0CDF800BF6D
:100E700080BD00BF1C00024080B500AF00F03EF80E
:100E80004FF4803000F068F800BF312000F0A0FA85
:100E90000346002BF9D0002000F0E4F8002000F019
:100EA00019F94FF4806000F0F9F84FF4804000F039
:100EB0002DF94FF4E0114FF4803000F07BF8012061
:100EC00000F096F800BF392000F082FA0346002BAC
:100ED000F9D0022000F09CF800BF00F0B5F80346FE
:100EE000082BFAD100BF80BD80B500AFFFF7C4FF6B
:100EF000FFF784FCFFF7A8FEFEE700BF80B400AF59
:100F0000134A134B1B6843F0010313601049104B45
:100F10005A68104B13404B600D4A0D4B1B6823F071
:100F2000847323F480331360094A094B1B6823F44C
:100F300080231360064A064B5B6823F4FE0353606C
:100F4000034B4FF41F029A6000BFBD4680BC704740
:100F5000001002400000FFF880B483B000AF78605A
:100F6000134A134B1B6823F480331360104A104B51
:100F70001B6823F4802313607B68B3F5803F03D0A4
:100F8000B3F5802F07D00DE0094A094B1B6843F4E5
:100F90008033136006E0064A054B1B6843F4A02328
:100FA000136000BF00BF0C37BD4680BC704700BF58
:100FB0000010024080B485B000AF78603960002333
:100FC000FB600A4B5B68FB60FB6823F47C13FB60EF
:100FD0007A683B681343FA681343FB60034AFB6873
:100FE000536000BF1437BD4680BC704700100240FC
:100FF00080B483B000AF0346FB71044AFB791360F1
:1010000000BF0C37BD4680BC704700BF6000424245
:1010100080B485B000AF78600023FB60094B5B684B
:10102000FB60FB6823F00303FB60FA687B681343F3
:10103000FB60044AFB68536000BF1437BD4680BCA8
:10104000704700BF0010024080B400AF044B5B68E3
:10105000DBB203F00C03DBB21846BD4680BC704720
:101060000010024080B485B000AF78600023FB60C0
:10107000094B5B68FB60FB6823F0F003FB60FA68D8
:101080007B681343FB60044AFB68536000BF14375E
:10109000BD4680BC704700BF0010024080B485B0E0
:1010A00000AF78600023FB60094B5B68FB60FB6866
:1010B00023F4E063FB60FA687B681343FB60044A37
:1010C000FB68536000BF1437BD4680BC704700BF4B
:1010D0000010024080B485B000AF78600023FB6050
:1010E000094B5B68FB60FB6823F46053FB607B6823
:1010F000DB00FA681343FB60034AFB68536000BFE0
:101100001437BD4680BC70470010024080B485B0E3
:1011100000AF78600023FB60094B5B68FB60FB68F5
:1011200023F44043FB60FA687B681343FB60044A86
:10113000FB68536000BF1437BD4680BC704700BFDA
:101140000010024080B487B000AF786000237B615C
:1011500000233B610023FB600023BB604C4B5B68BA
:1011600003F00C037B617B69042B07D0082B09D0AB
:10117000002B33D17B68474A1A6033E07B68454ACD
:101180001A602FE0424B5B6803F470133B61404BE5
:101190005B6803F48033FB603B699B0C02333B616B
:1011A000FB68002B06D13B693B4A02FB03F27B68DC
:1011B0001A6017E0364B5B6803F40033002B06D04F
:1011C0003B69354A02FB03F27B681A600AE03B691F
:1011D000304A02FB03F27B681A6003E07B682D4A09
:1011E0001A6000BF2A4B5B6803F0F0037B617B69E8
:1011F0001B097B61294A7B6913441B78DBB2BB6006
:101200007B681A68BB68DA407B685A60204B5B6871
:1012100003F4E0637B617B691B0A7B611F4A7B6986
:1012200013441B78DBB2BB607B685A68BB68DA404A
:101230007B689A60164B5B6803F460537B617B6943
:10124000DB0A7B61154A7B6913441B78DBB2BB6008
:101250007B685A68BB68DA407B68DA600C4B5B6875
:1012600003F440437B617B699B0B7B610C4A7B6988
:1012700013441B78DBB2BB607B68DA68BB68B2FBE7
:10128000F3F27B681A6100BF1C37BD4680BC704713
:101290000010024000127A0000093D00000000200A
:1012A0001000002080B483B000AF78600B46FB7064
:1012B000FB78002B06D00949084B5A697B68134319
:1012C0004B6106E00549054B5A697B68DB431340D7
:1012D0004B6100BF0C37BD4680BC70470010024018
:1012E00080B483B000AF78600B46FB70FB78002BB6
:1012F00006D00949084B9A697B6813438B6106E065
:101300000549054B9A697B68DB4313408B6100BF3D
:101310000C37BD4680BC70470010024080B483B0DB
:1013200000AF78600B46FB70FB78002B06D00949B4
:10133000084BDA697B681343CB6106E00549054B2E
:10134000DA697B68DB431340CB6100BF0C37BD46D5
:1013500080BC70470010024080B483B000AF78605A
:101360000B46FB70FB78002B06D00949084BDA6866
:101370007B681343CB6006E00549054BDA687B6860
:10138000DB431340CB6000BF0C37BD4680BC7047C9
:101390000010024080B483B000AF78600B46FB7051
:1013A000FB78002B06D00949084B1A697B68134368
:1013B0000B6106E00549054B1A697B68DB43134066
:1013C0000B6100BF0C37BD4680BC70470010024067
:1013D00080B487B000AF0346FB710023FB6000239D
:1013E0007B610023FB74FB795B09DBB2FB60FB686C
:1013F000012B03D1124B1B687B6109E0FB68022BB8
:1014000003D10F4B1B6A7B6102E00D4B5B6A7B6172
:10141000FB7903F01F03FB607A69FB6822FA03F390
:1014200003F00103002B02D00123FB7401E0002331
:10143000FB74FB7C18461C37BD4680BC704700BF60
:101440000010024080B485B000AF7860396000239E
:10145000FB600023FB727B685B68FB60FB6823F426
:10146000702323F48073FB603B681A683B681B7928
:101470001B021343FA681343FB607B68FA685A60E7
:101480007B689B68FB60FA68164B1340FB603B6807
:10149000DA683B689B681A433B685B795B001343DF
:1014A000FA681343FB607B68FA689A607B68DB6AC2
:1014B000FB60FB6823F47003FB603B681B7C013B13
:1014C000DAB2FB7A1343FB72FB7A1B05FA6813430B
:1014D000FB607B68FA68DA6200BF1437BD4680BCE7
:1014E000704700BFFDF7F1FF80B483B000AF7860B4
:1014F0000B46FB70FB78002B06D07B689B6843F0A3
:1015000001027B689A6005E07B689B6823F001021A
:101510007B689A6000BF0C37BD4680BC704700BF37
:1015200080B483B000AF78607B689B6843F00802AA
:101530007B689A6000BF0C37BD4680BC704700BF17
:1015400080B485B000AF78600023FB737B689B6834
:1015500003F00803002B02D00123FB7301E00023FA
:10156000FB73FB7B18461437BD4680BC704700BF39
:1015700080B483B000AF78607B689B6843F004025E
:101580007B689A6000BF0C37BD4680BC704700BFC7
:1015900080B485B000AF78600023FB737B689B68E4
:1015A00003F00403002B02D00123FB7301E00023AE
:1015B000FB73FB7B18461437BD4680BC704700BFE9
:1015C00080B483B000AF78600B46FB70FB78002BD3
:1015D00006D07B689B6843F4A0027B689A6005E0B4
:1015E0007B689B6823F4A0027B689A6000BF0C377D
:1015F000BD4680BC704700BF80B485B000AF786046
:10160000084611461A460346FB700B46BB7013464C
:101610007B700023FB600023BB60FB78092B23D980
:101620007B68DB68FB60FB78A3F10A0213465B0072
:101630001344072202FA03F3BB60BB68DB43FA687A
:101640001340FB607978FB78A3F10A0213465B0034
:10165000134401FA03F3BB60FA68BB681343FB60F1
:101660007B68FA68DA601EE07B681B69FB60FA78C9
:1016700013465B001344072202FA03F3BB60BB6806
:10168000DB43FA681340FB607978FA7813465B0015
:10169000134401FA03F3BB60FA68BB681343FB60B1
:1016A0007B68FA681A61BB78062B21D87B685B6B74
:1016B000FB60BB785A1E13469B0013441F2202FA9C
:1016C00003F3BB60BB68DB43FA681340FB60F97847
:1016D000BB785A1E13469B00134401FA03F3BB6008
:1016E000FA68BB681343FB607B68FA685A6347E09B
:1016F000BB780C2B21D87B681B6BFB60BB78DA1F97
:1017000013469B0013441F2202FA03F3BB60BB681D
:10171000DB43FA681340FB60F978BB78DA1F1346A5
:101720009B00134401FA03F3BB60FA68BB681343E0
:10173000FB607B68FA681A6322E07B68DB6AFB6007
:10174000BB78A3F10D0213469B0013441F2202FA3B
:1017500003F3BB60BB68DB43FA681340FB60F978B6
:10176000BB78A3F10D0213469B00134401FA03F367
:10177000BB60FA68BB681343FB607B68FA68DA6297
:1017800000BF1437BD4680BC704700BF80B483B033
:1017900000AF78607B68DB6C9BB218460C37BD46A7
:1017A00080BC704780B582B000AF78607B68264A05
:1017B00093420AD101214FF48040FFF7CDFD002173
:1017C0004FF48040FFF7C8FD3AE07B681F4A934220
:1017D0000AD101214FF40030FFF7DCFD00214FF466
:1017E0000030FFF7D7FD2BE07B68194A93420AD1FE
:1017F00001214FF48020FFF7CDFD00214FF4802020
:10180000FFF7C8FD1CE07B68124A93420AD1012110
:101810004FF40020FFF7BEFD00214FF40020FFF73A
:10182000B9FD0DE07B680C4A934209D101214FF4C8
:101830008010FFF7AFFD00214FF48010FFF7AAFDE5
:1018400000BF0837BD4680BD00380140004400405D
:1018500000480040004C00400050004080B58CB073
:1018600000AF786039600023FB620023BB62002375
:101870007B6200233B620023FB617B68FB617B682A
:101880001B8A9BB2FB62FA6A4CF6FF731340FB6241
:101890003B68DB881A46FB6A1343FB62FB6A9AB219
:1018A0007B681A827B689B899BB2FB62FA6A4EF660
:1018B000F3131340FB623B689A883B681B89134310
:1018C0009AB23B685B8913439BB21A46FB6A134387
:1018D000FB62FB6A9AB27B689A817B689B8A9BB2A7
:1018E000FB62FA6A4FF6FF431340FB623B689B8939
:1018F0001A46FB6A1343FB62FB6A9AB27B689A82C0
:1019000007F108031846FFF71DFCFB692E4A9342B6
:1019100002D17B69BB6201E03B69BB627B689B894A
:101920009BB21BB2002B0CDABA6A13469B0013441D
:101930009A001A443B681B685B00B2FBF3F37B62BE
:101940000BE0BA6A13469B0013449A001A443B68A2
:101950001B689B00B2FBF3F37B627B6A1B4AA2FB12
:1019600003235B091B01FB62FB6A1B09642202FB68
:1019700003F37A6AD31A3B627B689B899BB21BB2E2
:10198000002B0CDA3B6ADB003233104AA2FB032344
:101990005B0903F00703FA6A1343FB620BE03B6A3F
:1019A0001B013233094AA2FB03235B0903F00F0337
:1019B000FA6A1343FB62FB6A9AB27B681A8100BF22
:1019C0003037BD4680BD00BF003801401F85EB5158
:1019D00080B483B000AF78600B46FB70FB78002BBF
:1019E00008D07B689B899BB243F400539AB27B6812
:1019F0009A8107E07B689B899BB223F400539AB2DB
:101A00007B689A8100BF0C37BD4680BC704700BF21
:101A100080B487B000AF78600B467B8013467B7044
:101A200000233B610023FB600023BB6000237B613C
:101A30007B687B617B88DBB25B09DBB23B617B88C7
:101A400003F01F03FB600122FB6802FA03F3BB6093
:101A50003B69012B03D17B690C337B6109E03B6956
:101A6000022B03D17B6910337B6102E07B69143365
:101A70007B617B78002B06D07B697A691168BA6834
:101A80000A431A6006E07B697A691168BA68D24332
:101A90000A401A6000BF1C37BD4680BC704700BFBB
:101AA00080B483B000AF78600B467B8013467B70B8
:101AB0007B78002B08D07B689B8A9AB27B88134383
:101AC0009AB27B689A8209E07B689B8A9AB27B888B
:101AD000DB439BB213409AB27B689A8200BF0C37FB
:101AE000BD4680BC704700BF80B483B000AF786053
:101AF0007B689B889BB2C3F308039BB218460C37E4
:101B0000BD4680BC704700BF80B500AF01211F48B3
:101B100000F0B6FC00BF1E491C4800F01FFD034644
:101B2000002BF8D000229821184800F0F9FC00BFE3
:101B30001849164800F012FD0346002BF8D09821F2
:101B4000124800F0DDFC00BF1349104800F006FD0C
:101B50000346002BF8D060210C4800F0D1FC00BFF8
:101B60000D490A4800F0FAFC0346002BF8D0012189
:101B7000064800F0A5FC00BF0749044800F0EEFC51
:101B80000346002BF8D000BF80BD00BF00540040CA
:101B900001000300820007008400070080B500AF49
:101BA00001211F4800F06CFC00BF1E491C4800F0DA
:101BB000D5FC0346002BF8D000229821184800F0ED
:101BC000AFFC00BF1849164800F0C8FC0346002BC4
:101BD000F8D09821124800F093FC00BF1349104838
:101BE00000F0BCFC0346002BF8D07C210C4800F030
:101BF00087FC00BF0D490A4800F0B0FC0346002BEB
:101C0000F8D00121064800F05BFC00BF07490448FA
:101C100000F0A4FC0346002BF8D000BF80BD00BF3D
:101C20000054004001000300820007008400070008
:101C300080B500AF0021064800F0E6F9044B1722FA
:101C40005A600121024800F0DFF900BF80BD00BFEB
:101C50008000024080B500AF0021064800F0D4F9B2
:101C6000044B07225A600121024800F0CDF900BF61
:101C700080BD00BF1C00024080B485B000AF78601A
:101C80000B46FB700023FB730023BB6009E0BB68BD
:101C90007A6813441A78FB7B1344FB73BB680133E7
:101CA000BB60FB785A1EBB689A42F0DCFB78013BB4
:101CB0007A6813441B78FA7B9A4201D0002300E033
:101CC000012318461437BD4680BC704780B400AF6E
:101CD000064B1B78002B0CBF01230023DBB21A46F6
:101CE000034B1A7000BFBD4680BC70474600002001
:101CF0003B00002080B500AF054B01221A70102177
:101D00000448FEF733FDFFF7FFFE00BF80BD00BFB4
:101D1000450000200008014080B500AF054B0022BF
:101D20001A7010210448FEF72FFDFFF737FF00BFA0
:101D300080BD00BF450000200008014080B582B092
:101D400000AF0023FB7100233B6009E00A4A3B68B7
:101D500013441A78FB791344FB713B6801333B60F1
:101D60003B68052BF2DD044AFB799371FFF772FFA4
:101D700000BF0837BD4680BD4800002080B584B054
:101D800000AF07217948FFF777FF0346002B00F0EB
:101D9000E880774B1B78002B21D0764B1B78412BAA
:101DA0001DD80023FB600BE0734AFB6813441978CD
:101DB0006E4AFB6813440A461A70FB680133FB60E5
:101DC000FB68062BF0DD694B20225A70694B1B78AB
:101DD0000133DAB2674B1A70FFF7B0FFC2E0644B11
:101DE0001B78002B05D0624B00221A70614B4222F7
:101DF0001A70624B1B78012B40F080805D4B1B7882
:101E0000002B1AD05B4B1B78013BDAB2594B1A708E
:101E10000023BB600BE0584ABB6813441978534A4F
:101E2000BB6813440A461A70BB680133BB60BB68C9
:101E3000062BF0DDFFF782FF94E04C4B5B78402BE4
:101E400003D04A4B5B78202B01D1FFF765FF474B4E
:101E50005B78022B08D14FF400414948FEF786FC1D
:101E6000424B00225A7046E0404B9B78012B05D133
:101E70004FF480414248FEF779FC3CE03B4B9B78B5
:101E8000022B05D14FF400513D48FEF76FFC32E0C4
:101E90003C48FFF77BFC03461A463B4BA3FB02235F
:101EA0005B099BB2FB71FB79083B052B1DD801A296
:101EB00052F823F0CD1E0008CD1E0008D31E0008E6
:101EC000D31E0008DF1E0008DF1E0008FFF724FFF6
:101ED00011E04FF400512A48FEF748FC0BE04FF4A4
:101EE00080412748FEF742FC05E04FF4604124485A
:101EF000FEF74AFC00BFFFF721FF33E01F4B1B78C2
:101F0000002B2FD1194B5B78402B16D1174B002299
:101F10005A70184B1B780133DAB2164B1A70154BF6
:101F20001B78422B06D9134B00221A70FFF7CEFE06
:101F3000FFF7E0FEFFF702FF14E00E4B1B78002BCB
:101F40000CD00B4B1B78002B08D1084B40225A7049
:101F5000084B1B78013BDAB2064B1A70FFF7EEFE16
:101F600000E000BF1037BD4680BD00BF4800002024
:101F70003B0000203A000020140000204500002013
:101F800000100140002401401F85EB5180B485B052
:101F900000AF786039600023FB607B681B68FB60E2
:101FA000FB6823F4FF4323F07003FB603B689A68EF
:101FB0003B681B6A1A433B681B691A433B685B69B1
:101FC0001A433B689B691A433B68DB691A433B68C9
:101FD0005B6A1A433B689B6A1343FA681343FB60CE
:101FE0007B68FA681A603B68DA687B685A603B680D
:101FF0001A687B689A603B685A687B68DA6000BF41
:102000001437BD4680BC704780B483B000AF7860A1
:102010000B46FB70FB78002B06D07B681B6843F0F7
:1020200001027B681A6006E07B681A684FF6FE734F
:1020300013407A68136000BF0C37BD4680BC704700
:1020400080B485B000AFF860B9601346FB71FB79CE
:10205000002B06D0FB681A68BB681A43FB681A603D
:1020600006E0FB681A68BB68DB431A40FB681A602D
:1020700000BF1437BD4680BC704700BF80B483B03A
:1020800000AF78607B6803F08053002B03D0064AD2
:102090007B68536002E0054A7B68536000BF0C37E1
:1020A000BD4680BC704700BF0004024000000240F3
:1020B00080B582B000AF17213A48FFF7DDFD034637
:1020C000002B6BD0374B9B79412B09D1354BDB79FA
:1020D000552B05D1334B1B7A582B01D1012300E03E
:1020E0000023DAB2304B1A7000237B6017E02F4BCD
:1020F0001B681D2B09DC2E4A7B6813441978294A7A
:102100007B6813440A461A7006E07B68012B02DDE7
:102110007B680D2B00E000BF7B6801337B607B6830
:10212000162BE4DD1F4B1B78402B03D11F4B0022E5
:102130001A6004E01D4B1B6801331C4A13601D4BE1
:102140001B78012B27D1184B1B78002B23D0154B64
:1021500086229A70134B2022DA70124B42221A7197
:10216000104B4C225A710F4B55229A710D4B452240
:10217000DA710C4B54221A720A4B4F225A72094BD5
:102180004F229A72074B5422DA72064B48221A7376
:10219000044B20225A7300F00FF800E000BF08370C
:1021A000BD4680BD50000020460000203C000020BD
:1021B0001C0000204500002080B582B000AF002345
:1021C000FB7100233B6009E00A4A3B6813441A781C
:1021D000FB791344FB713B6801333B603B68152B73
:1021E000F2DD044AFB799375FFF722FD00BF083743
:1021F000BD4680BD5000002080B487B000AF78603D
:1022000000237B6100233B610F23FB607B68DB784D
:10221000002B3AD0274BDB68DB4303F4E0631B0A57
:102220007B617B69C3F104033B61FA687B6922FA35
:1022300003F3FB607B685B781A463B6902FA03F3A1
:102240007B617B689B781A46FB6813407A6913436D
:102250007B617B691B017B61174A7B681B7879690D
:10226000C9B213440A4683F80023134A7B681B78DB
:102270005B09DBB218467B681B7803F01F03012162
:1022800001FA03F342F820300FE00B497B681B781A
:102290005B09DBB218467B681B7803F01F03012241
:1022A0009A4000F1200341F8232000BF1C37BD46AF
:1022B00080BC704700ED00E000E100E080B58AB02E
:1022C00000AF786039600023FB8400237B84042303
:1022D000BB84574BFB617B689B88FB84FB8C23F0A2
:1022E0003F03FB8407F108031846FEF72BFF3B6909
:1022F000FB61FB694F4AA2FB03239B0C7B84FA8C96
:102300007B8C1343FB847B68FA8C9A807B681B88E8
:102310009BB223F001039AB27B681A800023FB84EE
:102320003B681B68444A934215D83B681B685B00B6
:10233000FA69B2FBF3F3BB84BB8C032B01D80423F3
:10234000BB84FA8CBB8C1343FB847B8C01339AB225
:102350007B681A8440E03B68DB884BF6FF7293424F
:1023600009D13B681A6813465B001344FA69B2FB53
:10237000F3F3BB840EE03B681A6813469B001344DA
:102380009A001344FA69B2FBF3F3BB84BB8C43F4A9
:102390008043BB84BB8CC3F30B03002B03D1BB8CEA
:1023A00043F00103BB84BA8CFB8C13439BB26FEAEE
:1023B00043436FEA5343FB847B8C4FF4967202FBDA
:1023C00003F31E4A82FB03129211DB17D31A9BB24E
:1023D00001339AB27B681A847B68FA8C9A837B6893
:1023E0001B889BB243F001039AB27B681A807B681A
:1023F0001B88FB84FB8C23F4816323F00203FB84A2
:102400003B689A883B685B8913439AB2FB8C134301
:10241000FB847B68FA8C1A803B689A893B681B892D
:1024200013439AB27B681A8100BF2837BD4680BD2E
:1024300000127A0083DE1B43A0860100D34D621098
:1024400080B483B000AF78600B46FB70FB78002B44
:1024500008D07B681B889BB243F001039AB27B686B
:102460001A8007E07B681B889BB223F001039AB2B5
:102470007B681A8000BF0C37BD4680BC704700BF28
:1024800080B483B000AF78600B46FB70FB78002B04
:1024900008D07B681B889BB243F480739AB27B6838
:1024A0001A8007E07B681B889BB223F480739AB282
:1024B0007B681A8000BF0C37BD4680BC704700BFE8
:1024C00080B483B000AF78600B46FB70FB78002BC4
:1024D00008D07B681B889BB243F400739AB27B6878
:1024E0001A8007E07B681B889BB223F400739AB2C2
:1024F0007B681A8000BF0C37BD4680BC704700BFA8
:1025000080B483B000AF78600B46FB70FB789AB262
:102510007B681A8200BF0C37BD4680BC704700BF85
:1025200080B483B000AF78600B46FB701346BB707D
:10253000BB78002B04D0FB7843F00103FB7003E071
:10254000FB7823F00103FB70FB789AB27B681A8258
:1025500000BF0C37BD4680BC704700BF80B487B059
:1025600000AF7860396000233B610023FB600023EB
:10257000BB600023FB757B689B8A9BB2FB607B681A
:102580001B8B9BB2BB60BB681B04BB60FA68BB685B
:10259000134323F07F433B613A693B681A403B6831
:1025A0009A4202D10123FB7501E00023FB75FB7DFC
:0C25B00018461C37BD4680BC704700BFB9
:1025BC0000000000010203040102030406070809DD
:1025CC0002040608410000003000710021FE2D4D70
:1025DC004954535542495348492DFFFF0000000010
:0825EC0000009D0058020000F0
:0400000508000000EF
:00000001FF
